{"abi":[{"type":"constructor","inputs":[],"stateMutability":"nonpayable"},{"type":"function","name":"MAX_COMMISSION_RATE","inputs":[],"outputs":[{"name":"","type":"uint96","internalType":"uint96"}],"stateMutability":"view"},{"type":"function","name":"MAX_REWARD_ALLOCATION_BLOCK_DELAY","inputs":[],"outputs":[{"name":"","type":"uint64","internalType":"uint64"}],"stateMutability":"view"},{"type":"function","name":"UPGRADE_INTERFACE_VERSION","inputs":[],"outputs":[{"name":"","type":"string","internalType":"string"}],"stateMutability":"view"},{"type":"function","name":"activateQueuedValCommission","inputs":[{"name":"valPubkey","type":"bytes","internalType":"bytes"}],"outputs":[],"stateMutability":"nonpayable"},{"type":"function","name":"activateReadyQueuedRewardAllocation","inputs":[{"name":"valPubkey","type":"bytes","internalType":"bytes"}],"outputs":[],"stateMutability":"nonpayable"},{"type":"function","name":"beaconDepositContract","inputs":[],"outputs":[{"name":"","type":"address","internalType":"contract IBeaconDeposit"}],"stateMutability":"view"},{"type":"function","name":"commissionChangeDelay","inputs":[],"outputs":[{"name":"","type":"uint64","internalType":"uint64"}],"stateMutability":"view"},{"type":"function","name":"distributor","inputs":[],"outputs":[{"name":"","type":"address","internalType":"address"}],"stateMutability":"view"},{"type":"function","name":"factory","inputs":[],"outputs":[{"name":"","type":"address","internalType":"address"}],"stateMutability":"view"},{"type":"function","name":"getActiveRewardAllocation","inputs":[{"name":"valPubkey","type":"bytes","internalType":"bytes"}],"outputs":[{"name":"","type":"tuple","internalType":"struct IBeraChef.RewardAllocation","components":[{"name":"startBlock","type":"uint64","internalType":"uint64"},{"name":"weights","type":"tuple[]","internalType":"struct IBeraChef.Weight[]","components":[{"name":"receiver","type":"address","internalType":"address"},{"name":"percentageNumerator","type":"uint96","internalType":"uint96"}]}]}],"stateMutability":"view"},{"type":"function","name":"getDefaultRewardAllocation","inputs":[],"outputs":[{"name":"","type":"tuple","internalType":"struct IBeraChef.RewardAllocation","components":[{"name":"startBlock","type":"uint64","internalType":"uint64"},{"name":"weights","type":"tuple[]","internalType":"struct IBeraChef.Weight[]","components":[{"name":"receiver","type":"address","internalType":"address"},{"name":"percentageNumerator","type":"uint96","internalType":"uint96"}]}]}],"stateMutability":"view"},{"type":"function","name":"getQueuedRewardAllocation","inputs":[{"name":"valPubkey","type":"bytes","internalType":"bytes"}],"outputs":[{"name":"","type":"tuple","internalType":"struct IBeraChef.RewardAllocation","components":[{"name":"startBlock","type":"uint64","internalType":"uint64"},{"name":"weights","type":"tuple[]","internalType":"struct IBeraChef.Weight[]","components":[{"name":"receiver","type":"address","internalType":"address"},{"name":"percentageNumerator","type":"uint96","internalType":"uint96"}]}]}],"stateMutability":"view"},{"type":"function","name":"getSetActiveRewardAllocation","inputs":[{"name":"valPubkey","type":"bytes","internalType":"bytes"}],"outputs":[{"name":"","type":"tuple","internalType":"struct IBeraChef.RewardAllocation","components":[{"name":"startBlock","type":"uint64","internalType":"uint64"},{"name":"weights","type":"tuple[]","internalType":"struct IBeraChef.Weight[]","components":[{"name":"receiver","type":"address","internalType":"address"},{"name":"percentageNumerator","type":"uint96","internalType":"uint96"}]}]}],"stateMutability":"view"},{"type":"function","name":"getValCommissionOnIncentiveTokens","inputs":[{"name":"valPubkey","type":"bytes","internalType":"bytes"}],"outputs":[{"name":"","type":"uint96","internalType":"uint96"}],"stateMutability":"view"},{"type":"function","name":"getValQueuedCommissionOnIncentiveTokens","inputs":[{"name":"valPubkey","type":"bytes","internalType":"bytes"}],"outputs":[{"name":"","type":"tuple","internalType":"struct IBeraChef.QueuedCommissionRateChange","components":[{"name":"blockNumberLast","type":"uint32","internalType":"uint32"},{"name":"commissionRate","type":"uint96","internalType":"uint96"}]}],"stateMutability":"view"},{"type":"function","name":"getValidatorIncentiveTokenShare","inputs":[{"name":"valPubkey","type":"bytes","internalType":"bytes"},{"name":"incentiveTokenAmount","type":"uint256","internalType":"uint256"}],"outputs":[{"name":"","type":"uint256","internalType":"uint256"}],"stateMutability":"view"},{"type":"function","name":"initialize","inputs":[{"name":"_distributor","type":"address","internalType":"address"},{"name":"_factory","type":"address","internalType":"address"},{"name":"_governance","type":"address","internalType":"address"},{"name":"_beaconDepositContract","type":"address","internalType":"address"},{"name":"_maxNumWeightsPerRewardAllocation","type":"uint8","internalType":"uint8"}],"outputs":[],"stateMutability":"nonpayable"},{"type":"function","name":"isQueuedRewardAllocationReady","inputs":[{"name":"valPubkey","type":"bytes","internalType":"bytes"},{"name":"blockNumber","type":"uint256","internalType":"uint256"}],"outputs":[{"name":"","type":"bool","internalType":"bool"}],"stateMutability":"view"},{"type":"function","name":"isReady","inputs":[],"outputs":[{"name":"","type":"bool","internalType":"bool"}],"stateMutability":"view"},{"type":"function","name":"isWhitelistedVault","inputs":[{"name":"receiver","type":"address","internalType":"address"}],"outputs":[{"name":"","type":"bool","internalType":"bool"}],"stateMutability":"view"},{"type":"function","name":"maxNumWeightsPerRewardAllocation","inputs":[],"outputs":[{"name":"","type":"uint8","internalType":"uint8"}],"stateMutability":"view"},{"type":"function","name":"maxWeightPerVault","inputs":[],"outputs":[{"name":"","type":"uint96","internalType":"uint96"}],"stateMutability":"view"},{"type":"function","name":"owner","inputs":[],"outputs":[{"name":"","type":"address","internalType":"address"}],"stateMutability":"view"},{"type":"function","name":"proxiableUUID","inputs":[],"outputs":[{"name":"","type":"bytes32","internalType":"bytes32"}],"stateMutability":"view"},{"type":"function","name":"queueNewRewardAllocation","inputs":[{"name":"valPubkey","type":"bytes","internalType":"bytes"},{"name":"startBlock","type":"uint64","internalType":"uint64"},{"name":"weights","type":"tuple[]","internalType":"struct IBeraChef.Weight[]","components":[{"name":"receiver","type":"address","internalType":"address"},{"name":"percentageNumerator","type":"uint96","internalType":"uint96"}]}],"outputs":[],"stateMutability":"nonpayable"},{"type":"function","name":"queueValCommission","inputs":[{"name":"valPubkey","type":"bytes","internalType":"bytes"},{"name":"commissionRate","type":"uint96","internalType":"uint96"}],"outputs":[],"stateMutability":"nonpayable"},{"type":"function","name":"renounceOwnership","inputs":[],"outputs":[],"stateMutability":"nonpayable"},{"type":"function","name":"rewardAllocationBlockDelay","inputs":[],"outputs":[{"name":"","type":"uint64","internalType":"uint64"}],"stateMutability":"view"},{"type":"function","name":"setCommissionChangeDelay","inputs":[{"name":"_commissionChangeDelay","type":"uint64","internalType":"uint64"}],"outputs":[],"stateMutability":"nonpayable"},{"type":"function","name":"setDefaultRewardAllocation","inputs":[{"name":"ra","type":"tuple","internalType":"struct IBeraChef.RewardAllocation","components":[{"name":"startBlock","type":"uint64","internalType":"uint64"},{"name":"weights","type":"tuple[]","internalType":"struct IBeraChef.Weight[]","components":[{"name":"receiver","type":"address","internalType":"address"},{"name":"percentageNumerator","type":"uint96","internalType":"uint96"}]}]}],"outputs":[],"stateMutability":"nonpayable"},{"type":"function","name":"setMaxNumWeightsPerRewardAllocation","inputs":[{"name":"_maxNumWeightsPerRewardAllocation","type":"uint8","internalType":"uint8"}],"outputs":[],"stateMutability":"nonpayable"},{"type":"function","name":"setMaxWeightPerVault","inputs":[{"name":"_maxWeightPerVault","type":"uint96","internalType":"uint96"}],"outputs":[],"stateMutability":"nonpayable"},{"type":"function","name":"setRewardAllocationBlockDelay","inputs":[{"name":"_rewardAllocationBlockDelay","type":"uint64","internalType":"uint64"}],"outputs":[],"stateMutability":"nonpayable"},{"type":"function","name":"setVaultWhitelistedStatus","inputs":[{"name":"receiver","type":"address","internalType":"address"},{"name":"isWhitelisted","type":"bool","internalType":"bool"},{"name":"metadata","type":"string","internalType":"string"}],"outputs":[],"stateMutability":"nonpayable"},{"type":"function","name":"transferOwnership","inputs":[{"name":"newOwner","type":"address","internalType":"address"}],"outputs":[],"stateMutability":"nonpayable"},{"type":"function","name":"updateWhitelistedVaultMetadata","inputs":[{"name":"vault","type":"address","internalType":"address"},{"name":"metadata","type":"string","internalType":"string"}],"outputs":[],"stateMutability":"nonpayable"},{"type":"function","name":"upgradeToAndCall","inputs":[{"name":"newImplementation","type":"address","internalType":"address"},{"name":"data","type":"bytes","internalType":"bytes"}],"outputs":[],"stateMutability":"payable"},{"type":"event","name":"ActivateRewardAllocation","inputs":[{"name":"valPubkey","type":"bytes","indexed":true,"internalType":"bytes"},{"name":"startBlock","type":"uint64","indexed":false,"internalType":"uint64"},{"name":"weights","type":"tuple[]","indexed":false,"internalType":"struct IBeraChef.Weight[]","components":[{"name":"receiver","type":"address","internalType":"address"},{"name":"percentageNumerator","type":"uint96","internalType":"uint96"}]}],"anonymous":false},{"type":"event","name":"CommissionChangeDelaySet","inputs":[{"name":"commissionChangeDelay","type":"uint64","indexed":false,"internalType":"uint64"}],"anonymous":false},{"type":"event","name":"Initialized","inputs":[{"name":"version","type":"uint64","indexed":false,"internalType":"uint64"}],"anonymous":false},{"type":"event","name":"MaxNumWeightsPerRewardAllocationSet","inputs":[{"name":"maxNumWeightsPerRewardAllocation","type":"uint8","indexed":false,"internalType":"uint8"}],"anonymous":false},{"type":"event","name":"MaxWeightPerVaultSet","inputs":[{"name":"maxWeightPerVault","type":"uint96","indexed":false,"internalType":"uint96"}],"anonymous":false},{"type":"event","name":"OwnershipTransferred","inputs":[{"name":"previousOwner","type":"address","indexed":true,"internalType":"address"},{"name":"newOwner","type":"address","indexed":true,"internalType":"address"}],"anonymous":false},{"type":"event","name":"QueueRewardAllocation","inputs":[{"name":"valPubkey","type":"bytes","indexed":true,"internalType":"bytes"},{"name":"startBlock","type":"uint64","indexed":false,"internalType":"uint64"},{"name":"weights","type":"tuple[]","indexed":false,"internalType":"struct IBeraChef.Weight[]","components":[{"name":"receiver","type":"address","internalType":"address"},{"name":"percentageNumerator","type":"uint96","internalType":"uint96"}]}],"anonymous":false},{"type":"event","name":"QueuedValCommission","inputs":[{"name":"valPubkey","type":"bytes","indexed":true,"internalType":"bytes"},{"name":"queuedCommissionRate","type":"uint96","indexed":false,"internalType":"uint96"}],"anonymous":false},{"type":"event","name":"RewardAllocationBlockDelaySet","inputs":[{"name":"rewardAllocationBlockDelay","type":"uint64","indexed":false,"internalType":"uint64"}],"anonymous":false},{"type":"event","name":"SetDefaultRewardAllocation","inputs":[{"name":"rewardAllocation","type":"tuple","indexed":false,"internalType":"struct IBeraChef.RewardAllocation","components":[{"name":"startBlock","type":"uint64","internalType":"uint64"},{"name":"weights","type":"tuple[]","internalType":"struct IBeraChef.Weight[]","components":[{"name":"receiver","type":"address","internalType":"address"},{"name":"percentageNumerator","type":"uint96","internalType":"uint96"}]}]}],"anonymous":false},{"type":"event","name":"Upgraded","inputs":[{"name":"implementation","type":"address","indexed":true,"internalType":"address"}],"anonymous":false},{"type":"event","name":"ValCommissionSet","inputs":[{"name":"valPubkey","type":"bytes","indexed":true,"internalType":"bytes"},{"name":"oldCommissionRate","type":"uint96","indexed":false,"internalType":"uint96"},{"name":"newCommissionRate","type":"uint96","indexed":false,"internalType":"uint96"}],"anonymous":false},{"type":"event","name":"VaultWhitelistedStatusUpdated","inputs":[{"name":"receiver","type":"address","indexed":true,"internalType":"address"},{"name":"isWhitelisted","type":"bool","indexed":true,"internalType":"bool"},{"name":"metadata","type":"string","indexed":false,"internalType":"string"}],"anonymous":false},{"type":"event","name":"WhitelistedVaultMetadataUpdated","inputs":[{"name":"receiver","type":"address","indexed":true,"internalType":"address"},{"name":"metadata","type":"string","indexed":false,"internalType":"string"}],"anonymous":false},{"type":"error","name":"AddressEmptyCode","inputs":[{"name":"target","type":"address","internalType":"address"}]},{"type":"error","name":"AmountGreaterThanReward","inputs":[]},{"type":"error","name":"AmountLessThanMinIncentiveRate","inputs":[]},{"type":"error","name":"CannotRecoverIncentiveToken","inputs":[]},{"type":"error","name":"CannotRecoverRewardToken","inputs":[]},{"type":"error","name":"CannotRecoverStakingToken","inputs":[]},{"type":"error","name":"CommissionChangeAlreadyQueued","inputs":[]},{"type":"error","name":"CommissionNotQueuedOrDelayNotPassed","inputs":[]},{"type":"error","name":"DepositNotMultipleOfGwei","inputs":[]},{"type":"error","name":"DepositValueTooHigh","inputs":[]},{"type":"error","name":"DonateAmountLessThanPayoutAmount","inputs":[]},{"type":"error","name":"DuplicateReceiver","inputs":[{"name":"receiver","type":"address","internalType":"address"}]},{"type":"error","name":"DurationChangeNotAllowed","inputs":[]},{"type":"error","name":"ERC1967InvalidImplementation","inputs":[{"name":"implementation","type":"address","internalType":"address"}]},{"type":"error","name":"ERC1967NonPayable","inputs":[]},{"type":"error","name":"FailedCall","inputs":[]},{"type":"error","name":"IncentiveRateTooHigh","inputs":[]},{"type":"error","name":"IndexOutOfRange","inputs":[]},{"type":"error","name":"InsolventReward","inputs":[]},{"type":"error","name":"InsufficientDelegateStake","inputs":[]},{"type":"error","name":"InsufficientDeposit","inputs":[]},{"type":"error","name":"InsufficientIncentiveTokens","inputs":[]},{"type":"error","name":"InsufficientNativeValue","inputs":[]},{"type":"error","name":"InsufficientSelfStake","inputs":[]},{"type":"error","name":"InsufficientStake","inputs":[]},{"type":"error","name":"InvalidActivateBoostDelay","inputs":[]},{"type":"error","name":"InvalidArray","inputs":[]},{"type":"error","name":"InvalidBaseRate","inputs":[]},{"type":"error","name":"InvalidBoostMultiplier","inputs":[]},{"type":"error","name":"InvalidCommissionChangeDelay","inputs":[]},{"type":"error","name":"InvalidCommissionValue","inputs":[]},{"type":"error","name":"InvalidCredentialsLength","inputs":[]},{"type":"error","name":"InvalidDistribution","inputs":[]},{"type":"error","name":"InvalidDropBoostDelay","inputs":[]},{"type":"error","name":"InvalidIncentiveFeeRate","inputs":[]},{"type":"error","name":"InvalidIncentiveRate","inputs":[]},{"type":"error","name":"InvalidInitialization","inputs":[]},{"type":"error","name":"InvalidMaxIncentiveTokensCount","inputs":[]},{"type":"error","name":"InvalidMaxWeightPerVault","inputs":[]},{"type":"error","name":"InvalidMerkleRoot","inputs":[]},{"type":"error","name":"InvalidMinBoostedRewardRate","inputs":[]},{"type":"error","name":"InvalidProof","inputs":[]},{"type":"error","name":"InvalidPubKeyLength","inputs":[]},{"type":"error","name":"InvalidRewardAllocationWeights","inputs":[]},{"type":"error","name":"InvalidRewardClaimDelay","inputs":[]},{"type":"error","name":"InvalidRewardConvexity","inputs":[]},{"type":"error","name":"InvalidRewardDuration","inputs":[]},{"type":"error","name":"InvalidRewardRate","inputs":[]},{"type":"error","name":"InvalidSignatureLength","inputs":[]},{"type":"error","name":"InvalidStartBlock","inputs":[]},{"type":"error","name":"InvalidToken","inputs":[]},{"type":"error","name":"InvalidWeight","inputs":[]},{"type":"error","name":"InvalidateDefaultRewardAllocation","inputs":[]},{"type":"error","name":"InvariantCheckFailed","inputs":[]},{"type":"error","name":"MaxNumWeightsPerRewardAllocationIsZero","inputs":[]},{"type":"error","name":"MinIncentiveRateIsZero","inputs":[]},{"type":"error","name":"NotAContract","inputs":[]},{"type":"error","name":"NotApprovedSender","inputs":[]},{"type":"error","name":"NotBGT","inputs":[]},{"type":"error","name":"NotBlockRewardController","inputs":[]},{"type":"error","name":"NotDelegate","inputs":[]},{"type":"error","name":"NotDistributor","inputs":[]},{"type":"error","name":"NotEnoughBalance","inputs":[]},{"type":"error","name":"NotEnoughBoostedBalance","inputs":[]},{"type":"error","name":"NotEnoughTime","inputs":[]},{"type":"error","name":"NotFactoryVault","inputs":[]},{"type":"error","name":"NotFeeCollector","inputs":[]},{"type":"error","name":"NotIncentiveManager","inputs":[]},{"type":"error","name":"NotInitializing","inputs":[]},{"type":"error","name":"NotNewOperator","inputs":[]},{"type":"error","name":"NotOperator","inputs":[]},{"type":"error","name":"NotRewardDurationManager","inputs":[]},{"type":"error","name":"NotRewardVaultManager","inputs":[]},{"type":"error","name":"NotWhitelistedVault","inputs":[]},{"type":"error","name":"OperatorAlreadySet","inputs":[]},{"type":"error","name":"OwnableInvalidOwner","inputs":[{"name":"owner","type":"address","internalType":"address"}]},{"type":"error","name":"OwnableUnauthorizedAccount","inputs":[{"name":"account","type":"address","internalType":"address"}]},{"type":"error","name":"PayoutAmountIsZero","inputs":[]},{"type":"error","name":"RewardAllocationAlreadyQueued","inputs":[]},{"type":"error","name":"RewardAllocationBlockDelayTooLarge","inputs":[]},{"type":"error","name":"RewardCycleNotEnded","inputs":[]},{"type":"error","name":"RewardDurationCoolDownPeriodNotPassed","inputs":[]},{"type":"error","name":"RewardInactive","inputs":[]},{"type":"error","name":"RewardsDurationIsZero","inputs":[]},{"type":"error","name":"StakeAmountIsZero","inputs":[]},{"type":"error","name":"TimestampAlreadyProcessed","inputs":[]},{"type":"error","name":"TokenAlreadyWhitelistedOrLimitReached","inputs":[]},{"type":"error","name":"TokenNotWhitelisted","inputs":[]},{"type":"error","name":"TooManyWeights","inputs":[]},{"type":"error","name":"TotalSupplyOverflow","inputs":[]},{"type":"error","name":"UUPSUnauthorizedCallContext","inputs":[]},{"type":"error","name":"UUPSUnsupportedProxiableUUID","inputs":[{"name":"slot","type":"bytes32","internalType":"bytes32"}]},{"type":"error","name":"UnauthorizedETHTransfer","inputs":[]},{"type":"error","name":"WithdrawAmountIsZero","inputs":[]},{"type":"error","name":"WithdrawalAlreadyRequested","inputs":[]},{"type":"error","name":"WithdrawalNotReady","inputs":[]},{"type":"error","name":"WithdrawalNotRequested","inputs":[]},{"type":"error","name":"ZeroAddress","inputs":[]},{"type":"error","name":"ZeroOperatorOnFirstDeposit","inputs":[]},{"type":"error","name":"ZeroPercentageWeight","inputs":[]}],"bytecode":{"object":"0x60a060405230608052348015610013575f80fd5b5061001c610021565b6100d3565b7ff0c57e16840df040f15088dc2f81fe391c3923bec73e23a9662efc9c229c6a00805468010000000000000000900460ff16156100715760405163f92ee8a960e01b815260040160405180910390fd5b80546001600160401b03908116146100d05780546001600160401b0319166001600160401b0390811782556040519081527fc7f505b2f371ae2175ee4913f4499e1f2633a7b5936321eed1cdaeb6115181d29060200160405180910390a15b50565b6080516138f36100f95f395f81816123ca015281816123f3015261261401526138f35ff3fe60806040526004361061025c575f3560e01c8063715018a61161014b578063ad3cb1cc116100c6578063da6f75631161007c578063eafe0f4c11610062578063eafe0f4c146107c0578063f2fde38b146107ec578063fb9f6fde1461080b575f80fd5b8063da6f756314610782578063e5eb90aa146107a1575f80fd5b8063c35569cd116100ac578063c35569cd146106ec578063c45a015514610737578063c89f266514610763575f80fd5b8063ad3cb1cc1461066c578063bfe10928146106c1575f80fd5b80638f7e0f0b1161011b578063a094a03111610101578063a094a031146105da578063a2ce2773146105f0578063a83f08171461061e575f80fd5b80638f7e0f0b1461059c5780639ca2626c146105bb575f80fd5b8063715018a6146104d0578063722f8e0a146104e45780637239e8ca146105135780638da5cb5b14610532575f80fd5b80634ecbf5c0116101db57806361b8b560116101ab57806366204c781161019157806366204c781461047357806369ed1708146104925780636ed0bf9a146104b1575f80fd5b806361b8b56014610434578063620a12b714610453575f80fd5b80634ecbf5c0146103b65780634f1ef286146103d557806352d1902d146103e857806353a35d1d146103fc575f80fd5b8063230288ce1161023057806337e4c5bf1161021657806337e4c5bf1461033b5780633909cbd51461035a5780634ce3452514610387575f80fd5b8063230288ce146102fd57806325fb3c421461031c575f80fd5b80628c26761461026057806312b398191461028157806317dbf270146102c7578063207239c0146102e8575b5f80fd5b34801561026b575f80fd5b5061027f61027a366004612db9565b61082a565b005b34801561028c575f80fd5b50600b546102a5906bffffffffffffffffffffffff1681565b6040516bffffffffffffffffffffffff90911681526020015b60405180910390f35b3480156102d2575f80fd5b506102db610ac6565b6040516102be9190612e22565b3480156102f3575f80fd5b506102a56107d081565b348015610308575f80fd5b506102db610317366004612efc565b610b97565b348015610327575f80fd5b5061027f610336366004612f54565b610c87565b348015610346575f80fd5b5061027f610355366004612efc565b610e2f565b348015610365575f80fd5b50610379610374366004612f6f565b611034565b6040519081526020016102be565b348015610392575f80fd5b5061039d621410b881565b60405167ffffffffffffffff90911681526020016102be565b3480156103c1575f80fd5b506102db6103d0366004612efc565b611074565b61027f6103e3366004613079565b61109a565b3480156103f3575f80fd5b506103796110b9565b348015610407575f80fd5b5060025461039d9074010000000000000000000000000000000000000000900467ffffffffffffffff1681565b34801561043f575f80fd5b506102a561044e366004612efc565b6110e7565b34801561045e575f80fd5b5060085461039d9067ffffffffffffffff1681565b34801561047e575f80fd5b5061027f61048d3660046130d9565b6110f2565b34801561049d575f80fd5b5061027f6104ac366004613110565b6111e5565b3480156104bc575f80fd5b5061027f6104cb366004612efc565b611294565b3480156104db575f80fd5b5061027f61143b565b3480156104ef575f80fd5b506105036104fe366004612f6f565b61144e565b60405190151581526020016102be565b34801561051e575f80fd5b5061027f61052d366004613168565b6114a0565b34801561053d575f80fd5b507f9016d09d72d40fdae2fd8ceac6b6234c7706214fd39c1cd1e609a0528c1993005473ffffffffffffffffffffffffffffffffffffffff165b60405173ffffffffffffffffffffffffffffffffffffffff90911681526020016102be565b3480156105a7575f80fd5b5061027f6105b6366004613183565b61155f565b3480156105c6575f80fd5b5061027f6105d5366004613168565b6117b8565b3480156105e5575f80fd5b506007541515610503565b3480156105fb575f80fd5b5061050361060a3660046131d6565b60056020525f908152604090205460ff1681565b348015610629575f80fd5b5061063d610638366004612efc565b61187f565b60408051825163ffffffff1681526020928301516bffffffffffffffffffffffff1692810192909252016102be565b348015610677575f80fd5b506106b46040518060400160405280600581526020017f352e302e3000000000000000000000000000000000000000000000000000000081525081565b6040516102be91906131f1565b3480156106cc575f80fd5b505f546105779073ffffffffffffffffffffffffffffffffffffffff1681565b3480156106f7575f80fd5b50600254610725907c0100000000000000000000000000000000000000000000000000000000900460ff1681565b60405160ff90911681526020016102be565b348015610742575f80fd5b506001546105779073ffffffffffffffffffffffffffffffffffffffff1681565b34801561076e575f80fd5b5061027f61077d366004613244565b6118ea565b34801561078d575f80fd5b506102db61079c366004612efc565b611963565b3480156107ac575f80fd5b5061027f6107bb36600461327b565b611b3b565b3480156107cb575f80fd5b506002546105779073ffffffffffffffffffffffffffffffffffffffff1681565b3480156107f7575f80fd5b5061027f6108063660046131d6565b611e21565b348015610816575f80fd5b5061027f61082536600461332b565b611e89565b7ff0c57e16840df040f15088dc2f81fe391c3923bec73e23a9662efc9c229c6a00805468010000000000000000810460ff16159067ffffffffffffffff165f811580156108745750825b90505f8267ffffffffffffffff1660011480156108905750303b155b90508115801561089e575080155b156108d5576040517ff92ee8a900000000000000000000000000000000000000000000000000000000815260040160405180910390fd5b84547fffffffffffffffffffffffffffffffffffffffffffffffff000000000000000016600117855583156109365784547fffffffffffffffffffffffffffffffffffffffffffffff00ffffffffffffffff16680100000000000000001785555b61093f8861215e565b61094761216f565b5f805473ffffffffffffffffffffffffffffffffffffffff808d167fffffffffffffffffffffffff0000000000000000000000000000000000000000928316178355600180548d831690841617905560028054918b169190921617905560ff871690036109d7576109d77fa4cc22ed00000000000000000000000000000000000000000000000000000000612177565b60405160ff871681527f1f427f3160f84ab8033ba8e3550b2a3f178241305e86660a221c0dc52f3bc9ae9060200160405180910390a1600280547fffffff00ffffffffffffffffffffffffffffffffffffffffffffffffffffffff167c010000000000000000000000000000000000000000000000000000000060ff8916021790558315610aba5784547fffffffffffffffffffffffffffffffffffffffffffffff00ffffffffffffffff168555604051600181527fc7f505b2f371ae2175ee4913f4499e1f2633a7b5936321eed1cdaeb6115181d29060200160405180910390a15b50505050505050505050565b604080518082019091525f8152606060208201526040805180820182526006805467ffffffffffffffff1682526007805484516020828102820181019096528181529394929383860193909291905f9084015b82821015610b8a575f848152602090819020604080518082019091529084015473ffffffffffffffffffffffffffffffffffffffff811682527401000000000000000000000000000000000000000090046bffffffffffffffffffffffff1681830152825260019092019101610b19565b5050505081525050905090565b604080518082019091525f81526060602082015260038383604051610bbd92919061338d565b9081526040805191829003602090810183208383018352805467ffffffffffffffff1684526001810180548451818502810185019095528085529193858401939092905f9084015b82821015610c76575f848152602090819020604080518082019091529084015473ffffffffffffffffffffffffffffffffffffffff811682527401000000000000000000000000000000000000000090046bffffffffffffffffffffffff1681830152825260019092019101610c05565b505050508152505090505b92915050565b610c8f61217f565b6bffffffffffffffffffffffff81161580610cb957506127106bffffffffffffffffffffffff8216115b15610ce757610ce77fcb1ee12300000000000000000000000000000000000000000000000000000000612177565b600b80547fffffffffffffffffffffffffffffffffffffffff000000000000000000000000166bffffffffffffffffffffffff83161790556007805460408051602080840282018101909252828152610dbd93909290915f9084015b82821015610db4575f848152602090819020604080518082019091529084015473ffffffffffffffffffffffffffffffffffffffff811682527401000000000000000000000000000000000000000090046bffffffffffffffffffffffff1681830152825260019092019101610d43565b5050505061220d565b610dea57610dea7f3e38573f00000000000000000000000000000000000000000000000000000000612177565b6040516bffffffffffffffffffffffff821681527f523ff6a2313471a5db395404a4772a665c76c13b1bb1307270db69eb843b803e906020015b60405180910390a150565b5f60098383604051610e4292919061338d565b908152604051908190036020019020805460085491925063ffffffff8116916bffffffffffffffffffffffff64010000000090920491909116905f90610e929067ffffffffffffffff16846133c9565b905063ffffffff83161580610eac57508063ffffffff1643105b15610eda57610eda7fe926944600000000000000000000000000000000000000000000000000000000612177565b5f610ee5878761230a565b905060405180604001604052808363ffffffff168152602001846bffffffffffffffffffffffff16815250600a8888604051610f2292919061338d565b90815260405190819003602090810182208351815494909201516bffffffffffffffffffffffff16640100000000027fffffffffffffffffffffffffffffffff0000000000000000000000000000000090941663ffffffff9092169190911792909217909155610f95908890889061338d565b604080519182900382206bffffffffffffffffffffffff808516845286166020840152917f154e6b9420982ca77402c0dd255e23fef1199d854e122d1231ec746266d0cf48910160405180910390a260098787604051610ff692919061338d565b90815260405190819003602001902080547fffffffffffffffffffffffffffffffff0000000000000000000000000000000016905550505050505050565b5f80611040858561230a565b90505f61271061105e6bffffffffffffffffffffffff8416866133e9565b6110689190613400565b925050505b9392505050565b604080518082019091525f81526060602082015260048383604051610bbd92919061338d565b6110a26123b2565b6110ab826124b6565b6110b582826124be565b5050565b5f6110c26125fc565b507f360894a13ba1a3210667c828492db98dca3e2076cc3735a920a3ca505d382bbc90565b5f61106d838361230a565b6110fa61217f565b8060ff165f0361112d5761112d7fa4cc22ed00000000000000000000000000000000000000000000000000000000612177565b60075460ff82161015611163576111637f3e38573f00000000000000000000000000000000000000000000000000000000612177565b600280547fffffff00ffffffffffffffffffffffffffffffffffffffffffffffffffffffff167c010000000000000000000000000000000000000000000000000000000060ff8416908102919091179091556040519081527f1f427f3160f84ab8033ba8e3550b2a3f178241305e86660a221c0dc52f3bc9ae90602001610e24565b6111ed61217f565b73ffffffffffffffffffffffffffffffffffffffff82165f9081526005602052604090205460ff16611242576112427f3640785000000000000000000000000000000000000000000000000000000000612177565b8173ffffffffffffffffffffffffffffffffffffffff167fb10c3a0623fdc435deba8729692b1a7c6c1886b7466c8cffa3ccdb42042ffbc58260405161128891906131f1565b60405180910390a25050565b5f5473ffffffffffffffffffffffffffffffffffffffff1633146112db576112db7f385296d500000000000000000000000000000000000000000000000000000000612177565b6112e682824361144e565b156110b5575f600483836040516112fe92919061338d565b908152604051908190036020018120805490925067ffffffffffffffff1690829060039061132f908790879061338d565b908152604051908190036020019020815481547fffffffffffffffffffffffffffffffffffffffffffffffff00000000000000001667ffffffffffffffff909116178155600180830180546113879284019190612c9f565b505060405161139a91508590859061338d565b60405180910390207f09fed3850dff4fef07a5284847da937f94021882ecab1c143fcacd69e5451bd882846001016040516113d6929190613438565b60405180910390a2600484846040516113f092919061338d565b90815260405190819003602001902080547fffffffffffffffffffffffffffffffffffffffffffffffff00000000000000001681555f6114336001830182612d58565b505050505050565b61144361217f565b61144c5f61266b565b565b5f806004858560405161146292919061338d565b9081526040519081900360200190205467ffffffffffffffff16905080158015906114975750828167ffffffffffffffff1611155b95945050505050565b6114a861217f565b67ffffffffffffffff811615806114ca5750613ffe67ffffffffffffffff8216115b156114f8576114f87fc1abde5300000000000000000000000000000000000000000000000000000000612177565b600880547fffffffffffffffffffffffffffffffffffffffffffffffff00000000000000001667ffffffffffffffff83169081179091556040519081527f64362e066c3e2aa8c9ade9c3c475eca8e99702a002a5adbe13a4404fc05dfee390602001610e24565b6002546040517f9eaffa960000000000000000000000000000000000000000000000000000000081528491849173ffffffffffffffffffffffffffffffffffffffff90911690639eaffa96906115bb90859085906004016134b1565b602060405180830381865afa1580156115d6573d5f803e3d5ffd5b505050506040513d601f19601f820116820180604052508101906115fa91906134fd565b73ffffffffffffffffffffffffffffffffffffffff163373ffffffffffffffffffffffffffffffffffffffff1614611655576116557f7c214f0400000000000000000000000000000000000000000000000000000000612177565b6107d06bffffffffffffffffffffffff84161115611696576116967fab396d1100000000000000000000000000000000000000000000000000000000612177565b5f600986866040516116a992919061338d565b908152604051908190036020019020805490915063ffffffff16156116f1576116f17f0c32c4fa00000000000000000000000000000000000000000000000000000000612177565b80547fffffffffffffffffffffffffffffffff00000000000000000000000000000000166401000000006bffffffffffffffffffffffff8616027fffffffffffffffffffffffffffffffffffffffffffffffffffffffff0000000016174363ffffffff16178155604051611768908790879061338d565b6040519081900381206bffffffffffffffffffffffff86168252907f6c1fd7992c5cda804ff20cff8ec6eb7622a74aa084ff0f7bfd15b9f30a4a5a739060200160405180910390a2505050505050565b6117c061217f565b621410b867ffffffffffffffff821611156117fe576117fe7f462a2bb200000000000000000000000000000000000000000000000000000000612177565b600280547fffffffff0000000000000000ffffffffffffffffffffffffffffffffffffffff167401000000000000000000000000000000000000000067ffffffffffffffff8416908102919091179091556040519081527fd30a76f5419042e46e49eaf91b6a0f0feaaa673b6db586a63d3e8e79d4bf208190602001610e24565b604080518082019091525f8082526020820152600983836040516118a492919061338d565b908152604080519182900360209081018320838301909252905463ffffffff811683526bffffffffffffffffffffffff6401000000009091041690820152905092915050565b6118f261217f565b604080515f808252602082019092529050611919816119146020850185613518565b612700565b7f63a1be039047941d4150a7feb1920b5fadcbf022e1a21334fba542a52eabdaf78260405161194891906135f4565b60405180910390a181600661195d828261370f565b50505050565b604080518082019091525f8152606060208201525f6003848460405161198a92919061338d565b9081526040805191829003602090810183208383018352805467ffffffffffffffff1684526001810180548451818502810185019095528085529193858401939092905f9084015b82821015611a43575f848152602090819020604080518082019091529084015473ffffffffffffffffffffffffffffffffffffffff811682527401000000000000000000000000000000000000000090046bffffffffffffffffffffffff16818301528252600190920191016119d2565b50505091525050805190915067ffffffffffffffff1615801590611a6f5750611a6f816020015161220d565b15611a7b579050610c81565b6040805180820182526006805467ffffffffffffffff1682526007805484516020828102820181019096528181529394929383860193909291905f9084015b82821015611b2b575f848152602090819020604080518082019091529084015473ffffffffffffffffffffffffffffffffffffffff811682527401000000000000000000000000000000000000000090046bffffffffffffffffffffffff1681830152825260019092019101611aba565b5050509152509095945050505050565b6002546040517f9eaffa960000000000000000000000000000000000000000000000000000000081528691869173ffffffffffffffffffffffffffffffffffffffff90911690639eaffa9690611b9790859085906004016134b1565b602060405180830381865afa158015611bb2573d5f803e3d5ffd5b505050506040513d601f19601f82011682018060405250810190611bd691906134fd565b73ffffffffffffffffffffffffffffffffffffffff163373ffffffffffffffffffffffffffffffffffffffff1614611c3157611c317f7c214f0400000000000000000000000000000000000000000000000000000000612177565b600254611c609074010000000000000000000000000000000000000000900467ffffffffffffffff1643613832565b8567ffffffffffffffff1611611c9957611c997fec2caa0d00000000000000000000000000000000000000000000000000000000612177565b5f60048888604051611cac92919061338d565b908152604051908190036020019020805490915067ffffffffffffffff1615611cf857611cf87f3be31f8c00000000000000000000000000000000000000000000000000000000612177565b611d3a88888080601f0160208091040260200160405190810160405280939291908181526020018383808284375f920191909152508992508891506127009050565b80547fffffffffffffffffffffffffffffffffffffffffffffffff00000000000000001667ffffffffffffffff8716178155600181015f5b85811015611dc25781878783818110611d8d57611d8d613845565b83546001810185555f948552602090942060409091029290920192919091019050611db8828261368a565b5050600101611d72565b508888604051611dd392919061338d565b60405180910390207f22fe555512d9a04d20e3735ac5fe7a73227c2c6398f1453a5d60ce7aaf5de2ae888888604051611e0e93929190613872565b60405180910390a2505050505050505050565b611e2961217f565b73ffffffffffffffffffffffffffffffffffffffff8116611e7d576040517f1e4fbdf70000000000000000000000000000000000000000000000000000000081525f60048201526024015b60405180910390fd5b611e868161266b565b50565b611e9161217f565b5f8373ffffffffffffffffffffffffffffffffffffffff166351ed6a306040518163ffffffff1660e01b8152600401602060405180830381865afa158015611edb573d5f803e3d5ffd5b505050506040513d601f19601f82011682018060405250810190611eff91906134fd565b6001546040517f0eb9af3800000000000000000000000000000000000000000000000000000000815273ffffffffffffffffffffffffffffffffffffffff80841660048301529293505f9290911690630eb9af3890602401602060405180830381865afa158015611f72573d5f803e3d5ffd5b505050506040513d601f19601f82011682018060405250810190611f9691906134fd565b90508073ffffffffffffffffffffffffffffffffffffffff168573ffffffffffffffffffffffffffffffffffffffff1614611ff457611ff47f08519afa00000000000000000000000000000000000000000000000000000000612177565b73ffffffffffffffffffffffffffffffffffffffff85165f90815260056020526040902080547fffffffffffffffffffffffffffffffffffffffffffffffffffffffffffffff0016851515179055836121065760078054604080516020808402820181019092528281526120d993909290915f9084018215610db4575f848152602090819020604080518082019091529084015473ffffffffffffffffffffffffffffffffffffffff811682527401000000000000000000000000000000000000000090046bffffffffffffffffffffffff1681830152825260019092019101610d43565b612106576121067f3e38573f00000000000000000000000000000000000000000000000000000000612177565b8315158573ffffffffffffffffffffffffffffffffffffffff167fad865159180d43e1aedae6624a0e9e20d86e07afb82a96f8f9a8b2f3294e16c08560405161214f91906131f1565b60405180910390a35050505050565b6121666128da565b611e8681612941565b61144c6128da565b805f5260045ffd5b336121be7f9016d09d72d40fdae2fd8ceac6b6234c7706214fd39c1cd1e609a0528c1993005473ffffffffffffffffffffffffffffffffffffffff1690565b73ffffffffffffffffffffffffffffffffffffffff161461144c576040517f118cdaa7000000000000000000000000000000000000000000000000000000008152336004820152602401611e74565b80516002545f91907c0100000000000000000000000000000000000000000000000000000000900460ff1681111561224757505f92915050565b5f5b8181101561230057600b5484516bffffffffffffffffffffffff9091169085908390811061227957612279613845565b6020026020010151602001516bffffffffffffffffffffffff1611156122a257505f9392505050565b60055f8583815181106122b7576122b7613845565b6020908102919091018101515173ffffffffffffffffffffffffffffffffffffffff1682528101919091526040015f205460ff166122f857505f9392505050565b600101612249565b5060019392505050565b5f80600a848460405161231e92919061338d565b9081526040805160209281900383018120818301909252905463ffffffff81168083526401000000009091046bffffffffffffffffffffffff169282019290925291505f03612372576101f4915050610c81565b6107d06bffffffffffffffffffffffff1681602001516bffffffffffffffffffffffff1611156123a7576107d0915050610c81565b602001519392505050565b3073ffffffffffffffffffffffffffffffffffffffff7f000000000000000000000000000000000000000000000000000000000000000016148061247f57507f000000000000000000000000000000000000000000000000000000000000000073ffffffffffffffffffffffffffffffffffffffff166124667f360894a13ba1a3210667c828492db98dca3e2076cc3735a920a3ca505d382bbc5473ffffffffffffffffffffffffffffffffffffffff1690565b73ffffffffffffffffffffffffffffffffffffffff1614155b1561144c576040517fe07c8dba00000000000000000000000000000000000000000000000000000000815260040160405180910390fd5b611e8661217f565b8173ffffffffffffffffffffffffffffffffffffffff166352d1902d6040518163ffffffff1660e01b8152600401602060405180830381865afa925050508015612543575060408051601f3d9081017fffffffffffffffffffffffffffffffffffffffffffffffffffffffffffffffe016820190925261254091810190613895565b60015b612591576040517f4c9c8ce300000000000000000000000000000000000000000000000000000000815273ffffffffffffffffffffffffffffffffffffffff83166004820152602401611e74565b7f360894a13ba1a3210667c828492db98dca3e2076cc3735a920a3ca505d382bbc81146125ed576040517faa1d49a400000000000000000000000000000000000000000000000000000000815260048101829052602401611e74565b6125f78383612949565b505050565b3073ffffffffffffffffffffffffffffffffffffffff7f0000000000000000000000000000000000000000000000000000000000000000161461144c576040517fe07c8dba00000000000000000000000000000000000000000000000000000000815260040160405180910390fd5b7f9016d09d72d40fdae2fd8ceac6b6234c7706214fd39c1cd1e609a0528c19930080547fffffffffffffffffffffffff0000000000000000000000000000000000000000811673ffffffffffffffffffffffffffffffffffffffff848116918217845560405192169182907f8be0079c531659141344cd1fd0a4f28419497f9722a3daafe3b4186f6b6457e0905f90a3505050565b6002547c0100000000000000000000000000000000000000000000000000000000900460ff16811115612756576127567ff6fae72100000000000000000000000000000000000000000000000000000000612177565b6127618383836129ab565b5f805b82811015612899573684848381811061277f5761277f613845565b905060400201905080602001602081019061279a9190612f54565b6bffffffffffffffffffffffff1615806127e05750600b546bffffffffffffffffffffffff166127d06040830160208401612f54565b6bffffffffffffffffffffffff16115b1561280e5761280e7f585b926300000000000000000000000000000000000000000000000000000000612177565b60055f61281e60208401846131d6565b73ffffffffffffffffffffffffffffffffffffffff16815260208101919091526040015f205460ff16612874576128747f3640785000000000000000000000000000000000000000000000000000000000612177565b6128846040820160208301612f54565b61288e90846138ac565b925050600101612764565b506bffffffffffffffffffffffff81166127101461195d5761195d7f13134d2400000000000000000000000000000000000000000000000000000000612177565b7ff0c57e16840df040f15088dc2f81fe391c3923bec73e23a9662efc9c229c6a005468010000000000000000900460ff1661144c576040517fd7e6bcf800000000000000000000000000000000000000000000000000000000815260040160405180910390fd5b611e296128da565b61295282612a46565b60405173ffffffffffffffffffffffffffffffffffffffff8316907fbc7cd75a20ee27fd9adebab32041f755214dbc6bffa90cc0225b39da2e5c2d3b905f90a28051156129a3576125f78282612b14565b6110b5612b8a565b825160208401205f5b82811015612a3f575f8484838181106129cf576129cf613845565b6129e592602060409092020190810191506131d6565b604080518281526020810186905220909150805c9081612a04576001815d5b508015612a3557612a357fdd9df7590000000000000000000000000000000000000000000000000000000083612bc2565b50506001016129b4565b5050505050565b8073ffffffffffffffffffffffffffffffffffffffff163b5f03612aae576040517f4c9c8ce300000000000000000000000000000000000000000000000000000000815273ffffffffffffffffffffffffffffffffffffffff82166004820152602401611e74565b7f360894a13ba1a3210667c828492db98dca3e2076cc3735a920a3ca505d382bbc80547fffffffffffffffffffffffff00000000000000000000000000000000000000001673ffffffffffffffffffffffffffffffffffffffff92909216919091179055565b60605f808473ffffffffffffffffffffffffffffffffffffffff1684604051612b3d91906138d0565b5f60405180830381855af49150503d805f8114612b75576040519150601f19603f3d011682016040523d82523d5f602084013e612b7a565b606091505b5091509150611497858383612bce565b341561144c576040517fb398979f00000000000000000000000000000000000000000000000000000000815260040160405180910390fd5b815f528060045260245ffd5b606082612be357612bde82612c5d565b61106d565b8151158015612c07575073ffffffffffffffffffffffffffffffffffffffff84163b155b15612c56576040517f9996b31500000000000000000000000000000000000000000000000000000000815273ffffffffffffffffffffffffffffffffffffffff85166004820152602401611e74565b508061106d565b805115612c6d5780518082602001fd5b6040517fd6bda27500000000000000000000000000000000000000000000000000000000815260040160405180910390fd5b828054828255905f5260205f20908101928215612d48575f5260205f209182015b82811115612d4857825482547fffffffffffffffffffffffff00000000000000000000000000000000000000001673ffffffffffffffffffffffffffffffffffffffff909116908117835583546bffffffffffffffffffffffff7401000000000000000000000000000000000000000091829004160217825560019283019290910190612cc0565b50612d54929150612d6f565b5090565b5080545f8255905f5260205f2090810190611e8691905b5b80821115612d54575f8155600101612d70565b73ffffffffffffffffffffffffffffffffffffffff81168114611e86575f80fd5b803560ff81168114612db4575f80fd5b919050565b5f805f805f60a08688031215612dcd575f80fd5b8535612dd881612d83565b94506020860135612de881612d83565b93506040860135612df881612d83565b92506060860135612e0881612d83565b9150612e1660808701612da4565b90509295509295909350565b6020808252825167ffffffffffffffff1682820152828101516040808401528051606084018190525f929190910190829060808501905b80831015612ead57835173ffffffffffffffffffffffffffffffffffffffff81511683526bffffffffffffffffffffffff602082015116602084015250604082019150602084019350600183019250612e59565b5095945050505050565b5f8083601f840112612ec7575f80fd5b50813567ffffffffffffffff811115612ede575f80fd5b602083019150836020828501011115612ef5575f80fd5b9250929050565b5f8060208385031215612f0d575f80fd5b823567ffffffffffffffff811115612f23575f80fd5b612f2f85828601612eb7565b90969095509350505050565b6bffffffffffffffffffffffff81168114611e86575f80fd5b5f60208284031215612f64575f80fd5b813561106d81612f3b565b5f805f60408486031215612f81575f80fd5b833567ffffffffffffffff811115612f97575f80fd5b612fa386828701612eb7565b909790965060209590950135949350505050565b7f4e487b71000000000000000000000000000000000000000000000000000000005f52604160045260245ffd5b5f8067ffffffffffffffff841115612ffe57612ffe612fb7565b506040517fffffffffffffffffffffffffffffffffffffffffffffffffffffffffffffffe0601f85018116603f0116810181811067ffffffffffffffff8211171561304b5761304b612fb7565b604052838152905080828401851015613062575f80fd5b838360208301375f60208583010152509392505050565b5f806040838503121561308a575f80fd5b823561309581612d83565b9150602083013567ffffffffffffffff8111156130b0575f80fd5b8301601f810185136130c0575f80fd5b6130cf85823560208401612fe4565b9150509250929050565b5f602082840312156130e9575f80fd5b61106d82612da4565b5f82601f830112613101575f80fd5b61106d83833560208501612fe4565b5f8060408385031215613121575f80fd5b823561312c81612d83565b9150602083013567ffffffffffffffff811115613147575f80fd5b6130cf858286016130f2565b67ffffffffffffffff81168114611e86575f80fd5b5f60208284031215613178575f80fd5b813561106d81613153565b5f805f60408486031215613195575f80fd5b833567ffffffffffffffff8111156131ab575f80fd5b6131b786828701612eb7565b90945092505060208401356131cb81612f3b565b809150509250925092565b5f602082840312156131e6575f80fd5b813561106d81612d83565b602081525f82518060208401528060208501604085015e5f6040828501015260407fffffffffffffffffffffffffffffffffffffffffffffffffffffffffffffffe0601f83011684010191505092915050565b5f60208284031215613254575f80fd5b813567ffffffffffffffff81111561326a575f80fd5b82016040818503121561106d575f80fd5b5f805f805f6060868803121561328f575f80fd5b853567ffffffffffffffff8111156132a5575f80fd5b6132b188828901612eb7565b90965094505060208601356132c581613153565b9250604086013567ffffffffffffffff8111156132e0575f80fd5b8601601f810188136132f0575f80fd5b803567ffffffffffffffff811115613306575f80fd5b8860208260061b840101111561331a575f80fd5b959894975092955050506020019190565b5f805f6060848603121561333d575f80fd5b833561334881612d83565b92506020840135801515811461335c575f80fd5b9150604084013567ffffffffffffffff811115613377575f80fd5b613383868287016130f2565b9150509250925092565b818382375f9101908152919050565b7f4e487b71000000000000000000000000000000000000000000000000000000005f52601160045260245ffd5b67ffffffffffffffff8181168382160190811115610c8157610c8161339c565b8082028115828204841417610c8157610c8161339c565b5f82613433577f4e487b71000000000000000000000000000000000000000000000000000000005f52601260045260245ffd5b500490565b5f6040820167ffffffffffffffff8516835260406020840152808454808352606085019150855f5260205f2092505f5b818110156134a557835473ffffffffffffffffffffffffffffffffffffffff8116845260a01c602084015260019384019360409093019201613468565b50909695505050505050565b60208152816020820152818360408301375f818301604090810191909152601f9092017fffffffffffffffffffffffffffffffffffffffffffffffffffffffffffffffe0160101919050565b5f6020828403121561350d575f80fd5b815161106d81612d83565b5f8083357fffffffffffffffffffffffffffffffffffffffffffffffffffffffffffffffe184360301811261354b575f80fd5b83018035915067ffffffffffffffff821115613565575f80fd5b6020019150600681901b3603821315612ef5575f80fd5b8183526020830192505f815f5b848110156135ea575f823561359d81612d83565b73ffffffffffffffffffffffffffffffffffffffff16875260208301356135c381612f3b565b6bffffffffffffffffffffffff166020880152506040958601959190910190600101613589565b5093949350505050565b602081525f823561360481613153565b67ffffffffffffffff811660208401525060208301357fffffffffffffffffffffffffffffffffffffffffffffffffffffffffffffffe1843603018112613649575f80fd5b830160208101903567ffffffffffffffff811115613665575f80fd5b8060061b3603821315613676575f80fd5b60408085015261149760608501828461357c565b813561369581612d83565b73ffffffffffffffffffffffffffffffffffffffff81169050807fffffffffffffffffffffffff000000000000000000000000000000000000000083541617825560208301356136e481612f3b565b60a01b7fffffffffffffffffffffffff00000000000000000000000000000000000000001617905550565b813561371a81613153565b67ffffffffffffffff81167fffffffffffffffffffffffffffffffffffffffffffffffff00000000000000008354161782555060208201357fffffffffffffffffffffffffffffffffffffffffffffffffffffffffffffffe1833603018112613781575f80fd5b8201803567ffffffffffffffff811115613799575f80fd5b6020820191508060061b36038213156137b0575f80fd5b60018301680100000000000000008211156137cd576137cd612fb7565b805482825580831015613802575f828152602090208381019082015b808210156137ff575f82556001820191506137e9565b50505b505f90815260208120905b828110156114335761381f848361368a565b604093909301926001918201910161380d565b80820180821115610c8157610c8161339c565b7f4e487b71000000000000000000000000000000000000000000000000000000005f52603260045260245ffd5b67ffffffffffffffff84168152604060208201525f61149760408301848661357c565b5f602082840312156138a5575f80fd5b5051919050565b6bffffffffffffffffffffffff8181168382160190811115610c8157610c8161339c565b5f82518060208501845e5f92019182525091905056fea164736f6c634300081a000a","linkReferences":{}},"methodIdentifiers":{"MAX_COMMISSION_RATE()":"207239c0","MAX_REWARD_ALLOCATION_BLOCK_DELAY()":"4ce34525","UPGRADE_INTERFACE_VERSION()":"ad3cb1cc","activateQueuedValCommission(bytes)":"37e4c5bf","activateReadyQueuedRewardAllocation(bytes)":"6ed0bf9a","beaconDepositContract()":"eafe0f4c","commissionChangeDelay()":"620a12b7","distributor()":"bfe10928","factory()":"c45a0155","getActiveRewardAllocation(bytes)":"da6f7563","getDefaultRewardAllocation()":"17dbf270","getQueuedRewardAllocation(bytes)":"4ecbf5c0","getSetActiveRewardAllocation(bytes)":"230288ce","getValCommissionOnIncentiveTokens(bytes)":"61b8b560","getValQueuedCommissionOnIncentiveTokens(bytes)":"a83f0817","getValidatorIncentiveTokenShare(bytes,uint256)":"3909cbd5","initialize(address,address,address,address,uint8)":"008c2676","isQueuedRewardAllocationReady(bytes,uint256)":"722f8e0a","isReady()":"a094a031","isWhitelistedVault(address)":"a2ce2773","maxNumWeightsPerRewardAllocation()":"c35569cd","maxWeightPerVault()":"12b39819","owner()":"8da5cb5b","proxiableUUID()":"52d1902d","queueNewRewardAllocation(bytes,uint64,(address,uint96)[])":"e5eb90aa","queueValCommission(bytes,uint96)":"8f7e0f0b","renounceOwnership()":"715018a6","rewardAllocationBlockDelay()":"53a35d1d","setCommissionChangeDelay(uint64)":"7239e8ca","setDefaultRewardAllocation((uint64,(address,uint96)[]))":"c89f2665","setMaxNumWeightsPerRewardAllocation(uint8)":"66204c78","setMaxWeightPerVault(uint96)":"25fb3c42","setRewardAllocationBlockDelay(uint64)":"9ca2626c","setVaultWhitelistedStatus(address,bool,string)":"fb9f6fde","transferOwnership(address)":"f2fde38b","updateWhitelistedVaultMetadata(address,string)":"69ed1708","upgradeToAndCall(address,bytes)":"4f1ef286"},"storageLayout":{"storage":[{"astId":134352,"contract":"src/pol/rewards/BeraChef.sol:BeraChef","label":"distributor","offset":0,"slot":"0","type":"t_address"},{"astId":134355,"contract":"src/pol/rewards/BeraChef.sol:BeraChef","label":"factory","offset":0,"slot":"1","type":"t_address"},{"astId":134358,"contract":"src/pol/rewards/BeraChef.sol:BeraChef","label":"beaconDepositContract","offset":0,"slot":"2","type":"t_contract(IBeaconDeposit)132381"},{"astId":134361,"contract":"src/pol/rewards/BeraChef.sol:BeraChef","label":"rewardAllocationBlockDelay","offset":20,"slot":"2","type":"t_uint64"},{"astId":134364,"contract":"src/pol/rewards/BeraChef.sol:BeraChef","label":"maxNumWeightsPerRewardAllocation","offset":28,"slot":"2","type":"t_uint8"},{"astId":134370,"contract":"src/pol/rewards/BeraChef.sol:BeraChef","label":"activeRewardAllocations","offset":0,"slot":"3","type":"t_mapping(t_bytes_memory_ptr,t_struct(RewardAllocation)132396_storage)"},{"astId":134376,"contract":"src/pol/rewards/BeraChef.sol:BeraChef","label":"queuedRewardAllocations","offset":0,"slot":"4","type":"t_mapping(t_bytes_memory_ptr,t_struct(RewardAllocation)132396_storage)"},{"astId":134381,"contract":"src/pol/rewards/BeraChef.sol:BeraChef","label":"isWhitelistedVault","offset":0,"slot":"5","type":"t_mapping(t_address,t_bool)"},{"astId":134385,"contract":"src/pol/rewards/BeraChef.sol:BeraChef","label":"defaultRewardAllocation","offset":0,"slot":"6","type":"t_struct(RewardAllocation)132396_storage"},{"astId":134388,"contract":"src/pol/rewards/BeraChef.sol:BeraChef","label":"commissionChangeDelay","offset":0,"slot":"8","type":"t_uint64"},{"astId":134394,"contract":"src/pol/rewards/BeraChef.sol:BeraChef","label":"valQueuedCommission","offset":0,"slot":"9","type":"t_mapping(t_bytes_memory_ptr,t_struct(QueuedCommissionRateChange)132408_storage)"},{"astId":134400,"contract":"src/pol/rewards/BeraChef.sol:BeraChef","label":"valCommission","offset":0,"slot":"10","type":"t_mapping(t_bytes_memory_ptr,t_struct(CommissionRate)132414_storage)"},{"astId":134403,"contract":"src/pol/rewards/BeraChef.sol:BeraChef","label":"maxWeightPerVault","offset":0,"slot":"11","type":"t_uint96"}],"types":{"t_address":{"encoding":"inplace","label":"address","numberOfBytes":"20"},"t_array(t_struct(Weight)132402_storage)dyn_storage":{"encoding":"dynamic_array","label":"struct IBeraChef.Weight[]","numberOfBytes":"32","base":"t_struct(Weight)132402_storage"},"t_bool":{"encoding":"inplace","label":"bool","numberOfBytes":"1"},"t_bytes_memory_ptr":{"encoding":"bytes","label":"bytes","numberOfBytes":"32"},"t_contract(IBeaconDeposit)132381":{"encoding":"inplace","label":"contract IBeaconDeposit","numberOfBytes":"20"},"t_mapping(t_address,t_bool)":{"encoding":"mapping","key":"t_address","label":"mapping(address => bool)","numberOfBytes":"32","value":"t_bool"},"t_mapping(t_bytes_memory_ptr,t_struct(CommissionRate)132414_storage)":{"encoding":"mapping","key":"t_bytes_memory_ptr","label":"mapping(bytes => struct IBeraChef.CommissionRate)","numberOfBytes":"32","value":"t_struct(CommissionRate)132414_storage"},"t_mapping(t_bytes_memory_ptr,t_struct(QueuedCommissionRateChange)132408_storage)":{"encoding":"mapping","key":"t_bytes_memory_ptr","label":"mapping(bytes => struct IBeraChef.QueuedCommissionRateChange)","numberOfBytes":"32","value":"t_struct(QueuedCommissionRateChange)132408_storage"},"t_mapping(t_bytes_memory_ptr,t_struct(RewardAllocation)132396_storage)":{"encoding":"mapping","key":"t_bytes_memory_ptr","label":"mapping(bytes => struct IBeraChef.RewardAllocation)","numberOfBytes":"32","value":"t_struct(RewardAllocation)132396_storage"},"t_struct(CommissionRate)132414_storage":{"encoding":"inplace","label":"struct IBeraChef.CommissionRate","numberOfBytes":"32","members":[{"astId":132411,"contract":"src/pol/rewards/BeraChef.sol:BeraChef","label":"activationBlock","offset":0,"slot":"0","type":"t_uint32"},{"astId":132413,"contract":"src/pol/rewards/BeraChef.sol:BeraChef","label":"commissionRate","offset":4,"slot":"0","type":"t_uint96"}]},"t_struct(QueuedCommissionRateChange)132408_storage":{"encoding":"inplace","label":"struct IBeraChef.QueuedCommissionRateChange","numberOfBytes":"32","members":[{"astId":132405,"contract":"src/pol/rewards/BeraChef.sol:BeraChef","label":"blockNumberLast","offset":0,"slot":"0","type":"t_uint32"},{"astId":132407,"contract":"src/pol/rewards/BeraChef.sol:BeraChef","label":"commissionRate","offset":4,"slot":"0","type":"t_uint96"}]},"t_struct(RewardAllocation)132396_storage":{"encoding":"inplace","label":"struct IBeraChef.RewardAllocation","numberOfBytes":"64","members":[{"astId":132391,"contract":"src/pol/rewards/BeraChef.sol:BeraChef","label":"startBlock","offset":0,"slot":"0","type":"t_uint64"},{"astId":132395,"contract":"src/pol/rewards/BeraChef.sol:BeraChef","label":"weights","offset":0,"slot":"1","type":"t_array(t_struct(Weight)132402_storage)dyn_storage"}]},"t_struct(Weight)132402_storage":{"encoding":"inplace","label":"struct IBeraChef.Weight","numberOfBytes":"32","members":[{"astId":132399,"contract":"src/pol/rewards/BeraChef.sol:BeraChef","label":"receiver","offset":0,"slot":"0","type":"t_address"},{"astId":132401,"contract":"src/pol/rewards/BeraChef.sol:BeraChef","label":"percentageNumerator","offset":20,"slot":"0","type":"t_uint96"}]},"t_uint32":{"encoding":"inplace","label":"uint32","numberOfBytes":"4"},"t_uint64":{"encoding":"inplace","label":"uint64","numberOfBytes":"8"},"t_uint8":{"encoding":"inplace","label":"uint8","numberOfBytes":"1"},"t_uint96":{"encoding":"inplace","label":"uint96","numberOfBytes":"12"}}},"id":287}