{"abi":[{"type":"constructor","inputs":[],"stateMutability":"nonpayable"},{"type":"function","name":"MAX_REWARD_DURATION","inputs":[],"outputs":[{"name":"","type":"uint256","internalType":"uint256"}],"stateMutability":"view"},{"type":"function","name":"MIN_REWARD_DURATION","inputs":[],"outputs":[{"name":"","type":"uint256","internalType":"uint256"}],"stateMutability":"view"},{"type":"function","name":"accountIncentives","inputs":[{"name":"token","type":"address","internalType":"address"},{"name":"amount","type":"uint256","internalType":"uint256"}],"outputs":[],"stateMutability":"nonpayable"},{"type":"function","name":"addIncentive","inputs":[{"name":"token","type":"address","internalType":"address"},{"name":"amount","type":"uint256","internalType":"uint256"},{"name":"incentiveRate","type":"uint256","internalType":"uint256"}],"outputs":[],"stateMutability":"nonpayable"},{"type":"function","name":"balanceOf","inputs":[{"name":"account","type":"address","internalType":"address"}],"outputs":[{"name":"","type":"uint256","internalType":"uint256"}],"stateMutability":"view"},{"type":"function","name":"beaconDepositContract","inputs":[],"outputs":[{"name":"","type":"address","internalType":"contract IBeaconDeposit"}],"stateMutability":"view"},{"type":"function","name":"delegateStake","inputs":[{"name":"account","type":"address","internalType":"address"},{"name":"amount","type":"uint256","internalType":"uint256"}],"outputs":[],"stateMutability":"nonpayable"},{"type":"function","name":"delegateWithdraw","inputs":[{"name":"account","type":"address","internalType":"address"},{"name":"amount","type":"uint256","internalType":"uint256"}],"outputs":[],"stateMutability":"nonpayable"},{"type":"function","name":"distributor","inputs":[],"outputs":[{"name":"","type":"address","internalType":"address"}],"stateMutability":"view"},{"type":"function","name":"earned","inputs":[{"name":"account","type":"address","internalType":"address"}],"outputs":[{"name":"","type":"uint256","internalType":"uint256"}],"stateMutability":"view"},{"type":"function","name":"exit","inputs":[{"name":"recipient","type":"address","internalType":"address"}],"outputs":[],"stateMutability":"nonpayable"},{"type":"function","name":"factory","inputs":[],"outputs":[{"name":"","type":"address","internalType":"address"}],"stateMutability":"view"},{"type":"function","name":"getDelegateStake","inputs":[{"name":"account","type":"address","internalType":"address"},{"name":"delegate","type":"address","internalType":"address"}],"outputs":[{"name":"","type":"uint256","internalType":"uint256"}],"stateMutability":"view"},{"type":"function","name":"getPartialReward","inputs":[{"name":"account","type":"address","internalType":"address"},{"name":"recipient","type":"address","internalType":"address"},{"name":"amount","type":"uint256","internalType":"uint256"}],"outputs":[],"stateMutability":"nonpayable"},{"type":"function","name":"getReward","inputs":[{"name":"account","type":"address","internalType":"address"},{"name":"recipient","type":"address","internalType":"address"}],"outputs":[{"name":"","type":"uint256","internalType":"uint256"}],"stateMutability":"nonpayable"},{"type":"function","name":"getRewardForDuration","inputs":[],"outputs":[{"name":"","type":"uint256","internalType":"uint256"}],"stateMutability":"view"},{"type":"function","name":"getTotalDelegateStaked","inputs":[{"name":"account","type":"address","internalType":"address"}],"outputs":[{"name":"","type":"uint256","internalType":"uint256"}],"stateMutability":"view"},{"type":"function","name":"getWhitelistedTokens","inputs":[],"outputs":[{"name":"","type":"address[]","internalType":"address[]"}],"stateMutability":"view"},{"type":"function","name":"getWhitelistedTokensCount","inputs":[],"outputs":[{"name":"","type":"uint256","internalType":"uint256"}],"stateMutability":"view"},{"type":"function","name":"incentives","inputs":[{"name":"token","type":"address","internalType":"address"}],"outputs":[{"name":"minIncentiveRate","type":"uint256","internalType":"uint256"},{"name":"incentiveRate","type":"uint256","internalType":"uint256"},{"name":"amountRemaining","type":"uint256","internalType":"uint256"},{"name":"manager","type":"address","internalType":"address"}],"stateMutability":"view"},{"type":"function","name":"initialize","inputs":[{"name":"_beaconDepositContract","type":"address","internalType":"address"},{"name":"_bgt","type":"address","internalType":"address"},{"name":"_distributor","type":"address","internalType":"address"},{"name":"_stakingToken","type":"address","internalType":"address"}],"outputs":[],"stateMutability":"nonpayable"},{"type":"function","name":"isFactoryOwner","inputs":[{"name":"user","type":"address","internalType":"address"}],"outputs":[{"name":"","type":"bool","internalType":"bool"}],"stateMutability":"view"},{"type":"function","name":"isFactoryVaultManager","inputs":[{"name":"user","type":"address","internalType":"address"}],"outputs":[{"name":"","type":"bool","internalType":"bool"}],"stateMutability":"view"},{"type":"function","name":"isFactoryVaultPauser","inputs":[{"name":"user","type":"address","internalType":"address"}],"outputs":[{"name":"","type":"bool","internalType":"bool"}],"stateMutability":"view"},{"type":"function","name":"lastTimeRewardApplicable","inputs":[],"outputs":[{"name":"","type":"uint256","internalType":"uint256"}],"stateMutability":"view"},{"type":"function","name":"lastUpdateTime","inputs":[],"outputs":[{"name":"","type":"uint256","internalType":"uint256"}],"stateMutability":"view"},{"type":"function","name":"maxIncentiveTokensCount","inputs":[],"outputs":[{"name":"","type":"uint8","internalType":"uint8"}],"stateMutability":"view"},{"type":"function","name":"minRewardDurationForTargetRate","inputs":[],"outputs":[{"name":"","type":"uint256","internalType":"uint256"}],"stateMutability":"view"},{"type":"function","name":"notifyRewardAmount","inputs":[{"name":"pubkey","type":"bytes","internalType":"bytes"},{"name":"reward","type":"uint256","internalType":"uint256"}],"outputs":[],"stateMutability":"nonpayable"},{"type":"function","name":"operator","inputs":[{"name":"account","type":"address","internalType":"address"}],"outputs":[{"name":"","type":"address","internalType":"address"}],"stateMutability":"view"},{"type":"function","name":"pause","inputs":[],"outputs":[],"stateMutability":"nonpayable"},{"type":"function","name":"paused","inputs":[],"outputs":[{"name":"","type":"bool","internalType":"bool"}],"stateMutability":"view"},{"type":"function","name":"pendingRewardsDuration","inputs":[],"outputs":[{"name":"","type":"uint256","internalType":"uint256"}],"stateMutability":"view"},{"type":"function","name":"periodFinish","inputs":[],"outputs":[{"name":"","type":"uint256","internalType":"uint256"}],"stateMutability":"view"},{"type":"function","name":"recoverERC20","inputs":[{"name":"tokenAddress","type":"address","internalType":"address"},{"name":"tokenAmount","type":"uint256","internalType":"uint256"}],"outputs":[],"stateMutability":"nonpayable"},{"type":"function","name":"removeIncentiveToken","inputs":[{"name":"token","type":"address","internalType":"address"}],"outputs":[],"stateMutability":"nonpayable"},{"type":"function","name":"rewardPerToken","inputs":[],"outputs":[{"name":"","type":"uint256","internalType":"uint256"}],"stateMutability":"view"},{"type":"function","name":"rewardPerTokenStored","inputs":[],"outputs":[{"name":"","type":"uint256","internalType":"uint256"}],"stateMutability":"view"},{"type":"function","name":"rewardRate","inputs":[],"outputs":[{"name":"","type":"uint256","internalType":"uint256"}],"stateMutability":"view"},{"type":"function","name":"rewardToken","inputs":[],"outputs":[{"name":"","type":"address","internalType":"contract IERC20"}],"stateMutability":"view"},{"type":"function","name":"rewardVaultManager","inputs":[],"outputs":[{"name":"","type":"address","internalType":"address"}],"stateMutability":"view"},{"type":"function","name":"rewards","inputs":[{"name":"account","type":"address","internalType":"address"}],"outputs":[{"name":"","type":"uint256","internalType":"uint256"}],"stateMutability":"view"},{"type":"function","name":"rewardsDuration","inputs":[],"outputs":[{"name":"","type":"uint256","internalType":"uint256"}],"stateMutability":"view"},{"type":"function","name":"setDistributor","inputs":[{"name":"_rewardDistribution","type":"address","internalType":"address"}],"outputs":[],"stateMutability":"nonpayable"},{"type":"function","name":"setMaxIncentiveTokensCount","inputs":[{"name":"_maxIncentiveTokensCount","type":"uint8","internalType":"uint8"}],"outputs":[],"stateMutability":"nonpayable"},{"type":"function","name":"setMinRewardDurationForTargetRate","inputs":[{"name":"_minRewardDurationForTargetRate","type":"uint256","internalType":"uint256"}],"outputs":[],"stateMutability":"nonpayable"},{"type":"function","name":"setOperator","inputs":[{"name":"_operator","type":"address","internalType":"address"}],"outputs":[],"stateMutability":"nonpayable"},{"type":"function","name":"setRewardVaultManager","inputs":[{"name":"_rewardVaultManager","type":"address","internalType":"address"}],"outputs":[],"stateMutability":"nonpayable"},{"type":"function","name":"setRewardsDuration","inputs":[{"name":"_rewardsDuration","type":"uint256","internalType":"uint256"}],"outputs":[],"stateMutability":"nonpayable"},{"type":"function","name":"setTargetRewardsPerSecond","inputs":[{"name":"_targetRewardsPerSecond","type":"uint256","internalType":"uint256"}],"outputs":[],"stateMutability":"nonpayable"},{"type":"function","name":"stake","inputs":[{"name":"amount","type":"uint256","internalType":"uint256"}],"outputs":[],"stateMutability":"nonpayable"},{"type":"function","name":"stakeOnBehalf","inputs":[{"name":"account","type":"address","internalType":"address"},{"name":"amount","type":"uint256","internalType":"uint256"}],"outputs":[],"stateMutability":"nonpayable"},{"type":"function","name":"stakeToken","inputs":[],"outputs":[{"name":"","type":"address","internalType":"contract IERC20"}],"stateMutability":"view"},{"type":"function","name":"targetRewardsPerSecond","inputs":[],"outputs":[{"name":"","type":"uint256","internalType":"uint256"}],"stateMutability":"view"},{"type":"function","name":"totalSupply","inputs":[],"outputs":[{"name":"","type":"uint256","internalType":"uint256"}],"stateMutability":"view"},{"type":"function","name":"undistributedRewards","inputs":[],"outputs":[{"name":"","type":"uint256","internalType":"uint256"}],"stateMutability":"view"},{"type":"function","name":"unpause","inputs":[],"outputs":[],"stateMutability":"nonpayable"},{"type":"function","name":"updateIncentiveManager","inputs":[{"name":"token","type":"address","internalType":"address"},{"name":"newManager","type":"address","internalType":"address"}],"outputs":[],"stateMutability":"nonpayable"},{"type":"function","name":"userRewardPerTokenPaid","inputs":[{"name":"account","type":"address","internalType":"address"}],"outputs":[{"name":"","type":"uint256","internalType":"uint256"}],"stateMutability":"view"},{"type":"function","name":"whitelistIncentiveToken","inputs":[{"name":"token","type":"address","internalType":"address"},{"name":"minIncentiveRate","type":"uint256","internalType":"uint256"},{"name":"manager","type":"address","internalType":"address"}],"outputs":[],"stateMutability":"nonpayable"},{"type":"function","name":"whitelistedTokens","inputs":[{"name":"","type":"uint256","internalType":"uint256"}],"outputs":[{"name":"","type":"address","internalType":"address"}],"stateMutability":"view"},{"type":"function","name":"withdraw","inputs":[{"name":"amount","type":"uint256","internalType":"uint256"}],"outputs":[],"stateMutability":"nonpayable"},{"type":"event","name":"BGTBoosterIncentivesProcessFailed","inputs":[{"name":"pubkey","type":"bytes","indexed":true,"internalType":"bytes"},{"name":"token","type":"address","indexed":true,"internalType":"address"},{"name":"bgtEmitted","type":"uint256","indexed":false,"internalType":"uint256"},{"name":"amount","type":"uint256","indexed":false,"internalType":"uint256"}],"anonymous":false},{"type":"event","name":"BGTBoosterIncentivesProcessed","inputs":[{"name":"pubkey","type":"bytes","indexed":true,"internalType":"bytes"},{"name":"token","type":"address","indexed":true,"internalType":"address"},{"name":"bgtEmitted","type":"uint256","indexed":false,"internalType":"uint256"},{"name":"amount","type":"uint256","indexed":false,"internalType":"uint256"}],"anonymous":false},{"type":"event","name":"DelegateStaked","inputs":[{"name":"account","type":"address","indexed":true,"internalType":"address"},{"name":"delegate","type":"address","indexed":true,"internalType":"address"},{"name":"amount","type":"uint256","indexed":false,"internalType":"uint256"}],"anonymous":false},{"type":"event","name":"DelegateWithdrawn","inputs":[{"name":"account","type":"address","indexed":true,"internalType":"address"},{"name":"delegate","type":"address","indexed":true,"internalType":"address"},{"name":"amount","type":"uint256","indexed":false,"internalType":"uint256"}],"anonymous":false},{"type":"event","name":"DistributorSet","inputs":[{"name":"distributor","type":"address","indexed":true,"internalType":"address"}],"anonymous":false},{"type":"event","name":"IncentiveAdded","inputs":[{"name":"token","type":"address","indexed":true,"internalType":"address"},{"name":"sender","type":"address","indexed":false,"internalType":"address"},{"name":"amount","type":"uint256","indexed":false,"internalType":"uint256"},{"name":"incentiveRate","type":"uint256","indexed":false,"internalType":"uint256"}],"anonymous":false},{"type":"event","name":"IncentiveFeeCollected","inputs":[{"name":"token","type":"address","indexed":true,"internalType":"address"},{"name":"amount","type":"uint256","indexed":false,"internalType":"uint256"}],"anonymous":false},{"type":"event","name":"IncentiveFeeCollectionFailed","inputs":[{"name":"token","type":"address","indexed":true,"internalType":"address"},{"name":"amount","type":"uint256","indexed":false,"internalType":"uint256"}],"anonymous":false},{"type":"event","name":"IncentiveManagerChanged","inputs":[{"name":"token","type":"address","indexed":true,"internalType":"address"},{"name":"newManager","type":"address","indexed":false,"internalType":"address"},{"name":"oldManager","type":"address","indexed":false,"internalType":"address"}],"anonymous":false},{"type":"event","name":"IncentiveTokenRemoved","inputs":[{"name":"token","type":"address","indexed":true,"internalType":"address"}],"anonymous":false},{"type":"event","name":"IncentiveTokenWhitelisted","inputs":[{"name":"token","type":"address","indexed":true,"internalType":"address"},{"name":"minIncentiveRate","type":"uint256","indexed":false,"internalType":"uint256"},{"name":"manager","type":"address","indexed":false,"internalType":"address"}],"anonymous":false},{"type":"event","name":"IncentivesProcessFailed","inputs":[{"name":"pubkey","type":"bytes","indexed":true,"internalType":"bytes"},{"name":"token","type":"address","indexed":true,"internalType":"address"},{"name":"bgtEmitted","type":"uint256","indexed":false,"internalType":"uint256"},{"name":"amount","type":"uint256","indexed":false,"internalType":"uint256"}],"anonymous":false},{"type":"event","name":"IncentivesProcessed","inputs":[{"name":"pubkey","type":"bytes","indexed":true,"internalType":"bytes"},{"name":"token","type":"address","indexed":true,"internalType":"address"},{"name":"bgtEmitted","type":"uint256","indexed":false,"internalType":"uint256"},{"name":"amount","type":"uint256","indexed":false,"internalType":"uint256"}],"anonymous":false},{"type":"event","name":"Initialized","inputs":[{"name":"version","type":"uint64","indexed":false,"internalType":"uint64"}],"anonymous":false},{"type":"event","name":"MaxIncentiveTokensCountUpdated","inputs":[{"name":"maxIncentiveTokensCount","type":"uint8","indexed":false,"internalType":"uint8"}],"anonymous":false},{"type":"event","name":"MinRewardDurationForTargetRateUpdated","inputs":[{"name":"newMinRewardDurationForTargetRate","type":"uint256","indexed":false,"internalType":"uint256"},{"name":"oldMinRewardDurationForTargetRate","type":"uint256","indexed":false,"internalType":"uint256"}],"anonymous":false},{"type":"event","name":"OperatorSet","inputs":[{"name":"account","type":"address","indexed":false,"internalType":"address"},{"name":"operator","type":"address","indexed":false,"internalType":"address"}],"anonymous":false},{"type":"event","name":"Paused","inputs":[{"name":"account","type":"address","indexed":false,"internalType":"address"}],"anonymous":false},{"type":"event","name":"Recovered","inputs":[{"name":"token","type":"address","indexed":false,"internalType":"address"},{"name":"amount","type":"uint256","indexed":false,"internalType":"uint256"}],"anonymous":false},{"type":"event","name":"RewardAdded","inputs":[{"name":"reward","type":"uint256","indexed":false,"internalType":"uint256"}],"anonymous":false},{"type":"event","name":"RewardPaid","inputs":[{"name":"account","type":"address","indexed":true,"internalType":"address"},{"name":"to","type":"address","indexed":false,"internalType":"address"},{"name":"reward","type":"uint256","indexed":false,"internalType":"uint256"}],"anonymous":false},{"type":"event","name":"RewardVaultManagerSet","inputs":[{"name":"newRewardVaultManager","type":"address","indexed":true,"internalType":"address"},{"name":"oldRewardVaultManager","type":"address","indexed":true,"internalType":"address"}],"anonymous":false},{"type":"event","name":"RewardsDurationUpdated","inputs":[{"name":"newDuration","type":"uint256","indexed":false,"internalType":"uint256"}],"anonymous":false},{"type":"event","name":"Staked","inputs":[{"name":"account","type":"address","indexed":true,"internalType":"address"},{"name":"amount","type":"uint256","indexed":false,"internalType":"uint256"}],"anonymous":false},{"type":"event","name":"TargetRewardsPerSecondUpdated","inputs":[{"name":"newTargetRewardsPerSecond","type":"uint256","indexed":false,"internalType":"uint256"},{"name":"oldTargetRewardsPerSecond","type":"uint256","indexed":false,"internalType":"uint256"}],"anonymous":false},{"type":"event","name":"Unpaused","inputs":[{"name":"account","type":"address","indexed":false,"internalType":"address"}],"anonymous":false},{"type":"event","name":"Withdrawn","inputs":[{"name":"account","type":"address","indexed":true,"internalType":"address"},{"name":"amount","type":"uint256","indexed":false,"internalType":"uint256"}],"anonymous":false},{"type":"error","name":"AmountGreaterThanReward","inputs":[]},{"type":"error","name":"AmountLessThanMinIncentiveRate","inputs":[]},{"type":"error","name":"CannotRecoverIncentiveToken","inputs":[]},{"type":"error","name":"CannotRecoverRewardToken","inputs":[]},{"type":"error","name":"CannotRecoverStakingToken","inputs":[]},{"type":"error","name":"CommissionChangeAlreadyQueued","inputs":[]},{"type":"error","name":"CommissionNotQueuedOrDelayNotPassed","inputs":[]},{"type":"error","name":"DepositNotMultipleOfGwei","inputs":[]},{"type":"error","name":"DepositValueTooHigh","inputs":[]},{"type":"error","name":"DonateAmountLessThanPayoutAmount","inputs":[]},{"type":"error","name":"DuplicateReceiver","inputs":[{"name":"receiver","type":"address","internalType":"address"}]},{"type":"error","name":"DurationChangeNotAllowed","inputs":[]},{"type":"error","name":"EnforcedPause","inputs":[]},{"type":"error","name":"ExpectedPause","inputs":[]},{"type":"error","name":"IncentiveRateTooHigh","inputs":[]},{"type":"error","name":"IndexOutOfRange","inputs":[]},{"type":"error","name":"InsolventReward","inputs":[]},{"type":"error","name":"InsufficientDelegateStake","inputs":[]},{"type":"error","name":"InsufficientDeposit","inputs":[]},{"type":"error","name":"InsufficientIncentiveTokens","inputs":[]},{"type":"error","name":"InsufficientNativeValue","inputs":[]},{"type":"error","name":"InsufficientSelfStake","inputs":[]},{"type":"error","name":"InsufficientStake","inputs":[]},{"type":"error","name":"InvalidActivateBoostDelay","inputs":[]},{"type":"error","name":"InvalidArray","inputs":[]},{"type":"error","name":"InvalidBaseRate","inputs":[]},{"type":"error","name":"InvalidBoostMultiplier","inputs":[]},{"type":"error","name":"InvalidCommissionChangeDelay","inputs":[]},{"type":"error","name":"InvalidCommissionValue","inputs":[]},{"type":"error","name":"InvalidCredentialsLength","inputs":[]},{"type":"error","name":"InvalidDistribution","inputs":[]},{"type":"error","name":"InvalidDropBoostDelay","inputs":[]},{"type":"error","name":"InvalidIncentiveFeeRate","inputs":[]},{"type":"error","name":"InvalidIncentiveRate","inputs":[]},{"type":"error","name":"InvalidInitialization","inputs":[]},{"type":"error","name":"InvalidMaxIncentiveTokensCount","inputs":[]},{"type":"error","name":"InvalidMaxWeightPerVault","inputs":[]},{"type":"error","name":"InvalidMerkleRoot","inputs":[]},{"type":"error","name":"InvalidMinBoostedRewardRate","inputs":[]},{"type":"error","name":"InvalidProof","inputs":[]},{"type":"error","name":"InvalidPubKeyLength","inputs":[]},{"type":"error","name":"InvalidRewardAllocationWeights","inputs":[]},{"type":"error","name":"InvalidRewardClaimDelay","inputs":[]},{"type":"error","name":"InvalidRewardConvexity","inputs":[]},{"type":"error","name":"InvalidRewardDuration","inputs":[]},{"type":"error","name":"InvalidRewardRate","inputs":[]},{"type":"error","name":"InvalidSignatureLength","inputs":[]},{"type":"error","name":"InvalidStartBlock","inputs":[]},{"type":"error","name":"InvalidToken","inputs":[]},{"type":"error","name":"InvalidWeight","inputs":[]},{"type":"error","name":"InvalidateDefaultRewardAllocation","inputs":[]},{"type":"error","name":"InvariantCheckFailed","inputs":[]},{"type":"error","name":"MaxNumWeightsPerRewardAllocationIsZero","inputs":[]},{"type":"error","name":"MinIncentiveRateIsZero","inputs":[]},{"type":"error","name":"NotAContract","inputs":[]},{"type":"error","name":"NotApprovedSender","inputs":[]},{"type":"error","name":"NotBGT","inputs":[]},{"type":"error","name":"NotBlockRewardController","inputs":[]},{"type":"error","name":"NotDelegate","inputs":[]},{"type":"error","name":"NotDistributor","inputs":[]},{"type":"error","name":"NotEnoughBalance","inputs":[]},{"type":"error","name":"NotEnoughBoostedBalance","inputs":[]},{"type":"error","name":"NotEnoughTime","inputs":[]},{"type":"error","name":"NotFactoryVault","inputs":[]},{"type":"error","name":"NotFeeCollector","inputs":[]},{"type":"error","name":"NotIncentiveManager","inputs":[]},{"type":"error","name":"NotInitializing","inputs":[]},{"type":"error","name":"NotNewOperator","inputs":[]},{"type":"error","name":"NotOperator","inputs":[]},{"type":"error","name":"NotRewardDurationManager","inputs":[]},{"type":"error","name":"NotRewardVaultManager","inputs":[]},{"type":"error","name":"NotWhitelistedVault","inputs":[]},{"type":"error","name":"OperatorAlreadySet","inputs":[]},{"type":"error","name":"OwnableUnauthorizedAccount","inputs":[{"name":"account","type":"address","internalType":"address"}]},{"type":"error","name":"PayoutAmountIsZero","inputs":[]},{"type":"error","name":"ReentrancyGuardReentrantCall","inputs":[]},{"type":"error","name":"RewardAllocationAlreadyQueued","inputs":[]},{"type":"error","name":"RewardAllocationBlockDelayTooLarge","inputs":[]},{"type":"error","name":"RewardCycleNotEnded","inputs":[]},{"type":"error","name":"RewardDurationCoolDownPeriodNotPassed","inputs":[]},{"type":"error","name":"RewardInactive","inputs":[]},{"type":"error","name":"RewardsDurationIsZero","inputs":[]},{"type":"error","name":"SafeERC20FailedOperation","inputs":[{"name":"token","type":"address","internalType":"address"}]},{"type":"error","name":"StakeAmountIsZero","inputs":[]},{"type":"error","name":"TimestampAlreadyProcessed","inputs":[]},{"type":"error","name":"TokenAlreadyWhitelistedOrLimitReached","inputs":[]},{"type":"error","name":"TokenNotWhitelisted","inputs":[]},{"type":"error","name":"TooManyWeights","inputs":[]},{"type":"error","name":"TotalSupplyOverflow","inputs":[]},{"type":"error","name":"UnauthorizedETHTransfer","inputs":[]},{"type":"error","name":"WithdrawAmountIsZero","inputs":[]},{"type":"error","name":"WithdrawalAlreadyRequested","inputs":[]},{"type":"error","name":"WithdrawalNotReady","inputs":[]},{"type":"error","name":"WithdrawalNotRequested","inputs":[]},{"type":"error","name":"ZeroAddress","inputs":[]},{"type":"error","name":"ZeroOperatorOnFirstDeposit","inputs":[]},{"type":"error","name":"ZeroPercentageWeight","inputs":[]}],"bytecode":{"object":"0x6080604052348015600e575f80fd5b5060156019565b60c9565b7ff0c57e16840df040f15088dc2f81fe391c3923bec73e23a9662efc9c229c6a00805468010000000000000000900460ff161560685760405163f92ee8a960e01b815260040160405180910390fd5b80546001600160401b039081161460c65780546001600160401b0319166001600160401b0390811782556040519081527fc7f505b2f371ae2175ee4913f4499e1f2633a7b5936321eed1cdaeb6115181d29060200160405180910390a15b50565b6146df806100d65f395ff3fe608060405234801561000f575f80fd5b50600436106103a8575f3560e01c80637b0a47ee116101ea578063bfe1092811610114578063e26f7900116100a9578063eafe0f4c11610079578063eafe0f4c14610966578063ebe2b12b14610986578063f7c618c11461098f578063f8c8765e146109af575f80fd5b8063e26f790014610918578063e434eee01461092d578063e753cbcc14610940578063e7d379a914610953575f80fd5b8063cd3daf9d116100e4578063cd3daf9d146108eb578063cfbde346146108f3578063df136d6514610906578063e0f4222e1461090f575f80fd5b8063bfe109281461086d578063c45a015514610892578063c8f33c91146108cf578063cc1a378f146108d8575f80fd5b80638f650f9c1161018a578063a694fc3a1161015a578063a694fc3a14610821578063b3ab15fb14610834578063b42652e914610847578063b42f60db1461085a575f80fd5b80638f650f9c146107635780639a307391146107ac5780639cd3f384146107e4578063a4dbda3c146107ec575f80fd5b80638456cb59116101c55780638456cb59146106fd5780638980f11f146107055780638b876347146107185780638eb3f35c14610750575f80fd5b80637b0a47ee146106d95780638002b1ba146106e257806380faa57d146106f5575f80fd5b806344aaa3d9116102d65780635cc27d6f1161026b57806373c16d5a1161023b57806373c16d5a1461061357806375619ab514610626578063774e900b14610639578063783c1a63146106b9575f80fd5b80635cc27d6f146105a257806367df5e01146105ac5780636b091695146105cb57806370a08231146105de575f80fd5b806354659b94116102a657806354659b9414610549578063555300cf1461055c5780635820bee0146105655780635c975abb14610578575f80fd5b806344aaa3d9146104fb578063460b5ee21461050457806351ed6a30146105175780635281244f14610536575f80fd5b80632154bc441161034c5780633c323a1b1161031c5780633c323a1b146104c35780633f4520f5146104d65780633f4ba83a146104e0578063433e8e41146104e8575f80fd5b80632154bc44146104665780632e1a7d4d1461049e578063319ce2bb146104b1578063386a9525146104ba575f80fd5b80631664961811610387578063166496181461042d57806318160ddd1461044257806318bfa6161461044b5780631c1f78eb1461045e575f80fd5b80628cc262146103ac5780630700037d146103d2578063078f7fd31461040a575b5f80fd5b6103bf6103ba36600461421a565b6109c2565b6040519081526020015b60405180910390f35b6103bf6103e036600461421a565b73ffffffffffffffffffffffffffffffffffffffff165f9081526009602052604090206001015490565b61041d61041836600461421a565b610a27565b60405190151581526020016103c9565b61044061043b366004614235565b610b09565b005b6103bf60055481565b610440610459366004614274565b610d1f565b6103bf610dea565b610479610474366004614274565b610e07565b60405173ffffffffffffffffffffffffffffffffffffffff90911681526020016103c9565b6104406104ac366004614274565b610e3c565b6103bf60035481565b6103bf60075481565b6104406104d136600461428b565b610e90565b6103bf62093a8081565b610440610f92565b61041d6104f636600461421a565b610fa4565b6103bf60445481565b61044061051236600461428b565b610fed565b5f546104799073ffffffffffffffffffffffffffffffffffffffff1681565b61044061054436600461428b565b611030565b6104406105573660046142b5565b61115d565b6103bf60455481565b61044061057336600461428b565b611202565b7fcd5ed15c6e187e77e9aee88184c21f4f2182ab5827cb3b7e07fbedcd63f033005460ff1661041d565b6103bf6203f48081565b603c546105b99060ff1681565b60405160ff90911681526020016103c9565b6103bf6105d93660046142d5565b61149d565b6103bf6105ec36600461421a565b73ffffffffffffffffffffffffffffffffffffffff165f9081526009602052604090205490565b610440610621366004614274565b61155e565b61044061063436600461421a565b611652565b61068361064736600461421a565b604060208190525f91825290208054600182015460028301546003909301549192909173ffffffffffffffffffffffffffffffffffffffff1684565b6040805194855260208501939093529183015273ffffffffffffffffffffffffffffffffffffffff1660608201526080016103c9565b6042546104799073ffffffffffffffffffffffffffffffffffffffff1681565b6103bf60025481565b6104406106f036600461421a565b611713565b6103bf6117ed565b610440611800565b61044061071336600461428b565b611810565b6103bf61072636600461421a565b73ffffffffffffffffffffffffffffffffffffffff165f9081526009602052604090206002015490565b61044061075e3660046142d5565b6119d7565b6103bf6107713660046142d5565b73ffffffffffffffffffffffffffffffffffffffff9182165f908152603e602090815260408083209390941682526001909201909152205490565b6104796107ba36600461421a565b73ffffffffffffffffffffffffffffffffffffffff9081165f908152603f60205260409020541690565b6041546103bf565b6103bf6107fa36600461421a565b73ffffffffffffffffffffffffffffffffffffffff165f908152603e602052604090205490565b61044061082f366004614274565b611b14565b61044061084236600461421a565b611b57565b61044061085536600461421a565b611bdb565b61044061086836600461430c565b611c25565b603c5461047990610100900473ffffffffffffffffffffffffffffffffffffffff1681565b7f4e32a932fdd4658a66f9586d8955a0d0a795a01bd8251335b4fae29d972acc005473ffffffffffffffffffffffffffffffffffffffff16610479565b6103bf60085481565b6104406108e6366004614274565b611ea7565b6103bf611f66565b61041d61090136600461421a565b611faf565b6103bf60045481565b6103bf60465481565b610920611ff8565b6040516103c9919061433e565b61044061093b366004614396565b612065565b61044061094e366004614408565b6120c6565b61044061096136600461421a565b61217f565b603d546104799073ffffffffffffffffffffffffffffffffffffffff1681565b6103bf60065481565b6001546104799073ffffffffffffffffffffffffffffffffffffffff1681565b6104406109bd366004614446565b612288565b73ffffffffffffffffffffffffffffffffffffffff81165f90815260096020526040812080546001820154600283015484816109fc611f66565b039050610a128482670de0b6b3a764000061250a565b610a1c90846144cc565b979650505050505050565b7f4e32a932fdd4658a66f9586d8955a0d0a795a01bd8251335b4fae29d972acc0080545f919073ffffffffffffffffffffffffffffffffffffffff166391d14854610a706125b7565b6040517fffffffff0000000000000000000000000000000000000000000000000000000060e084901b168152600481019190915273ffffffffffffffffffffffffffffffffffffffff86166024820152604401602060405180830381865afa158015610ade573d5f803e3d5ffd5b505050506040513d601f19601f82011682018060405250810190610b0291906144df565b9392505050565b610b1161266f565b815f03610b4157610b417f0b5c3aff000000000000000000000000000000000000000000000000000000006126a6565b6ec097ce7bc90715b34b9f1000000000821115610b8157610b817f38432c89000000000000000000000000000000000000000000000000000000006126a6565b73ffffffffffffffffffffffffffffffffffffffff83161580610bb8575073ffffffffffffffffffffffffffffffffffffffff8116155b15610be657610be67fd92e233d000000000000000000000000000000000000000000000000000000006126a6565b73ffffffffffffffffffffffffffffffffffffffff83165f908152604060208190529020603c5460415460ff9091161480610c215750805415155b15610c4f57610c4f7ffbf97e07000000000000000000000000000000000000000000000000000000006126a6565b60418054600180820183555f929092527f7c9785e8241615bc80415d89775984a1337d15dc1bf4ce50f41988b2a2b336a70180547fffffffffffffffffffffffff000000000000000000000000000000000000000090811673ffffffffffffffffffffffffffffffffffffffff88811691821790935592840186905585845560038401805490911691851691821790556040805186815260208101929092527fc672b9cba50e3745edbd6cfb6512bc2165f66d47f686401223bc515cc933d9e0910160405180910390a250505050565b60425473ffffffffffffffffffffffffffffffffffffffff163314610d6757610d677ffb89696d000000000000000000000000000000000000000000000000000000006126a6565b6203f480811080610d7a575062093a8081115b15610da857610da87fe7726b79000000000000000000000000000000000000000000000000000000006126a6565b6046546040805183815260208101929092527f32ecaf2b18e8419a6edaa12c35a6b694d6aaf464466c5380b0346dcbc3578173910160405180910390a1604655565b5f610e02600254600754670de0b6b3a764000061250a565b905090565b60418181548110610e16575f80fd5b5f9182526020909120015473ffffffffffffffffffffffffffffffffffffffff16905081565b610e446126ae565b3381610e50828261272f565b610e58612792565b610e6233846127ee565b5050610e8d60017f9b779b17422d0df92223018b32b4d1fa46e071723d6817e2486d003becc55f0055565b50565b610e986126ae565b610ea0612792565b73ffffffffffffffffffffffffffffffffffffffff82163303610ee657610ee67f1db3b859000000000000000000000000000000000000000000000000000000006126a6565b610ef08282612943565b73ffffffffffffffffffffffffffffffffffffffff82165f818152603e60209081526040808320805486018155338085526001909101835292819020805486019055518481529192917f5d84fd7efe2fd5203970924007f1f56ec874f1fdbe6acec5f208000a72c7045691015b60405180910390a3610f8e60017f9b779b17422d0df92223018b32b4d1fa46e071723d6817e2486d003becc55f0055565b5050565b610f9a612a50565b610fa2612a59565b565b7f4e32a932fdd4658a66f9586d8955a0d0a795a01bd8251335b4fae29d972acc0080545f919073ffffffffffffffffffffffffffffffffffffffff166391d14854610a70612af0565b610ff56126ae565b610ffd612792565b6110078282612943565b610f8e60017f9b779b17422d0df92223018b32b4d1fa46e071723d6817e2486d003becc55f0055565b6110386126ae565b611040612792565b73ffffffffffffffffffffffffffffffffffffffff82163303611086576110867f1db3b859000000000000000000000000000000000000000000000000000000006126a6565b73ffffffffffffffffffffffffffffffffffffffff82165f908152603e602090815260408083203384526001810190925290912054828110156110ec576110ec7f8d1473a6000000000000000000000000000000000000000000000000000000006126a6565b335f90815260018301602052604090209083900390558054829003905561111382826127ee565b604051818152339073ffffffffffffffffffffffffffffffffffffffff8416907fb1296e59c4148d97ce0bf24c50bb4bd58367005c1871eef38c03187f3cff850490602001610f5d565b61116561266f565b60415460ff8216101561119b5761119b7ffbf1123c000000000000000000000000000000000000000000000000000000006126a6565b603c80547fffffffffffffffffffffffffffffffffffffffffffffffffffffffffffffff001660ff83169081179091556040519081527f8d31d8a650a75f6978e9d7331686f948e5fddeaa4940eddb941d4129459d8bf3906020015b60405180910390a150565b61120a6126ae565b73ffffffffffffffffffffffffffffffffffffffff82165f9081526040602081905281205483910361125f5761125f7ff84835a0000000000000000000000000000000000000000000000000000000006126a6565b73ffffffffffffffffffffffffffffffffffffffff8084165f90815260406020819052902080546001820154600283015460038401549394929391929091163381146112ce576112ce7f5ee4de0e000000000000000000000000000000000000000000000000000000006126a6565b838710156112ff576112ff7fad57d95d000000000000000000000000000000000000000000000000000000006126a6565b6040517f70a082310000000000000000000000000000000000000000000000000000000081523060048201525f9073ffffffffffffffffffffffffffffffffffffffff8a16906370a0823190602401602060405180830381865afa158015611369573d5f803e3d5ffd5b505050506040513d601f19601f8201168201806040525081019061138d91906144fe565b5f5490915073ffffffffffffffffffffffffffffffffffffffff908116908a16036113c2576005546113bf9082614515565b90505b6113cc8382614515565b8811156113fc576113fc7fad3a8b9e000000000000000000000000000000000000000000000000000000006126a6565b87866002015f82825461140f91906144cc565b909155505060408051338152602081018a905290810185905273ffffffffffffffffffffffffffffffffffffffff8a16907f8bf110a87db594cedb42356a9ca4b64a0d26fb09909292e842c614823e41d3379060600160405180910390a250505050505050610f8e60017f9b779b17422d0df92223018b32b4d1fa46e071723d6817e2486d003becc55f0055565b5f6114a66126ae565b6114ae612792565b823373ffffffffffffffffffffffffffffffffffffffff8216146115225773ffffffffffffffffffffffffffffffffffffffff8181165f908152603f6020526040902054163314611522576115227f7c214f04000000000000000000000000000000000000000000000000000000006126a6565b61152c8484612b7e565b91505061155860017f9b779b17422d0df92223018b32b4d1fa46e071723d6817e2486d003becc55f0055565b92915050565b60425473ffffffffffffffffffffffffffffffffffffffff1633146115a6576115a67ffb89696d000000000000000000000000000000000000000000000000000000006126a6565b6046545f036115f1576203f4806046819055604080519182525f60208301527f32ecaf2b18e8419a6edaa12c35a6b694d6aaf464466c5380b0346dcbc3578173910160405180910390a15b80158015611603575062093a80600754115b156116105762093a806045555b6044546040805183815260208101929092527f89a46f300a7b049d16a87faab4f8bd9633694a221acdce54bcf7379d9b63d9bb910160405180910390a1604455565b61165a61266f565b73ffffffffffffffffffffffffffffffffffffffff811661169e5761169e7fd92e233d000000000000000000000000000000000000000000000000000000006126a6565b603c80547fffffffffffffffffffffff0000000000000000000000000000000000000000ff1661010073ffffffffffffffffffffffffffffffffffffffff8416908102919091179091556040517f86719c518c7d99ac94b3d405d462ea876ba5cd0a978461dc9a7c9862a9485886905f90a250565b61171b612a50565b73ffffffffffffffffffffffffffffffffffffffff811661175f5761175f7fd92e233d000000000000000000000000000000000000000000000000000000006126a6565b60425460405173ffffffffffffffffffffffffffffffffffffffff918216918316907f9b68591e1b552cd7b14c9a9c459c82170aafac302c57ac1473aba6dd58405dec905f90a3604280547fffffffffffffffffffffffff00000000000000000000000000000000000000001673ffffffffffffffffffffffffffffffffffffffff92909216919091179055565b5f610e0242600654808218908211021890565b611808612c25565b610fa2612c2e565b61181861266f565b73ffffffffffffffffffffffffffffffffffffffff82165f908152604060208190529020541561186b5761186b7f2899103f000000000000000000000000000000000000000000000000000000006126a6565b5f5473ffffffffffffffffffffffffffffffffffffffff90811690831603611962576005545f80546040517f70a0823100000000000000000000000000000000000000000000000000000000815230600482015291929173ffffffffffffffffffffffffffffffffffffffff909116906370a0823190602401602060405180830381865afa1580156118ff573d5f803e3d5ffd5b505050506040513d601f19601f8201168201806040525081019061192391906144fe565b61192d9190614515565b905080821115611960576119607fad3a8b9e000000000000000000000000000000000000000000000000000000006126a6565b505b61198373ffffffffffffffffffffffffffffffffffffffff83163383612ca7565b6040805173ffffffffffffffffffffffffffffffffffffffff84168152602081018390527f8c1256b8896378cd5044f80c202f9772b9d77dc85c8a6eb51967210b09bfaa2891015b60405180910390a15050565b6119df61266f565b73ffffffffffffffffffffffffffffffffffffffff82165f90815260406020819052812054839103611a3457611a347ff84835a0000000000000000000000000000000000000000000000000000000006126a6565b73ffffffffffffffffffffffffffffffffffffffff8216611a7857611a787fd92e233d000000000000000000000000000000000000000000000000000000006126a6565b73ffffffffffffffffffffffffffffffffffffffff8381165f81815260406020818152918190206003810180548887167fffffffffffffffffffffffff0000000000000000000000000000000000000000821681179092558351918252909516928501839052939192917fde0b08e9133c988b532b66a2067bcb23214f588d9d4f4e2dd869bc7ddf16ee11910160405180910390a25050505050565b611b1c6126ae565b611b24612792565b611b2e3382612943565b610e8d60017f9b779b17422d0df92223018b32b4d1fa46e071723d6817e2486d003becc55f0055565b335f818152603f602090815260409182902080547fffffffffffffffffffffffff00000000000000000000000000000000000000001673ffffffffffffffffffffffffffffffffffffffff86169081179091558251938452908301527ffd489696792cc4c5d5b226c46f008e459c8ec9b746c49191d74bb92c19fd186791016111f7565b611be36126ae565b611beb612792565b335f908152603e60209081526040808320546009909252822054611c0f9190614515565b9050611c1b33826127ee565b610e623383612b7e565b611c2d6126ae565b73ffffffffffffffffffffffffffffffffffffffff83165f90815260406020819052812054849103611c8257611c827ff84835a0000000000000000000000000000000000000000000000000000000006126a6565b6ec097ce7bc90715b34b9f1000000000821115611cc257611cc27f38432c89000000000000000000000000000000000000000000000000000000006126a6565b73ffffffffffffffffffffffffffffffffffffffff8085165f9081526040602081905290208054600182015460028301546003840154939492939192909116338114611d3157611d317f5ee4de0e000000000000000000000000000000000000000000000000000000006126a6565b83881015611d6257611d627fad57d95d000000000000000000000000000000000000000000000000000000006126a6565b83871015611d9357611d937f451fa036000000000000000000000000000000000000000000000000000000006126a6565b611db573ffffffffffffffffffffffffffffffffffffffff8a1633308b612d28565b611dbf88836144cc565b60028601555f829003611dd85760018501879055611e14565b828710611deb5760018501879055611e14565b611e147f451fa036000000000000000000000000000000000000000000000000000000006126a6565b600185015460408051338152602081018b90529081019190915273ffffffffffffffffffffffffffffffffffffffff8a16907f8bf110a87db594cedb42356a9ca4b64a0d26fb09909292e842c614823e41d3379060600160405180910390a2505050505050611ea260017f9b779b17422d0df92223018b32b4d1fa46e071723d6817e2486d003becc55f0055565b505050565b60425473ffffffffffffffffffffffffffffffffffffffff163314611eef57611eef7ffb89696d000000000000000000000000000000000000000000000000000000006126a6565b60445415611f2057611f207f4c168419000000000000000000000000000000000000000000000000000000006126a6565b6203f480811080611f33575062093a8081115b15611f6157611f617fe7726b79000000000000000000000000000000000000000000000000000000006126a6565b604555565b6005545f90808203611f7a57505060045490565b5f600854611f866117ed565b0390505f611f97600254838561250a565b905080600454611fa791906144cc565b935050505090565b7f4e32a932fdd4658a66f9586d8955a0d0a795a01bd8251335b4fae29d972acc0080545f919073ffffffffffffffffffffffffffffffffffffffff166391d14854610a70612d74565b6060604180548060200260200160405190810160405280929190818152602001828054801561205b57602002820191905f5260205f20905b815473ffffffffffffffffffffffffffffffffffffffff168152600190910190602001808311612030575b5050505050905090565b603c54610100900473ffffffffffffffffffffffffffffffffffffffff1633146120b2576120b27f385296d5000000000000000000000000000000000000000000000000000000006126a6565b6120bb81612e02565b611ea2838383612eb1565b6120ce6126ae565b6120d6612792565b823373ffffffffffffffffffffffffffffffffffffffff82161461214a5773ffffffffffffffffffffffffffffffffffffffff8181165f908152603f602052604090205416331461214a5761214a7f7c214f04000000000000000000000000000000000000000000000000000000006126a6565b6121558484846136b4565b50611ea260017f9b779b17422d0df92223018b32b4d1fa46e071723d6817e2486d003becc55f0055565b612187612a50565b73ffffffffffffffffffffffffffffffffffffffff81165f908152604060208190528120548291036121dc576121dc7ff84835a0000000000000000000000000000000000000000000000000000000006126a6565b73ffffffffffffffffffffffffffffffffffffffff82165f90815260406020819052812081815560018101829055600281019190915560030180547fffffffffffffffffffffffff000000000000000000000000000000000000000016905561224482613793565b60405173ffffffffffffffffffffffffffffffffffffffff8316907f65ff9187746d336179f23ad14746fa804e31bac422ef2dd63b9dc97313caa797905f90a25050565b7ff0c57e16840df040f15088dc2f81fe391c3923bec73e23a9662efc9c229c6a00805468010000000000000000810460ff16159067ffffffffffffffff165f811580156122d25750825b90505f8267ffffffffffffffff1660011480156122ee5750303b155b9050811580156122fc575080155b15612333576040517ff92ee8a900000000000000000000000000000000000000000000000000000000815260040160405180910390fd5b84547fffffffffffffffffffffffffffffffffffffffffffffffff000000000000000016600117855583156123945784547fffffffffffffffffffffffffffffffffffffffffffffff00ffffffffffffffff16680100000000000000001785555b61239d336138e6565b6123a5613950565b6123ad613960565b6123bb868962093a80613970565b603c805473ffffffffffffffffffffffffffffffffffffffff808a1661010081027fffffffffffffffffffffff00000000000000000000000000000000000000000090931692909217600317909255603d8054928c167fffffffffffffffffffffffff0000000000000000000000000000000000000000909316929092179091556040517f86719c518c7d99ac94b3d405d462ea876ba5cd0a978461dc9a7c9862a9485886905f90a2603c5460405160ff90911681527f8d31d8a650a75f6978e9d7331686f948e5fddeaa4940eddb941d4129459d8bf39060200160405180910390a183156124ff5784547fffffffffffffffffffffffffffffffffffffffffffffff00ffffffffffffffff168555604051600181527fc7f505b2f371ae2175ee4913f4499e1f2633a7b5936321eed1cdaeb6115181d29060200160405180910390a15b505050505050505050565b828202818385830414851517026125b0577fffffffffffffffffffffffffffffffffffffffffffffffffffffffffffffffff8385098181108201900382848609835f0384168285116125635763ae47f7025f526004601cfd5b93849004938382119092035f839003839004600101029203041760026003830281188084028203028084028203028084028203028084028203028084028203028084029091030202610b02565b0492915050565b7f4e32a932fdd4658a66f9586d8955a0d0a795a01bd8251335b4fae29d972acc008054604080517fc209bca200000000000000000000000000000000000000000000000000000000815290515f939273ffffffffffffffffffffffffffffffffffffffff169163c209bca29160048083019260209291908290030181865afa158015612645573d5f803e3d5ffd5b505050506040513d601f19601f8201168201806040525081019061266991906144fe565b91505090565b61267833610fa4565b610fa257610fa27f118cdaa700000000000000000000000000000000000000000000000000000000336139d1565b805f5260045ffd5b7f9b779b17422d0df92223018b32b4d1fa46e071723d6817e2486d003becc55f0080547ffffffffffffffffffffffffffffffffffffffffffffffffffffffffffffffffe01612729576040517f3ee5aeb500000000000000000000000000000000000000000000000000000000815260040160405180910390fd5b60029055565b73ffffffffffffffffffffffffffffffffffffffff82165f908152603e60209081526040808320546009909252909120540381811015611ea257611ea27f08e88f46000000000000000000000000000000000000000000000000000000006126a6565b7fcd5ed15c6e187e77e9aee88184c21f4f2182ab5827cb3b7e07fbedcd63f033005460ff1615610fa2576040517fd93c066500000000000000000000000000000000000000000000000000000000815260040160405180910390fd5b805f0361281e5761281e7fa393d14b000000000000000000000000000000000000000000000000000000006126a6565b612827826139dd565b73ffffffffffffffffffffffffffffffffffffffff82165f90815260096020526040902080548281101561287e5761287e7ff1bc94d2000000000000000000000000000000000000000000000000000000006126a6565b8290039055600580548281039091558114801561289c575060065442105b156128bf576128a9613a50565b60035f8282546128b991906144cc565b90915550505b6128c93382613a67565b8173ffffffffffffffffffffffffffffffffffffffff167f7084f5476618d8e60b11ef0d7d3f06914655adb8793e28ff7f018d4c76d505d58260405161291191815260200190565b60405180910390a25050565b60017f9b779b17422d0df92223018b32b4d1fa46e071723d6817e2486d003becc55f0055565b805f03612973576129737f5ce91fd0000000000000000000000000000000000000000000000000000000006126a6565b60055415801561298457505f600354115b1561299157612991613a8a565b61299a826139dd565b6005548181018181116129d0576129d07fe5cfe957000000000000000000000000000000000000000000000000000000006126a6565b6005555073ffffffffffffffffffffffffffffffffffffffff82165f908152600960205260409020805482019055612a083382613b49565b8173ffffffffffffffffffffffffffffffffffffffff167f9e71bc8eea02a63969f509818f2dafb9254532904319f9dbda79b67bd34a5f3d8260405161291191815260200190565b61267833611faf565b612a61613b6d565b7fcd5ed15c6e187e77e9aee88184c21f4f2182ab5827cb3b7e07fbedcd63f0330080547fffffffffffffffffffffffffffffffffffffffffffffffffffffffffffffff001681557f5db9ee0a495bf2e6ff9c91a7834c1ba4fdd244a5e8aa4e537bd38aeae4b073aa335b60405173ffffffffffffffffffffffffffffffffffffffff90911681526020016111f7565b7f4e32a932fdd4658a66f9586d8955a0d0a795a01bd8251335b4fae29d972acc008054604080517fa217fddf00000000000000000000000000000000000000000000000000000000815290515f939273ffffffffffffffffffffffffffffffffffffffff169163a217fddf9160048083019260209291908290030181865afa158015612645573d5f803e3d5ffd5b5f82612b89816139dd565b73ffffffffffffffffffffffffffffffffffffffff84165f90815260096020526040902060018101548015612c1c575f6001830155612bc88582613bc8565b6040805173ffffffffffffffffffffffffffffffffffffffff8781168252602082018490528816917f540798df468d7b23d11f156fdb954cb19ad414d150722a7b6d55ba369dea792e910160405180910390a25b95945050505050565b61267833610a27565b612c36612792565b7fcd5ed15c6e187e77e9aee88184c21f4f2182ab5827cb3b7e07fbedcd63f0330080547fffffffffffffffffffffffffffffffffffffffffffffffffffffffffffffff001660011781557f62e78cea01bee320cd4e420270b5ea74000d11b0c9f74754ebdbfc544b05a25833612acb565b60405173ffffffffffffffffffffffffffffffffffffffff838116602483015260448201839052611ea291859182169063a9059cbb906064015b604051602081830303815290604052915060e01b6020820180517bffffffffffffffffffffffffffffffffffffffffffffffffffffffff8381831617835250505050613bf9565b60405173ffffffffffffffffffffffffffffffffffffffff8481166024830152838116604483015260648201839052612d6e9186918216906323b872dd90608401612ce1565b50505050565b7f4e32a932fdd4658a66f9586d8955a0d0a795a01bd8251335b4fae29d972acc008054604080517f5e5a24a400000000000000000000000000000000000000000000000000000000815290515f939273ffffffffffffffffffffffffffffffffffffffff1691635e5a24a49160048083019260209291908290030181865afa158015612645573d5f803e3d5ffd5b5f612e0c816139dd565b612e1e670de0b6b3a764000083614528565b91506005545f14158015612e33575060065442105b15612e4d57612e40613a50565b612e4a90836144cc565b91505b8160035f828254612e5e91906144cc565b90915550612e6c9050613c9c565b60055415612e8157612e7c613a8a565b426008555b6040518281527fde88a922e0d3b88b24e9623efeb464919c6bf9f66857a65e2bfcf2ce87a9433d906020016119cb565b603d546040517f9eaffa960000000000000000000000000000000000000000000000000000000081525f9173ffffffffffffffffffffffffffffffffffffffff1690639eaffa9690612f099087908790600401614586565b602060405180830381865afa158015612f24573d5f803e3d5ffd5b505050506040513d601f19601f82011682018060405250810190612f4891906145a1565b90505f603c60019054906101000a900473ffffffffffffffffffffffffffffffffffffffff1673ffffffffffffffffffffffffffffffffffffffff166357c609516040518163ffffffff1660e01b8152600401602060405180830381865afa158015612fb6573d5f803e3d5ffd5b505050506040513d601f19601f82011682018060405250810190612fda91906145a1565b90505f612fe5613d85565b6041549091505f5b818110156136aa575f60418281548110613009576130096145bc565b5f91825260208083209091015473ffffffffffffffffffffffffffffffffffffffff1680835260409182905290822060018101549193509190613056908a90670de0b6b3a7640000613e37565b6002830154818118818311029091189150613072848383613e55565b90925090505f8215613102578873ffffffffffffffffffffffffffffffffffffffff16633909cbd58e8e866040518463ffffffff1660e01b81526004016130bb939291906145e9565b602060405180830381865afa1580156130d6573d5f803e3d5ffd5b505050506040513d601f19601f820116820180604052508101906130fa91906144fe565b905080830392505b801561320d575f61312a73ffffffffffffffffffffffffffffffffffffffff87168c84614094565b905080156131a35781830392508573ffffffffffffffffffffffffffffffffffffffff168e8e60405161315e92919061460c565b604080519182900382208f835260208301869052917f5468188b6036c5311a3f18fc548c42ccb48a0cdcb9d339e0b2ba38aed4fae36d910160405180910390a361320b565b8573ffffffffffffffffffffffffffffffffffffffff168e8e6040516131ca92919061460c565b604080519182900382208f835260208301869052917f9fec1510965fae0a926a8da7b5b8e957ae07d25d78381996f031cecc116ed99d910160405180910390a35b505b82156136965760405173ffffffffffffffffffffffffffffffffffffffff89166024820152604481018490525f90606401604080517fffffffffffffffffffffffffffffffffffffffffffffffffffffffffffffffe08184030181529181526020820180517bffffffffffffffffffffffffffffffffffffffffffffffffffffffff167f095ea7b300000000000000000000000000000000000000000000000000000000179052519091505f9073ffffffffffffffffffffffffffffffffffffffff8816906207a120906132e290859061461b565b5f604051808303815f8787f1925050503d805f811461331c576040519150601f19603f3d011682016040523d82523d5f602084013e613321565b606091505b505090508015613621578e8e88876040516024016133429493929190614631565b604080517fffffffffffffffffffffffffffffffffffffffffffffffffffffffffffffffe08184030181529181526020820180517bffffffffffffffffffffffffffffffffffffffffffffffffffffffff167fe6f4626f000000000000000000000000000000000000000000000000000000001790525190925073ffffffffffffffffffffffffffffffffffffffff8b16906207a120906133e490859061461b565b5f604051808303815f8787f1925050503d805f811461341e576040519150601f19603f3d011682016040523d82523d5f602084013e613423565b606091505b509091505080156134a95784840393508673ffffffffffffffffffffffffffffffffffffffff168f8f60405161345a92919061460c565b60405180910390207f447452569a869245fac1955d7c6c762fbd3b4ad4c1695b1b0f1cc5985958a2718f8860405161349c929190918252602082015260400190565b60405180910390a3613693565b60405173ffffffffffffffffffffffffffffffffffffffff8b1660248201525f6044820152606401604080517fffffffffffffffffffffffffffffffffffffffffffffffffffffffffffffffe08184030181529181526020820180517bffffffffffffffffffffffffffffffffffffffffffffffffffffffff167f095ea7b3000000000000000000000000000000000000000000000000000000001790525190925073ffffffffffffffffffffffffffffffffffffffff8816906207a1209061357390859061461b565b5f604051808303815f8787f1925050503d805f81146135ad576040519150601f19603f3d011682016040523d82523d5f602084013e6135b2565b606091505b5050809150508673ffffffffffffffffffffffffffffffffffffffff168f8f6040516135df92919061460c565b60405180910390207fbf3ad91545f13a6d49740541527d53e26f9af2968e6037bc8e048203e5083ab68f8860405161349c929190918252602082015260400190565b8673ffffffffffffffffffffffffffffffffffffffff168f8f60405161364892919061460c565b60405180910390207fbf3ad91545f13a6d49740541527d53e26f9af2968e6037bc8e048203e5083ab68f8860405161368a929190918252602082015260400190565b60405180910390a35b50505b506002909201919091555050600101612fed565b5050505050505050565b826136be816139dd565b73ffffffffffffffffffffffffffffffffffffffff84165f908152600960205260409020600181015480841115613718576137187f92949442000000000000000000000000000000000000000000000000000000006126a6565b831561378b576137288482614515565b60018301556137378585613bc8565b6040805173ffffffffffffffffffffffffffffffffffffffff8781168252602082018790528816917f540798df468d7b23d11f156fdb954cb19ad414d150722a7b6d55ba369dea792e910160405180910390a25b505050505050565b6041545f5b81811015611ea257604181815481106137b3576137b36145bc565b5f9182526020909120015473ffffffffffffffffffffffffffffffffffffffff908116908416036138de57604160018303815481106137f4576137f46145bc565b5f918252602090912001546041805473ffffffffffffffffffffffffffffffffffffffff909216918390811061382c5761382c6145bc565b905f5260205f20015f6101000a81548173ffffffffffffffffffffffffffffffffffffffff021916908373ffffffffffffffffffffffffffffffffffffffff16021790555060418054806138825761388261466d565b5f8281526020902081017fffffffffffffffffffffffffffffffffffffffffffffffffffffffffffffffff90810180547fffffffffffffffffffffffff0000000000000000000000000000000000000000169055019055505050565b600101613798565b6138ee6140d4565b7f4e32a932fdd4658a66f9586d8955a0d0a795a01bd8251335b4fae29d972acc0080547fffffffffffffffffffffffff00000000000000000000000000000000000000001673ffffffffffffffffffffffffffffffffffffffff831617905550565b6139586140d4565b610fa261413b565b6139686140d4565b610fa261418c565b6139786140d4565b5f805473ffffffffffffffffffffffffffffffffffffffff9485167fffffffffffffffffffffffff0000000000000000000000000000000000000000918216179091556001805493909416921691909117909155600755565b815f528060045260245ffd5b5f6139e6611f66565b600481905590506139f56117ed565b60085573ffffffffffffffffffffffffffffffffffffffff821615610f8e5773ffffffffffffffffffffffffffffffffffffffff82165f908152600960205260409020613a41836109c2565b60028201929092556001015550565b5f8042600654039050806002546126699190614528565b5f54610f8e9073ffffffffffffffffffffffffffffffffffffffff168383612ca7565b5f6045545f14613a9c57604554613aa0565b6007545b5f604581905560445460035492935091613abb90849061469a565b90508115613b01575f82600354613ad2919061469a565b9050604654811015613afa57604654600354613aee919061469a565b91506046549050613afe565b8291505b92505b6007548314613b1357613b1383614194565b6002819055613b2283426144cc565b600655613b2f8382614528565b60035f828254613b3f9190614515565b9091555050505050565b5f54610f8e9073ffffffffffffffffffffffffffffffffffffffff16833084612d28565b7fcd5ed15c6e187e77e9aee88184c21f4f2182ab5827cb3b7e07fbedcd63f033005460ff16610fa2576040517f8dfc202b00000000000000000000000000000000000000000000000000000000815260040160405180910390fd5b603c54600154610f8e9173ffffffffffffffffffffffffffffffffffffffff91821691610100909104168484612d28565b5f8060205f8451602086015f885af180613c18576040513d5f823e3d81fd5b50505f513d91508115613c2f578060011415613c49565b73ffffffffffffffffffffffffffffffffffffffff84163b155b15612d6e576040517f5274afe700000000000000000000000000000000000000000000000000000000815273ffffffffffffffffffffffffffffffffffffffff8516600482015260240160405180910390fd5b600154603c546040517fdd62ed3e00000000000000000000000000000000000000000000000000000000815261010090910473ffffffffffffffffffffffffffffffffffffffff90811660048301523060248301525f92169063dd62ed3e90604401602060405180830381865afa158015613d19573d5f803e3d5ffd5b505050506040513d601f19601f82011682018060405250810190613d3d91906144fe565b905080670de0b6b3a7640000600354613d56919061469a565b1115610e8d57610e8d7ff4ba521f000000000000000000000000000000000000000000000000000000006126a6565b7f4e32a932fdd4658a66f9586d8955a0d0a795a01bd8251335b4fae29d972acc008054604080517f6cb9f23000000000000000000000000000000000000000000000000000000000815290515f939273ffffffffffffffffffffffffffffffffffffffff1691636cb9f2309160048083019260209291908290030181865afa158015613e13573d5f803e3d5ffd5b505050506040513d601f19601f8201168201806040525081019061266991906145a1565b828202831584820484141782026125b05763ad251c275f526004601cfd5b5f805f613e967f4e32a932fdd4658a66f9586d8955a0d0a795a01bd8251335b4fae29d972acc005473ffffffffffffffffffffffffffffffffffffffff1690565b6040517f34f600e7000000000000000000000000000000000000000000000000000000008152600481018790529091505f9073ffffffffffffffffffffffffffffffffffffffff8316906334f600e790602401602060405180830381865afa158015613f04573d5f803e3d5ffd5b505050506040513d601f19601f82011682018060405250810190613f2891906144fe565b9050801561408757613f3a8187614515565b95505f613fcb8373ffffffffffffffffffffffffffffffffffffffff1663525105c26040518163ffffffff1660e01b8152600401602060405180830381865afa158015613f89573d5f803e3d5ffd5b505050506040513d601f19601f82011682018060405250810190613fad91906145a1565b73ffffffffffffffffffffffffffffffffffffffff8a169084614094565b9050801561403457613fdd8287614515565b95508773ffffffffffffffffffffffffffffffffffffffff167f38cdaea8a7ee499a6e329f9f098f5b7943ea1e992b5fb4ad0a88884db15c3f898360405161402791815260200190565b60405180910390a2614085565b8773ffffffffffffffffffffffffffffffffffffffff167f07c1baad5c0b1fc9c4f260871b989323871e3d6e8cf0527ce5164feb47f96bc58360405161407c91815260200190565b60405180910390a25b505b5093959294509192505050565b5f82601452816034526fa9059cbb0000000000000000000000005f5260205f604460105f886207a120f13d1560015f5114171690505f6034529392505050565b7ff0c57e16840df040f15088dc2f81fe391c3923bec73e23a9662efc9c229c6a005468010000000000000000900460ff16610fa2576040517fd7e6bcf800000000000000000000000000000000000000000000000000000000815260040160405180910390fd5b6141436140d4565b7fcd5ed15c6e187e77e9aee88184c21f4f2182ab5827cb3b7e07fbedcd63f0330080547fffffffffffffffffffffffffffffffffffffffffffffffffffffffffffffff00169055565b61291d6140d4565b805f036141c4576141c47f359f174d000000000000000000000000000000000000000000000000000000006126a6565b60078190556040518181527ffb46ca5a5e06d4540d6387b930a7c978bce0db5f449ec6b3f5d07c6e1d44f2d3906020016111f7565b73ffffffffffffffffffffffffffffffffffffffff81168114610e8d575f80fd5b5f6020828403121561422a575f80fd5b8135610b02816141f9565b5f805f60608486031215614247575f80fd5b8335614252816141f9565b9250602084013591506040840135614269816141f9565b809150509250925092565b5f60208284031215614284575f80fd5b5035919050565b5f806040838503121561429c575f80fd5b82356142a7816141f9565b946020939093013593505050565b5f602082840312156142c5575f80fd5b813560ff81168114610b02575f80fd5b5f80604083850312156142e6575f80fd5b82356142f1816141f9565b91506020830135614301816141f9565b809150509250929050565b5f805f6060848603121561431e575f80fd5b8335614329816141f9565b95602085013595506040909401359392505050565b602080825282518282018190525f918401906040840190835b8181101561438b57835173ffffffffffffffffffffffffffffffffffffffff16835260209384019390920191600101614357565b509095945050505050565b5f805f604084860312156143a8575f80fd5b833567ffffffffffffffff8111156143be575f80fd5b8401601f810186136143ce575f80fd5b803567ffffffffffffffff8111156143e4575f80fd5b8660208284010111156143f5575f80fd5b6020918201979096509401359392505050565b5f805f6060848603121561441a575f80fd5b8335614425816141f9565b92506020840135614435816141f9565b929592945050506040919091013590565b5f805f8060808587031215614459575f80fd5b8435614464816141f9565b93506020850135614474816141f9565b92506040850135614484816141f9565b91506060850135614494816141f9565b939692955090935050565b7f4e487b71000000000000000000000000000000000000000000000000000000005f52601160045260245ffd5b808201808211156115585761155861449f565b5f602082840312156144ef575f80fd5b81518015158114610b02575f80fd5b5f6020828403121561450e575f80fd5b5051919050565b818103818111156115585761155861449f565b80820281158282048414176115585761155861449f565b81835281816020850137505f602082840101525f60207fffffffffffffffffffffffffffffffffffffffffffffffffffffffffffffffe0601f840116840101905092915050565b602081525f61459960208301848661453f565b949350505050565b5f602082840312156145b1575f80fd5b8151610b02816141f9565b7f4e487b71000000000000000000000000000000000000000000000000000000005f52603260045260245ffd5b604081525f6145fc60408301858761453f565b9050826020830152949350505050565b818382375f9101908152919050565b5f82518060208501845e5f920191825250919050565b606081525f61464460608301868861453f565b73ffffffffffffffffffffffffffffffffffffffff949094166020830152506040015292915050565b7f4e487b71000000000000000000000000000000000000000000000000000000005f52603160045260245ffd5b5f826146cd577f4e487b71000000000000000000000000000000000000000000000000000000005f52601260045260245ffd5b50049056fea164736f6c634300081a000a","linkReferences":{}},"methodIdentifiers":{"MAX_REWARD_DURATION()":"3f4520f5","MIN_REWARD_DURATION()":"5cc27d6f","accountIncentives(address,uint256)":"5820bee0","addIncentive(address,uint256,uint256)":"b42f60db","balanceOf(address)":"70a08231","beaconDepositContract()":"eafe0f4c","delegateStake(address,uint256)":"3c323a1b","delegateWithdraw(address,uint256)":"5281244f","distributor()":"bfe10928","earned(address)":"008cc262","exit(address)":"b42652e9","factory()":"c45a0155","getDelegateStake(address,address)":"8f650f9c","getPartialReward(address,address,uint256)":"e753cbcc","getReward(address,address)":"6b091695","getRewardForDuration()":"1c1f78eb","getTotalDelegateStaked(address)":"a4dbda3c","getWhitelistedTokens()":"e26f7900","getWhitelistedTokensCount()":"9cd3f384","incentives(address)":"774e900b","initialize(address,address,address,address)":"f8c8765e","isFactoryOwner(address)":"433e8e41","isFactoryVaultManager(address)":"cfbde346","isFactoryVaultPauser(address)":"078f7fd3","lastTimeRewardApplicable()":"80faa57d","lastUpdateTime()":"c8f33c91","maxIncentiveTokensCount()":"67df5e01","minRewardDurationForTargetRate()":"e0f4222e","notifyRewardAmount(bytes,uint256)":"e434eee0","operator(address)":"9a307391","pause()":"8456cb59","paused()":"5c975abb","pendingRewardsDuration()":"555300cf","periodFinish()":"ebe2b12b","recoverERC20(address,uint256)":"8980f11f","removeIncentiveToken(address)":"e7d379a9","rewardPerToken()":"cd3daf9d","rewardPerTokenStored()":"df136d65","rewardRate()":"7b0a47ee","rewardToken()":"f7c618c1","rewardVaultManager()":"783c1a63","rewards(address)":"0700037d","rewardsDuration()":"386a9525","setDistributor(address)":"75619ab5","setMaxIncentiveTokensCount(uint8)":"54659b94","setMinRewardDurationForTargetRate(uint256)":"18bfa616","setOperator(address)":"b3ab15fb","setRewardVaultManager(address)":"8002b1ba","setRewardsDuration(uint256)":"cc1a378f","setTargetRewardsPerSecond(uint256)":"73c16d5a","stake(uint256)":"a694fc3a","stakeOnBehalf(address,uint256)":"460b5ee2","stakeToken()":"51ed6a30","targetRewardsPerSecond()":"44aaa3d9","totalSupply()":"18160ddd","undistributedRewards()":"319ce2bb","unpause()":"3f4ba83a","updateIncentiveManager(address,address)":"8eb3f35c","userRewardPerTokenPaid(address)":"8b876347","whitelistIncentiveToken(address,uint256,address)":"16649618","whitelistedTokens(uint256)":"2154bc44","withdraw(uint256)":"2e1a7d4d"},"storageLayout":{"storage":[{"astId":93632,"contract":"src/pol/rewards/RewardVault.sol:RewardVault","label":"stakeToken","offset":0,"slot":"0","type":"t_contract(IERC20)74082"},{"astId":93636,"contract":"src/pol/rewards/RewardVault.sol:RewardVault","label":"rewardToken","offset":0,"slot":"1","type":"t_contract(IERC20)74082"},{"astId":93639,"contract":"src/pol/rewards/RewardVault.sol:RewardVault","label":"rewardRate","offset":0,"slot":"2","type":"t_uint256"},{"astId":93642,"contract":"src/pol/rewards/RewardVault.sol:RewardVault","label":"undistributedRewards","offset":0,"slot":"3","type":"t_uint256"},{"astId":93645,"contract":"src/pol/rewards/RewardVault.sol:RewardVault","label":"rewardPerTokenStored","offset":0,"slot":"4","type":"t_uint256"},{"astId":93648,"contract":"src/pol/rewards/RewardVault.sol:RewardVault","label":"totalSupply","offset":0,"slot":"5","type":"t_uint256"},{"astId":93651,"contract":"src/pol/rewards/RewardVault.sol:RewardVault","label":"periodFinish","offset":0,"slot":"6","type":"t_uint256"},{"astId":93654,"contract":"src/pol/rewards/RewardVault.sol:RewardVault","label":"rewardsDuration","offset":0,"slot":"7","type":"t_uint256"},{"astId":93657,"contract":"src/pol/rewards/RewardVault.sol:RewardVault","label":"lastUpdateTime","offset":0,"slot":"8","type":"t_uint256"},{"astId":93663,"contract":"src/pol/rewards/RewardVault.sol:RewardVault","label":"_accountInfo","offset":0,"slot":"9","type":"t_mapping(t_address,t_struct(Info)93625_storage)"},{"astId":93668,"contract":"src/pol/rewards/RewardVault.sol:RewardVault","label":"__gap","offset":0,"slot":"10","type":"t_array(t_uint256)50_storage"},{"astId":136510,"contract":"src/pol/rewards/RewardVault.sol:RewardVault","label":"maxIncentiveTokensCount","offset":0,"slot":"60","type":"t_uint8"},{"astId":136513,"contract":"src/pol/rewards/RewardVault.sol:RewardVault","label":"distributor","offset":1,"slot":"60","type":"t_address"},{"astId":136517,"contract":"src/pol/rewards/RewardVault.sol:RewardVault","label":"beaconDepositContract","offset":0,"slot":"61","type":"t_contract(IBeaconDeposit)132381"},{"astId":136522,"contract":"src/pol/rewards/RewardVault.sol:RewardVault","label":"_delegateStake","offset":0,"slot":"62","type":"t_mapping(t_address,t_struct(DelegateStake)136483_storage)"},{"astId":136527,"contract":"src/pol/rewards/RewardVault.sol:RewardVault","label":"_operators","offset":0,"slot":"63","type":"t_mapping(t_address,t_address)"},{"astId":136533,"contract":"src/pol/rewards/RewardVault.sol:RewardVault","label":"incentives","offset":0,"slot":"64","type":"t_mapping(t_address,t_struct(Incentive)136493_storage)"},{"astId":136537,"contract":"src/pol/rewards/RewardVault.sol:RewardVault","label":"whitelistedTokens","offset":0,"slot":"65","type":"t_array(t_address)dyn_storage"},{"astId":136540,"contract":"src/pol/rewards/RewardVault.sol:RewardVault","label":"rewardVaultManager","offset":0,"slot":"66","type":"t_address"},{"astId":136542,"contract":"src/pol/rewards/RewardVault.sol:RewardVault","label":"_lastRewardDurationChangeTimestamp","offset":0,"slot":"67","type":"t_uint256"},{"astId":136545,"contract":"src/pol/rewards/RewardVault.sol:RewardVault","label":"targetRewardsPerSecond","offset":0,"slot":"68","type":"t_uint256"},{"astId":136548,"contract":"src/pol/rewards/RewardVault.sol:RewardVault","label":"pendingRewardsDuration","offset":0,"slot":"69","type":"t_uint256"},{"astId":136551,"contract":"src/pol/rewards/RewardVault.sol:RewardVault","label":"minRewardDurationForTargetRate","offset":0,"slot":"70","type":"t_uint256"}],"types":{"t_address":{"encoding":"inplace","label":"address","numberOfBytes":"20"},"t_array(t_address)dyn_storage":{"encoding":"dynamic_array","label":"address[]","numberOfBytes":"32","base":"t_address"},"t_array(t_uint256)50_storage":{"encoding":"inplace","label":"uint256[50]","numberOfBytes":"1600","base":"t_uint256"},"t_contract(IBeaconDeposit)132381":{"encoding":"inplace","label":"contract IBeaconDeposit","numberOfBytes":"20"},"t_contract(IERC20)74082":{"encoding":"inplace","label":"contract IERC20","numberOfBytes":"20"},"t_mapping(t_address,t_address)":{"encoding":"mapping","key":"t_address","label":"mapping(address => address)","numberOfBytes":"32","value":"t_address"},"t_mapping(t_address,t_struct(DelegateStake)136483_storage)":{"encoding":"mapping","key":"t_address","label":"mapping(address => struct RewardVault.DelegateStake)","numberOfBytes":"32","value":"t_struct(DelegateStake)136483_storage"},"t_mapping(t_address,t_struct(Incentive)136493_storage)":{"encoding":"mapping","key":"t_address","label":"mapping(address => struct RewardVault.Incentive)","numberOfBytes":"32","value":"t_struct(Incentive)136493_storage"},"t_mapping(t_address,t_struct(Info)93625_storage)":{"encoding":"mapping","key":"t_address","label":"mapping(address => struct StakingRewards.Info)","numberOfBytes":"32","value":"t_struct(Info)93625_storage"},"t_mapping(t_address,t_uint256)":{"encoding":"mapping","key":"t_address","label":"mapping(address => uint256)","numberOfBytes":"32","value":"t_uint256"},"t_struct(DelegateStake)136483_storage":{"encoding":"inplace","label":"struct RewardVault.DelegateStake","numberOfBytes":"64","members":[{"astId":136478,"contract":"src/pol/rewards/RewardVault.sol:RewardVault","label":"delegateTotalStaked","offset":0,"slot":"0","type":"t_uint256"},{"astId":136482,"contract":"src/pol/rewards/RewardVault.sol:RewardVault","label":"stakedByDelegate","offset":0,"slot":"1","type":"t_mapping(t_address,t_uint256)"}]},"t_struct(Incentive)136493_storage":{"encoding":"inplace","label":"struct RewardVault.Incentive","numberOfBytes":"128","members":[{"astId":136486,"contract":"src/pol/rewards/RewardVault.sol:RewardVault","label":"minIncentiveRate","offset":0,"slot":"0","type":"t_uint256"},{"astId":136488,"contract":"src/pol/rewards/RewardVault.sol:RewardVault","label":"incentiveRate","offset":0,"slot":"1","type":"t_uint256"},{"astId":136490,"contract":"src/pol/rewards/RewardVault.sol:RewardVault","label":"amountRemaining","offset":0,"slot":"2","type":"t_uint256"},{"astId":136492,"contract":"src/pol/rewards/RewardVault.sol:RewardVault","label":"manager","offset":0,"slot":"3","type":"t_address"}]},"t_struct(Info)93625_storage":{"encoding":"inplace","label":"struct StakingRewards.Info","numberOfBytes":"96","members":[{"astId":93620,"contract":"src/pol/rewards/RewardVault.sol:RewardVault","label":"balance","offset":0,"slot":"0","type":"t_uint256"},{"astId":93622,"contract":"src/pol/rewards/RewardVault.sol:RewardVault","label":"unclaimedReward","offset":0,"slot":"1","type":"t_uint256"},{"astId":93624,"contract":"src/pol/rewards/RewardVault.sol:RewardVault","label":"rewardsPerTokenPaid","offset":0,"slot":"2","type":"t_uint256"}]},"t_uint256":{"encoding":"inplace","label":"uint256","numberOfBytes":"32"},"t_uint8":{"encoding":"inplace","label":"uint8","numberOfBytes":"1"}}},"id":290}