{"abi":[{"type":"constructor","inputs":[],"stateMutability":"nonpayable"},{"type":"function","name":"DEFAULT_ADMIN_ROLE","inputs":[],"outputs":[{"name":"","type":"bytes32","internalType":"bytes32"}],"stateMutability":"view"},{"type":"function","name":"UPGRADE_INTERFACE_VERSION","inputs":[],"outputs":[{"name":"","type":"string","internalType":"string"}],"stateMutability":"view"},{"type":"function","name":"VAULT_MANAGER_ROLE","inputs":[],"outputs":[{"name":"","type":"bytes32","internalType":"bytes32"}],"stateMutability":"view"},{"type":"function","name":"VAULT_PAUSER_ROLE","inputs":[],"outputs":[{"name":"","type":"bytes32","internalType":"bytes32"}],"stateMutability":"view"},{"type":"function","name":"allVaults","inputs":[{"name":"","type":"uint256","internalType":"uint256"}],"outputs":[{"name":"","type":"address","internalType":"address"}],"stateMutability":"view"},{"type":"function","name":"allVaultsLength","inputs":[],"outputs":[{"name":"","type":"uint256","internalType":"uint256"}],"stateMutability":"view"},{"type":"function","name":"beacon","inputs":[],"outputs":[{"name":"","type":"address","internalType":"address"}],"stateMutability":"view"},{"type":"function","name":"beaconDepositContract","inputs":[],"outputs":[{"name":"","type":"address","internalType":"address"}],"stateMutability":"view"},{"type":"function","name":"bgt","inputs":[],"outputs":[{"name":"","type":"address","internalType":"address"}],"stateMutability":"view"},{"type":"function","name":"bgtIncentiveDistributor","inputs":[],"outputs":[{"name":"","type":"address","internalType":"address"}],"stateMutability":"view"},{"type":"function","name":"bgtIncentiveFeeCollector","inputs":[],"outputs":[{"name":"","type":"address","internalType":"address"}],"stateMutability":"view"},{"type":"function","name":"bgtIncentiveFeeRate","inputs":[],"outputs":[{"name":"","type":"uint256","internalType":"uint256"}],"stateMutability":"view"},{"type":"function","name":"createRewardVault","inputs":[{"name":"stakingToken","type":"address","internalType":"address"}],"outputs":[{"name":"","type":"address","internalType":"address"}],"stateMutability":"nonpayable"},{"type":"function","name":"distributor","inputs":[],"outputs":[{"name":"","type":"address","internalType":"address"}],"stateMutability":"view"},{"type":"function","name":"getIncentiveFeeAmount","inputs":[{"name":"incentiveAmount","type":"uint256","internalType":"uint256"}],"outputs":[{"name":"","type":"uint256","internalType":"uint256"}],"stateMutability":"view"},{"type":"function","name":"getRoleAdmin","inputs":[{"name":"role","type":"bytes32","internalType":"bytes32"}],"outputs":[{"name":"","type":"bytes32","internalType":"bytes32"}],"stateMutability":"view"},{"type":"function","name":"getVault","inputs":[{"name":"stakingToken","type":"address","internalType":"address"}],"outputs":[{"name":"vault","type":"address","internalType":"address"}],"stateMutability":"view"},{"type":"function","name":"grantRole","inputs":[{"name":"role","type":"bytes32","internalType":"bytes32"},{"name":"account","type":"address","internalType":"address"}],"outputs":[],"stateMutability":"nonpayable"},{"type":"function","name":"hasRole","inputs":[{"name":"role","type":"bytes32","internalType":"bytes32"},{"name":"account","type":"address","internalType":"address"}],"outputs":[{"name":"","type":"bool","internalType":"bool"}],"stateMutability":"view"},{"type":"function","name":"initialize","inputs":[{"name":"_bgt","type":"address","internalType":"address"},{"name":"_distributor","type":"address","internalType":"address"},{"name":"_beaconDepositContract","type":"address","internalType":"address"},{"name":"_governance","type":"address","internalType":"address"},{"name":"_vaultImpl","type":"address","internalType":"address"}],"outputs":[],"stateMutability":"nonpayable"},{"type":"function","name":"predictRewardVaultAddress","inputs":[{"name":"stakingToken","type":"address","internalType":"address"}],"outputs":[{"name":"","type":"address","internalType":"address"}],"stateMutability":"view"},{"type":"function","name":"proxiableUUID","inputs":[],"outputs":[{"name":"","type":"bytes32","internalType":"bytes32"}],"stateMutability":"view"},{"type":"function","name":"renounceRole","inputs":[{"name":"role","type":"bytes32","internalType":"bytes32"},{"name":"callerConfirmation","type":"address","internalType":"address"}],"outputs":[],"stateMutability":"nonpayable"},{"type":"function","name":"revokeRole","inputs":[{"name":"role","type":"bytes32","internalType":"bytes32"},{"name":"account","type":"address","internalType":"address"}],"outputs":[],"stateMutability":"nonpayable"},{"type":"function","name":"setBGTIncentiveDistributor","inputs":[{"name":"_bgtIncentiveDistributor","type":"address","internalType":"address"}],"outputs":[],"stateMutability":"nonpayable"},{"type":"function","name":"setBGTIncentiveFeeCollector","inputs":[{"name":"_bgtIncentiveFeeCollector","type":"address","internalType":"address"}],"outputs":[],"stateMutability":"nonpayable"},{"type":"function","name":"setBGTIncentiveFeeRate","inputs":[{"name":"_bgtIncentiveFeeRate","type":"uint256","internalType":"uint256"}],"outputs":[],"stateMutability":"nonpayable"},{"type":"function","name":"supportsInterface","inputs":[{"name":"interfaceId","type":"bytes4","internalType":"bytes4"}],"outputs":[{"name":"","type":"bool","internalType":"bool"}],"stateMutability":"view"},{"type":"function","name":"upgradeToAndCall","inputs":[{"name":"newImplementation","type":"address","internalType":"address"},{"name":"data","type":"bytes","internalType":"bytes"}],"outputs":[],"stateMutability":"payable"},{"type":"event","name":"BGTIncentiveDistributorSet","inputs":[{"name":"newBGTIncentiveDistributor","type":"address","indexed":true,"internalType":"address"},{"name":"oldBGTIncentiveDistributor","type":"address","indexed":true,"internalType":"address"}],"anonymous":false},{"type":"event","name":"IncentiveFeeCollectorUpdated","inputs":[{"name":"newAddress","type":"address","indexed":false,"internalType":"address"},{"name":"oldAddress","type":"address","indexed":false,"internalType":"address"}],"anonymous":false},{"type":"event","name":"IncentiveFeeRateUpdated","inputs":[{"name":"newValue","type":"uint256","indexed":false,"internalType":"uint256"},{"name":"oldValue","type":"uint256","indexed":false,"internalType":"uint256"}],"anonymous":false},{"type":"event","name":"Initialized","inputs":[{"name":"version","type":"uint64","indexed":false,"internalType":"uint64"}],"anonymous":false},{"type":"event","name":"RoleAdminChanged","inputs":[{"name":"role","type":"bytes32","indexed":true,"internalType":"bytes32"},{"name":"previousAdminRole","type":"bytes32","indexed":true,"internalType":"bytes32"},{"name":"newAdminRole","type":"bytes32","indexed":true,"internalType":"bytes32"}],"anonymous":false},{"type":"event","name":"RoleGranted","inputs":[{"name":"role","type":"bytes32","indexed":true,"internalType":"bytes32"},{"name":"account","type":"address","indexed":true,"internalType":"address"},{"name":"sender","type":"address","indexed":true,"internalType":"address"}],"anonymous":false},{"type":"event","name":"RoleRevoked","inputs":[{"name":"role","type":"bytes32","indexed":true,"internalType":"bytes32"},{"name":"account","type":"address","indexed":true,"internalType":"address"},{"name":"sender","type":"address","indexed":true,"internalType":"address"}],"anonymous":false},{"type":"event","name":"Upgraded","inputs":[{"name":"implementation","type":"address","indexed":true,"internalType":"address"}],"anonymous":false},{"type":"event","name":"VaultCreated","inputs":[{"name":"stakingToken","type":"address","indexed":true,"internalType":"address"},{"name":"vault","type":"address","indexed":true,"internalType":"address"}],"anonymous":false},{"type":"error","name":"AccessControlBadConfirmation","inputs":[]},{"type":"error","name":"AccessControlUnauthorizedAccount","inputs":[{"name":"account","type":"address","internalType":"address"},{"name":"neededRole","type":"bytes32","internalType":"bytes32"}]},{"type":"error","name":"AddressEmptyCode","inputs":[{"name":"target","type":"address","internalType":"address"}]},{"type":"error","name":"AmountGreaterThanReward","inputs":[]},{"type":"error","name":"AmountLessThanMinIncentiveRate","inputs":[]},{"type":"error","name":"CannotRecoverIncentiveToken","inputs":[]},{"type":"error","name":"CannotRecoverRewardToken","inputs":[]},{"type":"error","name":"CannotRecoverStakingToken","inputs":[]},{"type":"error","name":"CommissionChangeAlreadyQueued","inputs":[]},{"type":"error","name":"CommissionNotQueuedOrDelayNotPassed","inputs":[]},{"type":"error","name":"DepositNotMultipleOfGwei","inputs":[]},{"type":"error","name":"DepositValueTooHigh","inputs":[]},{"type":"error","name":"DonateAmountLessThanPayoutAmount","inputs":[]},{"type":"error","name":"DuplicateReceiver","inputs":[{"name":"receiver","type":"address","internalType":"address"}]},{"type":"error","name":"DurationChangeNotAllowed","inputs":[]},{"type":"error","name":"ERC1967InvalidImplementation","inputs":[{"name":"implementation","type":"address","internalType":"address"}]},{"type":"error","name":"ERC1967NonPayable","inputs":[]},{"type":"error","name":"FailedCall","inputs":[]},{"type":"error","name":"IncentiveRateTooHigh","inputs":[]},{"type":"error","name":"IndexOutOfRange","inputs":[]},{"type":"error","name":"InsolventReward","inputs":[]},{"type":"error","name":"InsufficientDelegateStake","inputs":[]},{"type":"error","name":"InsufficientDeposit","inputs":[]},{"type":"error","name":"InsufficientIncentiveTokens","inputs":[]},{"type":"error","name":"InsufficientNativeValue","inputs":[]},{"type":"error","name":"InsufficientSelfStake","inputs":[]},{"type":"error","name":"InsufficientStake","inputs":[]},{"type":"error","name":"InvalidActivateBoostDelay","inputs":[]},{"type":"error","name":"InvalidArray","inputs":[]},{"type":"error","name":"InvalidBaseRate","inputs":[]},{"type":"error","name":"InvalidBoostMultiplier","inputs":[]},{"type":"error","name":"InvalidCommissionChangeDelay","inputs":[]},{"type":"error","name":"InvalidCommissionValue","inputs":[]},{"type":"error","name":"InvalidCredentialsLength","inputs":[]},{"type":"error","name":"InvalidDistribution","inputs":[]},{"type":"error","name":"InvalidDropBoostDelay","inputs":[]},{"type":"error","name":"InvalidIncentiveFeeRate","inputs":[]},{"type":"error","name":"InvalidIncentiveRate","inputs":[]},{"type":"error","name":"InvalidInitialization","inputs":[]},{"type":"error","name":"InvalidMaxIncentiveTokensCount","inputs":[]},{"type":"error","name":"InvalidMaxWeightPerVault","inputs":[]},{"type":"error","name":"InvalidMerkleRoot","inputs":[]},{"type":"error","name":"InvalidMinBoostedRewardRate","inputs":[]},{"type":"error","name":"InvalidProof","inputs":[]},{"type":"error","name":"InvalidPubKeyLength","inputs":[]},{"type":"error","name":"InvalidRewardAllocationWeights","inputs":[]},{"type":"error","name":"InvalidRewardClaimDelay","inputs":[]},{"type":"error","name":"InvalidRewardConvexity","inputs":[]},{"type":"error","name":"InvalidRewardDuration","inputs":[]},{"type":"error","name":"InvalidRewardRate","inputs":[]},{"type":"error","name":"InvalidSignatureLength","inputs":[]},{"type":"error","name":"InvalidStartBlock","inputs":[]},{"type":"error","name":"InvalidToken","inputs":[]},{"type":"error","name":"InvalidWeight","inputs":[]},{"type":"error","name":"InvalidateDefaultRewardAllocation","inputs":[]},{"type":"error","name":"InvariantCheckFailed","inputs":[]},{"type":"error","name":"MaxNumWeightsPerRewardAllocationIsZero","inputs":[]},{"type":"error","name":"MinIncentiveRateIsZero","inputs":[]},{"type":"error","name":"NotAContract","inputs":[]},{"type":"error","name":"NotApprovedSender","inputs":[]},{"type":"error","name":"NotBGT","inputs":[]},{"type":"error","name":"NotBlockRewardController","inputs":[]},{"type":"error","name":"NotDelegate","inputs":[]},{"type":"error","name":"NotDistributor","inputs":[]},{"type":"error","name":"NotEnoughBalance","inputs":[]},{"type":"error","name":"NotEnoughBoostedBalance","inputs":[]},{"type":"error","name":"NotEnoughTime","inputs":[]},{"type":"error","name":"NotFactoryVault","inputs":[]},{"type":"error","name":"NotFeeCollector","inputs":[]},{"type":"error","name":"NotIncentiveManager","inputs":[]},{"type":"error","name":"NotInitializing","inputs":[]},{"type":"error","name":"NotNewOperator","inputs":[]},{"type":"error","name":"NotOperator","inputs":[]},{"type":"error","name":"NotRewardDurationManager","inputs":[]},{"type":"error","name":"NotRewardVaultManager","inputs":[]},{"type":"error","name":"NotWhitelistedVault","inputs":[]},{"type":"error","name":"OperatorAlreadySet","inputs":[]},{"type":"error","name":"PayoutAmountIsZero","inputs":[]},{"type":"error","name":"RewardAllocationAlreadyQueued","inputs":[]},{"type":"error","name":"RewardAllocationBlockDelayTooLarge","inputs":[]},{"type":"error","name":"RewardCycleNotEnded","inputs":[]},{"type":"error","name":"RewardDurationCoolDownPeriodNotPassed","inputs":[]},{"type":"error","name":"RewardInactive","inputs":[]},{"type":"error","name":"RewardsDurationIsZero","inputs":[]},{"type":"error","name":"StakeAmountIsZero","inputs":[]},{"type":"error","name":"TimestampAlreadyProcessed","inputs":[]},{"type":"error","name":"TokenAlreadyWhitelistedOrLimitReached","inputs":[]},{"type":"error","name":"TokenNotWhitelisted","inputs":[]},{"type":"error","name":"TooManyWeights","inputs":[]},{"type":"error","name":"TotalSupplyOverflow","inputs":[]},{"type":"error","name":"UUPSUnauthorizedCallContext","inputs":[]},{"type":"error","name":"UUPSUnsupportedProxiableUUID","inputs":[{"name":"slot","type":"bytes32","internalType":"bytes32"}]},{"type":"error","name":"UnauthorizedETHTransfer","inputs":[]},{"type":"error","name":"WithdrawAmountIsZero","inputs":[]},{"type":"error","name":"WithdrawalAlreadyRequested","inputs":[]},{"type":"error","name":"WithdrawalNotReady","inputs":[]},{"type":"error","name":"WithdrawalNotRequested","inputs":[]},{"type":"error","name":"ZeroAddress","inputs":[]},{"type":"error","name":"ZeroOperatorOnFirstDeposit","inputs":[]},{"type":"error","name":"ZeroPercentageWeight","inputs":[]}],"bytecode":{"object":"0x60a060405230608052348015610013575f80fd5b5061001c610021565b6100d3565b7ff0c57e16840df040f15088dc2f81fe391c3923bec73e23a9662efc9c229c6a00805468010000000000000000900460ff16156100715760405163f92ee8a960e01b815260040160405180910390fd5b80546001600160401b03908116146100d05780546001600160401b0319166001600160401b0390811782556040519081527fc7f505b2f371ae2175ee4913f4499e1f2633a7b5936321eed1cdaeb6115181d29060200160405180910390a15b50565b6080516121d56100f95f395f81816112e30152818161130c015261152f01526121d55ff3fe6080604052600436106101ba575f3560e01c806352d1902d116100f257806391d1485411610092578063bfe1092811610062578063bfe10928146105f5578063c209bca214610621578063d547741f14610654578063eafe0f4c14610673575f80fd5b806391d14854146104f15780639a6c31c414610561578063a217fddf1461058d578063ad3cb1cc146105a0575f80fd5b80635b3b9a18116100cd5780635b3b9a18146104545780635e5a24a4146104735780636cb9f230146104a65780639094a91e146104d2575f80fd5b806352d1902d146103f6578063577ee5c71461040a57806359659e9014610429575f80fd5b8063349de3291161015d5780634cd18577116101385780634cd18577146103845780634f1ef28614610398578063506a0267146103ab578063525105c2146103ca575f80fd5b8063349de3291461032757806334f600e71461034657806336568abe14610365575f80fd5b80631459457a116101985780631459457a1461027b5780631eef146e1461029c578063248a9ca3146102bb5780632f2ff15d14610308575f80fd5b806301ffc9a7146101be5780630d52c004146101f25780630eb9af3814610215575b5f80fd5b3480156101c9575f80fd5b506101dd6101d8366004611b08565b61069f565b60405190151581526020015b60405180910390f35b3480156101fd575f80fd5b5061020760075481565b6040519081526020016101e9565b348015610220575f80fd5b5061025661022f366004611b6f565b60046020525f908152604090205473ffffffffffffffffffffffffffffffffffffffff1681565b60405173ffffffffffffffffffffffffffffffffffffffff90911681526020016101e9565b348015610286575f80fd5b5061029a610295366004611b88565b610737565b005b3480156102a7575f80fd5b5061029a6102b6366004611be9565b610a09565b3480156102c6575f80fd5b506102076102d5366004611be9565b5f9081527f02dd7bc7dec4dceedda775e58dd541e08a116c6c53815c0bd028192f7b626800602052604090206001015490565b348015610313575f80fd5b5061029a610322366004611c00565b610a89565b348015610332575f80fd5b5061029a610341366004611b6f565b610ad2565b348015610351575f80fd5b50610207610360366004611be9565b610baf565b348015610370575f80fd5b5061029a61037f366004611c00565b610bcb565b34801561038f575f80fd5b50600554610207565b61029a6103a6366004611c57565b610c29565b3480156103b6575f80fd5b5061029a6103c5366004611b6f565b610c48565b3480156103d5575f80fd5b506008546102569073ffffffffffffffffffffffffffffffffffffffff1681565b348015610401575f80fd5b50610207610d32565b348015610415575f80fd5b50610256610424366004611b6f565b610d60565b348015610434575f80fd5b505f546102569073ffffffffffffffffffffffffffffffffffffffff1681565b34801561045f575f80fd5b5061025661046e366004611b6f565b610f67565b34801561047e575f80fd5b506102077fd1473398bb66596de5d1ea1fc8e303ff2ac23265adc9144b1b52065dc4f0934b81565b3480156104b1575f80fd5b506006546102569073ffffffffffffffffffffffffffffffffffffffff1681565b3480156104dd575f80fd5b506102566104ec366004611be9565b610f99565b3480156104fc575f80fd5b506101dd61050b366004611c00565b5f9182527f02dd7bc7dec4dceedda775e58dd541e08a116c6c53815c0bd028192f7b6268006020908152604080842073ffffffffffffffffffffffffffffffffffffffff93909316845291905290205460ff1690565b34801561056c575f80fd5b506001546102569073ffffffffffffffffffffffffffffffffffffffff1681565b348015610598575f80fd5b506102075f81565b3480156105ab575f80fd5b506105e86040518060400160405280600581526020017f352e302e3000000000000000000000000000000000000000000000000000000081525081565b6040516101e99190611d58565b348015610600575f80fd5b506002546102569073ffffffffffffffffffffffffffffffffffffffff1681565b34801561062c575f80fd5b506102077f0b265ba7b18bf719914a9314c2cc6df88826c97fd1060e2bce9f59cf47fe4ba181565b34801561065f575f80fd5b5061029a61066e366004611c00565b610fce565b34801561067e575f80fd5b506003546102569073ffffffffffffffffffffffffffffffffffffffff1681565b5f7fffffffff0000000000000000000000000000000000000000000000000000000082167f7965db0b00000000000000000000000000000000000000000000000000000000148061073157507f01ffc9a7000000000000000000000000000000000000000000000000000000007fffffffff000000000000000000000000000000000000000000000000000000008316145b92915050565b7ff0c57e16840df040f15088dc2f81fe391c3923bec73e23a9662efc9c229c6a00805468010000000000000000810460ff16159067ffffffffffffffff165f811580156107815750825b90505f8267ffffffffffffffff16600114801561079d5750303b155b9050811580156107ab575080155b156107e2576040517ff92ee8a900000000000000000000000000000000000000000000000000000000815260040160405180910390fd5b84547fffffffffffffffffffffffffffffffffffffffffffffffff000000000000000016600117855583156108435784547fffffffffffffffffffffffffffffffffffffffffffffff00ffffffffffffffff16680100000000000000001785555b61084b611011565b610853611011565b61085d5f8861101b565b506108a87f0b265ba7b18bf719914a9314c2cc6df88826c97fd1060e2bce9f59cf47fe4ba17fd1473398bb66596de5d1ea1fc8e303ff2ac23265adc9144b1b52065dc4f0934b611139565b6001805473ffffffffffffffffffffffffffffffffffffffff808d167fffffffffffffffffffffffff000000000000000000000000000000000000000092831617909255600280548c841690831617905560038054928b16929091169190911790556040518790879061091a90611afb565b73ffffffffffffffffffffffffffffffffffffffff928316815291166020820152604001604051809103905ff080158015610957573d5f803e3d5ffd5b505f80547fffffffffffffffffffffffff00000000000000000000000000000000000000001673ffffffffffffffffffffffffffffffffffffffff9290921691909117905583156109fd5784547fffffffffffffffffffffffffffffffffffffffffffffff00ffffffffffffffff168555604051600181527fc7f505b2f371ae2175ee4913f4499e1f2633a7b5936321eed1cdaeb6115181d29060200160405180910390a15b50505050505050505050565b5f610a13816111da565b612710821115610a4657610a467f716e870e000000000000000000000000000000000000000000000000000000006111e7565b6007546040805184815260208101929092527f0aa55ccaa97f5399e1e9d6ca693388b2bfda9be9dc62379592fa83f3d4f60eee910160405180910390a150600755565b5f8281527f02dd7bc7dec4dceedda775e58dd541e08a116c6c53815c0bd028192f7b6268006020526040902060010154610ac2816111da565b610acc838361101b565b50505050565b5f610adc816111da565b73ffffffffffffffffffffffffffffffffffffffff8216610b2057610b207fd92e233d000000000000000000000000000000000000000000000000000000006111e7565b60065460405173ffffffffffffffffffffffffffffffffffffffff918216918416907f38bffcf8509d63333ad84013d433268a1d044bf5f68fdc7ffea76c73b737eda0905f90a350600680547fffffffffffffffffffffffff00000000000000000000000000000000000000001673ffffffffffffffffffffffffffffffffffffffff92909216919091179055565b5f61271060075483610bc19190611dab565b6107319190611de7565b73ffffffffffffffffffffffffffffffffffffffff81163314610c1a576040517f6697b23200000000000000000000000000000000000000000000000000000000815260040160405180910390fd5b610c2482826111ef565b505050565b610c316112cb565b610c3a826113cf565b610c4482826113d9565b5050565b5f610c52816111da565b73ffffffffffffffffffffffffffffffffffffffff8216610c9657610c967fd92e233d000000000000000000000000000000000000000000000000000000006111e7565b6008546040805173ffffffffffffffffffffffffffffffffffffffff808616825290921660208301527fa815320763539d2806261bd11a992d90ae5ac7ba9123ae4ddc534d5700799304910160405180910390a150600880547fffffffffffffffffffffffff00000000000000000000000000000000000000001673ffffffffffffffffffffffffffffffffffffffff92909216919091179055565b5f610d3b611517565b507f360894a13ba1a3210667c828492db98dca3e2076cc3735a920a3ca505d382bbc90565b73ffffffffffffffffffffffffffffffffffffffff8082165f908152600460205260408120549091168015610d955792915050565b8273ffffffffffffffffffffffffffffffffffffffff163b5f03610ddc57610ddc7f09ee12d5000000000000000000000000000000000000000000000000000000006111e7565b5f838152602081208154909190610e099073ffffffffffffffffffffffffffffffffffffffff1683611586565b73ffffffffffffffffffffffffffffffffffffffff8087165f8181526004602052604080822080549486167fffffffffffffffffffffffff00000000000000000000000000000000000000009586168117909155600580546001810182559084527f036b6384b5eca791c62761152d0c79bb0604c104a5fb6f4eb0703f3154bb3db0018054909516811790945551939450919290917f5d9c31ffa0fecffd7cf379989a3c7af252f0335e0d2a1320b55245912c781f5391a36003546001546002546040517ff8c8765e00000000000000000000000000000000000000000000000000000000815273ffffffffffffffffffffffffffffffffffffffff938416600482015291831660248301528216604482015286821660648201529082169063f8c8765e906084015f604051808303815f87803b158015610f48575f80fd5b505af1158015610f5a573d5f803e3d5ffd5b5092979650505050505050565b5f818152602081208154610f929073ffffffffffffffffffffffffffffffffffffffff168230611592565b9392505050565b60058181548110610fa8575f80fd5b5f9182526020909120015473ffffffffffffffffffffffffffffffffffffffff16905081565b5f8281527f02dd7bc7dec4dceedda775e58dd541e08a116c6c53815c0bd028192f7b6268006020526040902060010154611007816111da565b610acc83836111ef565b611019611655565b565b5f8281527f02dd7bc7dec4dceedda775e58dd541e08a116c6c53815c0bd028192f7b6268006020818152604080842073ffffffffffffffffffffffffffffffffffffffff8616855290915282205460ff16611130575f8481526020828152604080832073ffffffffffffffffffffffffffffffffffffffff87168452909152902080547fffffffffffffffffffffffffffffffffffffffffffffffffffffffffffffff001660011790556110cc3390565b73ffffffffffffffffffffffffffffffffffffffff168373ffffffffffffffffffffffffffffffffffffffff16857f2f8788117e7eff1d82e926ec794901d17c78024a50270940304540a733656f0d60405160405180910390a46001915050610731565b5f915050610731565b7f02dd7bc7dec4dceedda775e58dd541e08a116c6c53815c0bd028192f7b6268005f611192845f9081527f02dd7bc7dec4dceedda775e58dd541e08a116c6c53815c0bd028192f7b626800602052604090206001015490565b5f85815260208490526040808220600101869055519192508491839187917fbd79b86ffe0ab8e8776151514217cd7cacd52c909f66475c3af44e129f0b00ff9190a450505050565b6111e481336116bc565b50565b805f5260045ffd5b5f8281527f02dd7bc7dec4dceedda775e58dd541e08a116c6c53815c0bd028192f7b6268006020818152604080842073ffffffffffffffffffffffffffffffffffffffff8616855290915282205460ff1615611130575f8481526020828152604080832073ffffffffffffffffffffffffffffffffffffffff8716808552925280832080547fffffffffffffffffffffffffffffffffffffffffffffffffffffffffffffff0016905551339287917ff6391f5c32d9c69d2a47ea670b442974b53935d1edc7fd64eb21e047a839171b9190a46001915050610731565b3073ffffffffffffffffffffffffffffffffffffffff7f000000000000000000000000000000000000000000000000000000000000000016148061139857507f000000000000000000000000000000000000000000000000000000000000000073ffffffffffffffffffffffffffffffffffffffff1661137f7f360894a13ba1a3210667c828492db98dca3e2076cc3735a920a3ca505d382bbc5473ffffffffffffffffffffffffffffffffffffffff1690565b73ffffffffffffffffffffffffffffffffffffffff1614155b15611019576040517fe07c8dba00000000000000000000000000000000000000000000000000000000815260040160405180910390fd5b5f610c44816111da565b8173ffffffffffffffffffffffffffffffffffffffff166352d1902d6040518163ffffffff1660e01b8152600401602060405180830381865afa92505050801561145e575060408051601f3d9081017fffffffffffffffffffffffffffffffffffffffffffffffffffffffffffffffe016820190925261145b91810190611e1f565b60015b6114b1576040517f4c9c8ce300000000000000000000000000000000000000000000000000000000815273ffffffffffffffffffffffffffffffffffffffff831660048201526024015b60405180910390fd5b7f360894a13ba1a3210667c828492db98dca3e2076cc3735a920a3ca505d382bbc811461150d576040517faa1d49a4000000000000000000000000000000000000000000000000000000008152600481018290526024016114a8565b610c248383611762565b3073ffffffffffffffffffffffffffffffffffffffff7f00000000000000000000000000000000000000000000000000000000000000001614611019576040517fe07c8dba00000000000000000000000000000000000000000000000000000000815260040160405180910390fd5b5f610f925f84846117c4565b604080517fb3582b35133d50545afa5036515af43d6000803e604d573d6000fd5b3d6000f360609081527f1b60e01b36527fa3f0ad74e5423aebfd80d3ef4346578335a9a72aeaee59ff6c83527660195155f3363d3d373d3d363d602036600436635c60da60205273ffffffffffffffffffffffffffffffffffffffff86167c60523d8160223d39730000000000000000000000000000000000000000176009526074600c20919092525f9182905261164c81858561188f565b95945050505050565b7ff0c57e16840df040f15088dc2f81fe391c3923bec73e23a9662efc9c229c6a005468010000000000000000900460ff16611019576040517fd7e6bcf800000000000000000000000000000000000000000000000000000000815260040160405180910390fd5b5f8281527f02dd7bc7dec4dceedda775e58dd541e08a116c6c53815c0bd028192f7b6268006020908152604080832073ffffffffffffffffffffffffffffffffffffffff8516845290915290205460ff16610c44576040517fe2517d3f00000000000000000000000000000000000000000000000000000000815273ffffffffffffffffffffffffffffffffffffffff82166004820152602481018390526044016114a8565b61176b826118ae565b60405173ffffffffffffffffffffffffffffffffffffffff8316907fbc7cd75a20ee27fd9adebab32041f755214dbc6bffa90cc0225b39da2e5c2d3b905f90a28051156117bc57610c24828261197c565b610c446119f2565b604080517fb3582b35133d50545afa5036515af43d6000803e604d573d6000fd5b3d6000f36060527f1b60e01b36527fa3f0ad74e5423aebfd80d3ef4346578335a9a72aeaee59ff6c9091527660195155f3363d3d373d3d363d602036600436635c60da6020527c60523d8160223d3973000000000000000000000000000000000000000073ffffffffffffffffffffffffffffffffffffffff8416176009525f90826074600c87f59150816118815763301164255f526004601cfd5b6040525f6060529392505050565b5f60ff5f5350603592835260601b60015260155260555f908120915290565b8073ffffffffffffffffffffffffffffffffffffffff163b5f03611916576040517f4c9c8ce300000000000000000000000000000000000000000000000000000000815273ffffffffffffffffffffffffffffffffffffffff821660048201526024016114a8565b7f360894a13ba1a3210667c828492db98dca3e2076cc3735a920a3ca505d382bbc80547fffffffffffffffffffffffff00000000000000000000000000000000000000001673ffffffffffffffffffffffffffffffffffffffff92909216919091179055565b60605f808473ffffffffffffffffffffffffffffffffffffffff16846040516119a59190611e36565b5f60405180830381855af49150503d805f81146119dd576040519150601f19603f3d011682016040523d82523d5f602084013e6119e2565b606091505b509150915061164c858383611a2a565b3415611019576040517fb398979f00000000000000000000000000000000000000000000000000000000815260040160405180910390fd5b606082611a3f57611a3a82611ab9565b610f92565b8151158015611a63575073ffffffffffffffffffffffffffffffffffffffff84163b155b15611ab2576040517f9996b31500000000000000000000000000000000000000000000000000000000815273ffffffffffffffffffffffffffffffffffffffff851660048201526024016114a8565b5092915050565b805115611ac95780518082602001fd5b6040517fd6bda27500000000000000000000000000000000000000000000000000000000815260040160405180910390fd5b61037c80611e4d83390190565b5f60208284031215611b18575f80fd5b81357fffffffff0000000000000000000000000000000000000000000000000000000081168114610f92575f80fd5b803573ffffffffffffffffffffffffffffffffffffffff81168114611b6a575f80fd5b919050565b5f60208284031215611b7f575f80fd5b610f9282611b47565b5f805f805f60a08688031215611b9c575f80fd5b611ba586611b47565b9450611bb360208701611b47565b9350611bc160408701611b47565b9250611bcf60608701611b47565b9150611bdd60808701611b47565b90509295509295909350565b5f60208284031215611bf9575f80fd5b5035919050565b5f8060408385031215611c11575f80fd5b82359150611c2160208401611b47565b90509250929050565b7f4e487b71000000000000000000000000000000000000000000000000000000005f52604160045260245ffd5b5f8060408385031215611c68575f80fd5b611c7183611b47565b9150602083013567ffffffffffffffff811115611c8c575f80fd5b8301601f81018513611c9c575f80fd5b803567ffffffffffffffff811115611cb657611cb6611c2a565b6040517fffffffffffffffffffffffffffffffffffffffffffffffffffffffffffffffe0603f7fffffffffffffffffffffffffffffffffffffffffffffffffffffffffffffffe0601f8501160116810181811067ffffffffffffffff82111715611d2257611d22611c2a565b604052818152828201602001871015611d39575f80fd5b816020840160208301375f602083830101528093505050509250929050565b602081525f82518060208401528060208501604085015e5f6040828501015260407fffffffffffffffffffffffffffffffffffffffffffffffffffffffffffffffe0601f83011684010191505092915050565b8082028115828204841417610731577f4e487b71000000000000000000000000000000000000000000000000000000005f52601160045260245ffd5b5f82611e1a577f4e487b71000000000000000000000000000000000000000000000000000000005f52601260045260245ffd5b500490565b5f60208284031215611e2f575f80fd5b5051919050565b5f82518060208501845e5f92019182525091905056fe608060405260405161037c38038061037c83398101604081905261002291610108565b61002c8282610033565b5050610139565b61003d8282610041565b5050565b61004a82610053565b61003d8161009d565b8060601b60601c9050684343a0dc92ed22dbfc5481684343a0dc92ed22dbfc5581817f8be0079c531659141344cd1fd0a4f28419497f9722a3daafe3b4186f6b6457e05f38a35050565b6001600160a01b0316803b6100b957636d3e283b5f526004601cfd5b8068911c5a209f08d5ec5e55807fbc7cd75a20ee27fd9adebab32041f755214dbc6bffa90cc0225b39da2e5c2d3b5f38a250565b80516001600160a01b0381168114610103575f80fd5b919050565b5f8060408385031215610119575f80fd5b610122836100ed565b9150610130602084016100ed565b90509250929050565b610236806101465f395ff3fe608060405234801561000f575f80fd5b5060043610610064575f3560e01c8063715018a61161004d578063715018a6146100b25780638da5cb5b146100ba578063f2fde38b146100ca575f80fd5b80633659cfe6146100685780635c60da1b1461007d575b5f80fd5b61007b6100763660046101ef565b6100dd565b005b68911c5a209f08d5ec5e545b60405173ffffffffffffffffffffffffffffffffffffffff909116815260200160405180910390f35b61007b6100f1565b684343a0dc92ed22dbfc54610089565b61007b6100d83660046101ef565b610104565b6100e561012a565b6100ee81610148565b50565b6100f961012a565b6101025f6101a5565b565b61010c61012a565b8060601b61012157637448fbae5f526004601cfd5b6100ee816101a5565b684343a0dc92ed22dbfc543314610102576382b429005f526004601cfd5b73ffffffffffffffffffffffffffffffffffffffff16803b61017157636d3e283b5f526004601cfd5b8068911c5a209f08d5ec5e55807fbc7cd75a20ee27fd9adebab32041f755214dbc6bffa90cc0225b39da2e5c2d3b5f38a250565b8060601b60601c9050684343a0dc92ed22dbfc5481684343a0dc92ed22dbfc5581817f8be0079c531659141344cd1fd0a4f28419497f9722a3daafe3b4186f6b6457e05f38a35050565b5f602082840312156101ff575f80fd5b813573ffffffffffffffffffffffffffffffffffffffff81168114610222575f80fd5b939250505056fea164736f6c634300081a000aa164736f6c634300081a000a","linkReferences":{}},"methodIdentifiers":{"DEFAULT_ADMIN_ROLE()":"a217fddf","UPGRADE_INTERFACE_VERSION()":"ad3cb1cc","VAULT_MANAGER_ROLE()":"5e5a24a4","VAULT_PAUSER_ROLE()":"c209bca2","allVaults(uint256)":"9094a91e","allVaultsLength()":"4cd18577","beacon()":"59659e90","beaconDepositContract()":"eafe0f4c","bgt()":"9a6c31c4","bgtIncentiveDistributor()":"6cb9f230","bgtIncentiveFeeCollector()":"525105c2","bgtIncentiveFeeRate()":"0d52c004","createRewardVault(address)":"577ee5c7","distributor()":"bfe10928","getIncentiveFeeAmount(uint256)":"34f600e7","getRoleAdmin(bytes32)":"248a9ca3","getVault(address)":"0eb9af38","grantRole(bytes32,address)":"2f2ff15d","hasRole(bytes32,address)":"91d14854","initialize(address,address,address,address,address)":"1459457a","predictRewardVaultAddress(address)":"5b3b9a18","proxiableUUID()":"52d1902d","renounceRole(bytes32,address)":"36568abe","revokeRole(bytes32,address)":"d547741f","setBGTIncentiveDistributor(address)":"349de329","setBGTIncentiveFeeCollector(address)":"506a0267","setBGTIncentiveFeeRate(uint256)":"1eef146e","supportsInterface(bytes4)":"01ffc9a7","upgradeToAndCall(address,bytes)":"4f1ef286"},"storageLayout":{"storage":[{"astId":138493,"contract":"src/pol/rewards/RewardVaultFactory.sol:RewardVaultFactory","label":"beacon","offset":0,"slot":"0","type":"t_address"},{"astId":138496,"contract":"src/pol/rewards/RewardVaultFactory.sol:RewardVaultFactory","label":"bgt","offset":0,"slot":"1","type":"t_address"},{"astId":138499,"contract":"src/pol/rewards/RewardVaultFactory.sol:RewardVaultFactory","label":"distributor","offset":0,"slot":"2","type":"t_address"},{"astId":138502,"contract":"src/pol/rewards/RewardVaultFactory.sol:RewardVaultFactory","label":"beaconDepositContract","offset":0,"slot":"3","type":"t_address"},{"astId":138507,"contract":"src/pol/rewards/RewardVaultFactory.sol:RewardVaultFactory","label":"getVault","offset":0,"slot":"4","type":"t_mapping(t_address,t_address)"},{"astId":138511,"contract":"src/pol/rewards/RewardVaultFactory.sol:RewardVaultFactory","label":"allVaults","offset":0,"slot":"5","type":"t_array(t_address)dyn_storage"},{"astId":138514,"contract":"src/pol/rewards/RewardVaultFactory.sol:RewardVaultFactory","label":"bgtIncentiveDistributor","offset":0,"slot":"6","type":"t_address"},{"astId":138517,"contract":"src/pol/rewards/RewardVaultFactory.sol:RewardVaultFactory","label":"bgtIncentiveFeeRate","offset":0,"slot":"7","type":"t_uint256"},{"astId":138520,"contract":"src/pol/rewards/RewardVaultFactory.sol:RewardVaultFactory","label":"bgtIncentiveFeeCollector","offset":0,"slot":"8","type":"t_address"}],"types":{"t_address":{"encoding":"inplace","label":"address","numberOfBytes":"20"},"t_array(t_address)dyn_storage":{"encoding":"dynamic_array","label":"address[]","numberOfBytes":"32","base":"t_address"},"t_mapping(t_address,t_address)":{"encoding":"mapping","key":"t_address","label":"mapping(address => address)","numberOfBytes":"32","value":"t_address"},"t_uint256":{"encoding":"inplace","label":"uint256","numberOfBytes":"32"}}},"id":291}