{"abi":[{"type":"constructor","inputs":[],"stateMutability":"nonpayable"},{"type":"receive","stateMutability":"payable"},{"type":"function","name":"DEFAULT_ADMIN_ROLE","inputs":[],"outputs":[{"name":"","type":"bytes32","internalType":"bytes32"}],"stateMutability":"view"},{"type":"function","name":"MANAGER_ROLE","inputs":[],"outputs":[{"name":"","type":"bytes32","internalType":"bytes32"}],"stateMutability":"view"},{"type":"function","name":"PAUSER_ROLE","inputs":[],"outputs":[{"name":"","type":"bytes32","internalType":"bytes32"}],"stateMutability":"view"},{"type":"function","name":"UPGRADE_INTERFACE_VERSION","inputs":[],"outputs":[{"name":"","type":"string","internalType":"string"}],"stateMutability":"view"},{"type":"function","name":"WBERA","inputs":[],"outputs":[{"name":"","type":"address","internalType":"address"}],"stateMutability":"view"},{"type":"function","name":"WITHDRAWAL_COOLDOWN","inputs":[],"outputs":[{"name":"","type":"uint256","internalType":"uint256"}],"stateMutability":"view"},{"type":"function","name":"allowance","inputs":[{"name":"owner","type":"address","internalType":"address"},{"name":"spender","type":"address","internalType":"address"}],"outputs":[{"name":"","type":"uint256","internalType":"uint256"}],"stateMutability":"view"},{"type":"function","name":"approve","inputs":[{"name":"spender","type":"address","internalType":"address"},{"name":"value","type":"uint256","internalType":"uint256"}],"outputs":[{"name":"","type":"bool","internalType":"bool"}],"stateMutability":"nonpayable"},{"type":"function","name":"asset","inputs":[],"outputs":[{"name":"","type":"address","internalType":"address"}],"stateMutability":"view"},{"type":"function","name":"balanceOf","inputs":[{"name":"account","type":"address","internalType":"address"}],"outputs":[{"name":"","type":"uint256","internalType":"uint256"}],"stateMutability":"view"},{"type":"function","name":"completeWithdrawal","inputs":[{"name":"isNative","type":"bool","internalType":"bool"}],"outputs":[],"stateMutability":"nonpayable"},{"type":"function","name":"convertToAssets","inputs":[{"name":"shares","type":"uint256","internalType":"uint256"}],"outputs":[{"name":"","type":"uint256","internalType":"uint256"}],"stateMutability":"view"},{"type":"function","name":"convertToShares","inputs":[{"name":"assets","type":"uint256","internalType":"uint256"}],"outputs":[{"name":"","type":"uint256","internalType":"uint256"}],"stateMutability":"view"},{"type":"function","name":"decimals","inputs":[],"outputs":[{"name":"","type":"uint8","internalType":"uint8"}],"stateMutability":"view"},{"type":"function","name":"deposit","inputs":[{"name":"assets","type":"uint256","internalType":"uint256"},{"name":"receiver","type":"address","internalType":"address"}],"outputs":[{"name":"","type":"uint256","internalType":"uint256"}],"stateMutability":"nonpayable"},{"type":"function","name":"depositNative","inputs":[{"name":"assets","type":"uint256","internalType":"uint256"},{"name":"receiver","type":"address","internalType":"address"}],"outputs":[{"name":"","type":"uint256","internalType":"uint256"}],"stateMutability":"payable"},{"type":"function","name":"getRoleAdmin","inputs":[{"name":"role","type":"bytes32","internalType":"bytes32"}],"outputs":[{"name":"","type":"bytes32","internalType":"bytes32"}],"stateMutability":"view"},{"type":"function","name":"grantRole","inputs":[{"name":"role","type":"bytes32","internalType":"bytes32"},{"name":"account","type":"address","internalType":"address"}],"outputs":[],"stateMutability":"nonpayable"},{"type":"function","name":"hasRole","inputs":[{"name":"role","type":"bytes32","internalType":"bytes32"},{"name":"account","type":"address","internalType":"address"}],"outputs":[{"name":"","type":"bool","internalType":"bool"}],"stateMutability":"view"},{"type":"function","name":"initialize","inputs":[{"name":"governance","type":"address","internalType":"address"}],"outputs":[],"stateMutability":"nonpayable"},{"type":"function","name":"maxDeposit","inputs":[{"name":"","type":"address","internalType":"address"}],"outputs":[{"name":"","type":"uint256","internalType":"uint256"}],"stateMutability":"view"},{"type":"function","name":"maxMint","inputs":[{"name":"","type":"address","internalType":"address"}],"outputs":[{"name":"","type":"uint256","internalType":"uint256"}],"stateMutability":"view"},{"type":"function","name":"maxRedeem","inputs":[{"name":"owner","type":"address","internalType":"address"}],"outputs":[{"name":"","type":"uint256","internalType":"uint256"}],"stateMutability":"view"},{"type":"function","name":"maxWithdraw","inputs":[{"name":"owner","type":"address","internalType":"address"}],"outputs":[{"name":"","type":"uint256","internalType":"uint256"}],"stateMutability":"view"},{"type":"function","name":"mint","inputs":[{"name":"shares","type":"uint256","internalType":"uint256"},{"name":"receiver","type":"address","internalType":"address"}],"outputs":[{"name":"","type":"uint256","internalType":"uint256"}],"stateMutability":"nonpayable"},{"type":"function","name":"name","inputs":[],"outputs":[{"name":"","type":"string","internalType":"string"}],"stateMutability":"view"},{"type":"function","name":"pause","inputs":[],"outputs":[],"stateMutability":"nonpayable"},{"type":"function","name":"paused","inputs":[],"outputs":[{"name":"","type":"bool","internalType":"bool"}],"stateMutability":"view"},{"type":"function","name":"previewDeposit","inputs":[{"name":"assets","type":"uint256","internalType":"uint256"}],"outputs":[{"name":"","type":"uint256","internalType":"uint256"}],"stateMutability":"view"},{"type":"function","name":"previewMint","inputs":[{"name":"shares","type":"uint256","internalType":"uint256"}],"outputs":[{"name":"","type":"uint256","internalType":"uint256"}],"stateMutability":"view"},{"type":"function","name":"previewRedeem","inputs":[{"name":"shares","type":"uint256","internalType":"uint256"}],"outputs":[{"name":"","type":"uint256","internalType":"uint256"}],"stateMutability":"view"},{"type":"function","name":"previewWithdraw","inputs":[{"name":"assets","type":"uint256","internalType":"uint256"}],"outputs":[{"name":"","type":"uint256","internalType":"uint256"}],"stateMutability":"view"},{"type":"function","name":"proxiableUUID","inputs":[],"outputs":[{"name":"","type":"bytes32","internalType":"bytes32"}],"stateMutability":"view"},{"type":"function","name":"recoverERC20","inputs":[{"name":"tokenAddress","type":"address","internalType":"address"},{"name":"tokenAmount","type":"uint256","internalType":"uint256"}],"outputs":[],"stateMutability":"nonpayable"},{"type":"function","name":"redeem","inputs":[{"name":"shares","type":"uint256","internalType":"uint256"},{"name":"receiver","type":"address","internalType":"address"},{"name":"owner","type":"address","internalType":"address"}],"outputs":[{"name":"","type":"uint256","internalType":"uint256"}],"stateMutability":"nonpayable"},{"type":"function","name":"renounceRole","inputs":[{"name":"role","type":"bytes32","internalType":"bytes32"},{"name":"callerConfirmation","type":"address","internalType":"address"}],"outputs":[],"stateMutability":"nonpayable"},{"type":"function","name":"reservedAssets","inputs":[],"outputs":[{"name":"","type":"uint256","internalType":"uint256"}],"stateMutability":"view"},{"type":"function","name":"revokeRole","inputs":[{"name":"role","type":"bytes32","internalType":"bytes32"},{"name":"account","type":"address","internalType":"address"}],"outputs":[],"stateMutability":"nonpayable"},{"type":"function","name":"supportsInterface","inputs":[{"name":"interfaceId","type":"bytes4","internalType":"bytes4"}],"outputs":[{"name":"","type":"bool","internalType":"bool"}],"stateMutability":"view"},{"type":"function","name":"symbol","inputs":[],"outputs":[{"name":"","type":"string","internalType":"string"}],"stateMutability":"view"},{"type":"function","name":"totalAssets","inputs":[],"outputs":[{"name":"","type":"uint256","internalType":"uint256"}],"stateMutability":"view"},{"type":"function","name":"totalSupply","inputs":[],"outputs":[{"name":"","type":"uint256","internalType":"uint256"}],"stateMutability":"view"},{"type":"function","name":"transfer","inputs":[{"name":"to","type":"address","internalType":"address"},{"name":"value","type":"uint256","internalType":"uint256"}],"outputs":[{"name":"","type":"bool","internalType":"bool"}],"stateMutability":"nonpayable"},{"type":"function","name":"transferFrom","inputs":[{"name":"from","type":"address","internalType":"address"},{"name":"to","type":"address","internalType":"address"},{"name":"value","type":"uint256","internalType":"uint256"}],"outputs":[{"name":"","type":"bool","internalType":"bool"}],"stateMutability":"nonpayable"},{"type":"function","name":"unpause","inputs":[],"outputs":[],"stateMutability":"nonpayable"},{"type":"function","name":"upgradeToAndCall","inputs":[{"name":"newImplementation","type":"address","internalType":"address"},{"name":"data","type":"bytes","internalType":"bytes"}],"outputs":[],"stateMutability":"payable"},{"type":"function","name":"withdraw","inputs":[{"name":"assets","type":"uint256","internalType":"uint256"},{"name":"receiver","type":"address","internalType":"address"},{"name":"owner","type":"address","internalType":"address"}],"outputs":[{"name":"","type":"uint256","internalType":"uint256"}],"stateMutability":"nonpayable"},{"type":"function","name":"withdrawalRequests","inputs":[{"name":"","type":"address","internalType":"address"}],"outputs":[{"name":"assets","type":"uint256","internalType":"uint256"},{"name":"shares","type":"uint256","internalType":"uint256"},{"name":"requestTime","type":"uint256","internalType":"uint256"},{"name":"owner","type":"address","internalType":"address"},{"name":"receiver","type":"address","internalType":"address"}],"stateMutability":"view"},{"type":"event","name":"Approval","inputs":[{"name":"owner","type":"address","indexed":true,"internalType":"address"},{"name":"spender","type":"address","indexed":true,"internalType":"address"},{"name":"value","type":"uint256","indexed":false,"internalType":"uint256"}],"anonymous":false},{"type":"event","name":"Deposit","inputs":[{"name":"sender","type":"address","indexed":true,"internalType":"address"},{"name":"owner","type":"address","indexed":true,"internalType":"address"},{"name":"assets","type":"uint256","indexed":false,"internalType":"uint256"},{"name":"shares","type":"uint256","indexed":false,"internalType":"uint256"}],"anonymous":false},{"type":"event","name":"ERC20Recovered","inputs":[{"name":"token","type":"address","indexed":false,"internalType":"address"},{"name":"amount","type":"uint256","indexed":false,"internalType":"uint256"}],"anonymous":false},{"type":"event","name":"Initialized","inputs":[{"name":"version","type":"uint64","indexed":false,"internalType":"uint64"}],"anonymous":false},{"type":"event","name":"Paused","inputs":[{"name":"account","type":"address","indexed":false,"internalType":"address"}],"anonymous":false},{"type":"event","name":"RoleAdminChanged","inputs":[{"name":"role","type":"bytes32","indexed":true,"internalType":"bytes32"},{"name":"previousAdminRole","type":"bytes32","indexed":true,"internalType":"bytes32"},{"name":"newAdminRole","type":"bytes32","indexed":true,"internalType":"bytes32"}],"anonymous":false},{"type":"event","name":"RoleGranted","inputs":[{"name":"role","type":"bytes32","indexed":true,"internalType":"bytes32"},{"name":"account","type":"address","indexed":true,"internalType":"address"},{"name":"sender","type":"address","indexed":true,"internalType":"address"}],"anonymous":false},{"type":"event","name":"RoleRevoked","inputs":[{"name":"role","type":"bytes32","indexed":true,"internalType":"bytes32"},{"name":"account","type":"address","indexed":true,"internalType":"address"},{"name":"sender","type":"address","indexed":true,"internalType":"address"}],"anonymous":false},{"type":"event","name":"Transfer","inputs":[{"name":"from","type":"address","indexed":true,"internalType":"address"},{"name":"to","type":"address","indexed":true,"internalType":"address"},{"name":"value","type":"uint256","indexed":false,"internalType":"uint256"}],"anonymous":false},{"type":"event","name":"Unpaused","inputs":[{"name":"account","type":"address","indexed":false,"internalType":"address"}],"anonymous":false},{"type":"event","name":"Upgraded","inputs":[{"name":"implementation","type":"address","indexed":true,"internalType":"address"}],"anonymous":false},{"type":"event","name":"Withdraw","inputs":[{"name":"sender","type":"address","indexed":true,"internalType":"address"},{"name":"receiver","type":"address","indexed":true,"internalType":"address"},{"name":"owner","type":"address","indexed":true,"internalType":"address"},{"name":"assets","type":"uint256","indexed":false,"internalType":"uint256"},{"name":"shares","type":"uint256","indexed":false,"internalType":"uint256"}],"anonymous":false},{"type":"event","name":"WithdrawalCompleted","inputs":[{"name":"sender","type":"address","indexed":true,"internalType":"address"},{"name":"receiver","type":"address","indexed":true,"internalType":"address"},{"name":"owner","type":"address","indexed":true,"internalType":"address"},{"name":"assets","type":"uint256","indexed":false,"internalType":"uint256"},{"name":"shares","type":"uint256","indexed":false,"internalType":"uint256"}],"anonymous":false},{"type":"event","name":"WithdrawalRequested","inputs":[{"name":"sender","type":"address","indexed":true,"internalType":"address"},{"name":"receiver","type":"address","indexed":true,"internalType":"address"},{"name":"owner","type":"address","indexed":true,"internalType":"address"},{"name":"assets","type":"uint256","indexed":false,"internalType":"uint256"},{"name":"shares","type":"uint256","indexed":false,"internalType":"uint256"}],"anonymous":false},{"type":"error","name":"AccessControlBadConfirmation","inputs":[]},{"type":"error","name":"AccessControlUnauthorizedAccount","inputs":[{"name":"account","type":"address","internalType":"address"},{"name":"neededRole","type":"bytes32","internalType":"bytes32"}]},{"type":"error","name":"AddressEmptyCode","inputs":[{"name":"target","type":"address","internalType":"address"}]},{"type":"error","name":"AmountGreaterThanReward","inputs":[]},{"type":"error","name":"AmountLessThanMinIncentiveRate","inputs":[]},{"type":"error","name":"CannotRecoverIncentiveToken","inputs":[]},{"type":"error","name":"CannotRecoverRewardToken","inputs":[]},{"type":"error","name":"CannotRecoverStakingToken","inputs":[]},{"type":"error","name":"CommissionChangeAlreadyQueued","inputs":[]},{"type":"error","name":"CommissionNotQueuedOrDelayNotPassed","inputs":[]},{"type":"error","name":"DepositNotMultipleOfGwei","inputs":[]},{"type":"error","name":"DepositValueTooHigh","inputs":[]},{"type":"error","name":"DonateAmountLessThanPayoutAmount","inputs":[]},{"type":"error","name":"DuplicateReceiver","inputs":[{"name":"receiver","type":"address","internalType":"address"}]},{"type":"error","name":"DurationChangeNotAllowed","inputs":[]},{"type":"error","name":"ERC1967InvalidImplementation","inputs":[{"name":"implementation","type":"address","internalType":"address"}]},{"type":"error","name":"ERC1967NonPayable","inputs":[]},{"type":"error","name":"ERC20InsufficientAllowance","inputs":[{"name":"spender","type":"address","internalType":"address"},{"name":"allowance","type":"uint256","internalType":"uint256"},{"name":"needed","type":"uint256","internalType":"uint256"}]},{"type":"error","name":"ERC20InsufficientBalance","inputs":[{"name":"sender","type":"address","internalType":"address"},{"name":"balance","type":"uint256","internalType":"uint256"},{"name":"needed","type":"uint256","internalType":"uint256"}]},{"type":"error","name":"ERC20InvalidApprover","inputs":[{"name":"approver","type":"address","internalType":"address"}]},{"type":"error","name":"ERC20InvalidReceiver","inputs":[{"name":"receiver","type":"address","internalType":"address"}]},{"type":"error","name":"ERC20InvalidSender","inputs":[{"name":"sender","type":"address","internalType":"address"}]},{"type":"error","name":"ERC20InvalidSpender","inputs":[{"name":"spender","type":"address","internalType":"address"}]},{"type":"error","name":"ERC4626ExceededMaxDeposit","inputs":[{"name":"receiver","type":"address","internalType":"address"},{"name":"assets","type":"uint256","internalType":"uint256"},{"name":"max","type":"uint256","internalType":"uint256"}]},{"type":"error","name":"ERC4626ExceededMaxMint","inputs":[{"name":"receiver","type":"address","internalType":"address"},{"name":"shares","type":"uint256","internalType":"uint256"},{"name":"max","type":"uint256","internalType":"uint256"}]},{"type":"error","name":"ERC4626ExceededMaxRedeem","inputs":[{"name":"owner","type":"address","internalType":"address"},{"name":"shares","type":"uint256","internalType":"uint256"},{"name":"max","type":"uint256","internalType":"uint256"}]},{"type":"error","name":"ERC4626ExceededMaxWithdraw","inputs":[{"name":"owner","type":"address","internalType":"address"},{"name":"assets","type":"uint256","internalType":"uint256"},{"name":"max","type":"uint256","internalType":"uint256"}]},{"type":"error","name":"EnforcedPause","inputs":[]},{"type":"error","name":"ExpectedPause","inputs":[]},{"type":"error","name":"FailedCall","inputs":[]},{"type":"error","name":"IncentiveRateTooHigh","inputs":[]},{"type":"error","name":"IndexOutOfRange","inputs":[]},{"type":"error","name":"InsolventReward","inputs":[]},{"type":"error","name":"InsufficientDelegateStake","inputs":[]},{"type":"error","name":"InsufficientDeposit","inputs":[]},{"type":"error","name":"InsufficientIncentiveTokens","inputs":[]},{"type":"error","name":"InsufficientNativeValue","inputs":[]},{"type":"error","name":"InsufficientSelfStake","inputs":[]},{"type":"error","name":"InsufficientStake","inputs":[]},{"type":"error","name":"InvalidActivateBoostDelay","inputs":[]},{"type":"error","name":"InvalidArray","inputs":[]},{"type":"error","name":"InvalidBaseRate","inputs":[]},{"type":"error","name":"InvalidBoostMultiplier","inputs":[]},{"type":"error","name":"InvalidCommissionChangeDelay","inputs":[]},{"type":"error","name":"InvalidCommissionValue","inputs":[]},{"type":"error","name":"InvalidCredentialsLength","inputs":[]},{"type":"error","name":"InvalidDistribution","inputs":[]},{"type":"error","name":"InvalidDropBoostDelay","inputs":[]},{"type":"error","name":"InvalidIncentiveFeeRate","inputs":[]},{"type":"error","name":"InvalidIncentiveRate","inputs":[]},{"type":"error","name":"InvalidInitialization","inputs":[]},{"type":"error","name":"InvalidMaxIncentiveTokensCount","inputs":[]},{"type":"error","name":"InvalidMaxWeightPerVault","inputs":[]},{"type":"error","name":"InvalidMerkleRoot","inputs":[]},{"type":"error","name":"InvalidMinBoostedRewardRate","inputs":[]},{"type":"error","name":"InvalidProof","inputs":[]},{"type":"error","name":"InvalidPubKeyLength","inputs":[]},{"type":"error","name":"InvalidRewardAllocationWeights","inputs":[]},{"type":"error","name":"InvalidRewardClaimDelay","inputs":[]},{"type":"error","name":"InvalidRewardConvexity","inputs":[]},{"type":"error","name":"InvalidRewardDuration","inputs":[]},{"type":"error","name":"InvalidRewardRate","inputs":[]},{"type":"error","name":"InvalidSignatureLength","inputs":[]},{"type":"error","name":"InvalidStartBlock","inputs":[]},{"type":"error","name":"InvalidToken","inputs":[]},{"type":"error","name":"InvalidWeight","inputs":[]},{"type":"error","name":"InvalidateDefaultRewardAllocation","inputs":[]},{"type":"error","name":"InvariantCheckFailed","inputs":[]},{"type":"error","name":"MaxNumWeightsPerRewardAllocationIsZero","inputs":[]},{"type":"error","name":"MinIncentiveRateIsZero","inputs":[]},{"type":"error","name":"NotAContract","inputs":[]},{"type":"error","name":"NotApprovedSender","inputs":[]},{"type":"error","name":"NotBGT","inputs":[]},{"type":"error","name":"NotBlockRewardController","inputs":[]},{"type":"error","name":"NotDelegate","inputs":[]},{"type":"error","name":"NotDistributor","inputs":[]},{"type":"error","name":"NotEnoughBalance","inputs":[]},{"type":"error","name":"NotEnoughBoostedBalance","inputs":[]},{"type":"error","name":"NotEnoughTime","inputs":[]},{"type":"error","name":"NotFactoryVault","inputs":[]},{"type":"error","name":"NotFeeCollector","inputs":[]},{"type":"error","name":"NotIncentiveManager","inputs":[]},{"type":"error","name":"NotInitializing","inputs":[]},{"type":"error","name":"NotNewOperator","inputs":[]},{"type":"error","name":"NotOperator","inputs":[]},{"type":"error","name":"NotRewardDurationManager","inputs":[]},{"type":"error","name":"NotRewardVaultManager","inputs":[]},{"type":"error","name":"NotWhitelistedVault","inputs":[]},{"type":"error","name":"OperatorAlreadySet","inputs":[]},{"type":"error","name":"PayoutAmountIsZero","inputs":[]},{"type":"error","name":"ReentrancyGuardReentrantCall","inputs":[]},{"type":"error","name":"RewardAllocationAlreadyQueued","inputs":[]},{"type":"error","name":"RewardAllocationBlockDelayTooLarge","inputs":[]},{"type":"error","name":"RewardCycleNotEnded","inputs":[]},{"type":"error","name":"RewardDurationCoolDownPeriodNotPassed","inputs":[]},{"type":"error","name":"RewardInactive","inputs":[]},{"type":"error","name":"RewardsDurationIsZero","inputs":[]},{"type":"error","name":"SafeERC20FailedOperation","inputs":[{"name":"token","type":"address","internalType":"address"}]},{"type":"error","name":"StakeAmountIsZero","inputs":[]},{"type":"error","name":"TimestampAlreadyProcessed","inputs":[]},{"type":"error","name":"TokenAlreadyWhitelistedOrLimitReached","inputs":[]},{"type":"error","name":"TokenNotWhitelisted","inputs":[]},{"type":"error","name":"TooManyWeights","inputs":[]},{"type":"error","name":"TotalSupplyOverflow","inputs":[]},{"type":"error","name":"UUPSUnauthorizedCallContext","inputs":[]},{"type":"error","name":"UUPSUnsupportedProxiableUUID","inputs":[{"name":"slot","type":"bytes32","internalType":"bytes32"}]},{"type":"error","name":"UnauthorizedETHTransfer","inputs":[]},{"type":"error","name":"WithdrawAmountIsZero","inputs":[]},{"type":"error","name":"WithdrawalAlreadyRequested","inputs":[]},{"type":"error","name":"WithdrawalNotReady","inputs":[]},{"type":"error","name":"WithdrawalNotRequested","inputs":[]},{"type":"error","name":"ZeroAddress","inputs":[]},{"type":"error","name":"ZeroOperatorOnFirstDeposit","inputs":[]},{"type":"error","name":"ZeroPercentageWeight","inputs":[]}],"bytecode":{"object":"0x60a060405230608052348015610013575f80fd5b5061001c610021565b6100d3565b7ff0c57e16840df040f15088dc2f81fe391c3923bec73e23a9662efc9c229c6a00805468010000000000000000900460ff16156100715760405163f92ee8a960e01b815260040160405180910390fd5b80546001600160401b03908116146100d05780546001600160401b0319166001600160401b0390811782556040519081527fc7f505b2f371ae2175ee4913f4499e1f2633a7b5936321eed1cdaeb6115181d29060200160405180910390a15b50565b608051613b336100f95f395f8181611eb301528181611edc01526120fa0152613b335ff3fe608060405260043610610306575f3560e01c80638456cb5911610191578063c4d66de8116100dc578063dd62ed3e11610087578063ef8b30f711610062578063ef8b30f71461098d578063f019494514610adf578063feedab0014610af2575f80fd5b8063dd62ed3e14610a09578063e63ab1e914610a79578063ec87621c14610aac575f80fd5b8063ce96cb77116100b7578063ce96cb77146109ac578063d547741f146109cb578063d905777e146109ea575f80fd5b8063c4d66de81461096e578063c63d75b61461067f578063c6e6f5921461098d575f80fd5b8063a217fddf1161013c578063b3d7f6b911610117578063b3d7f6b914610911578063b460af9414610930578063ba0876521461094f575f80fd5b8063a217fddf14610897578063a9059cbb146108aa578063ad3cb1cc146108c9575f80fd5b806394bf804d1161016c57806394bf804d1461083d57806395d89b411461085c578063a0417bad14610870575f80fd5b80638456cb591461079a5780638980f11f146107ae57806391d14854146107cd575f80fd5b806336568abe116102515780634cdad506116101fc5780635c975abb116101d75780635c975abb146106e55780636e553f651461071b57806370a082311461073a575f80fd5b80634cdad506146103cc5780634f1ef286146106be57806352d1902d146106d1575f80fd5b80633d302d061161022c5780633d302d06146106575780633f4ba83a1461066b578063402d267d1461067f575f80fd5b806336568abe146105af57806338248a0c146105ce57806338d52e0f146105ed575f80fd5b806318160ddd116102b157806327b380f31161028c57806327b380f3146104c85780632f2ff15d1461056a578063313ce56714610589575f80fd5b806318160ddd1461042957806323b872dd1461045c578063248a9ca31461047b575f80fd5b806307a2d13a116102e157806307a2d13a146103cc578063095ea7b3146103eb5780630a28a4771461040a575f80fd5b806301e1d1141461035557806301ffc9a71461037c57806306fdde03146103ab575f80fd5b3661035157337369696969696969696969696969696969696969691461034f5761034f7f30466bc700000000000000000000000000000000000000000000000000000000610b08565b005b5f80fd5b348015610360575f80fd5b50610369610b10565b6040519081526020015b60405180910390f35b348015610387575f80fd5b5061039b6103963660046133ee565b610b40565b6040519015158152602001610373565b3480156103b6575f80fd5b506103bf610bd8565b604051610373919061342d565b3480156103d7575f80fd5b506103696103e6366004613480565b610cab565b3480156103f6575f80fd5b5061039b6104053660046134bf565b610cb6565b348015610415575f80fd5b50610369610424366004613480565b610ccd565b348015610434575f80fd5b507f52c63247e1f47db19d5ce0460030c497f067ca4cebf71ba98eeadabe20bace0254610369565b348015610467575f80fd5b5061039b6104763660046134e7565b610cd9565b348015610486575f80fd5b50610369610495366004613480565b5f9081527f02dd7bc7dec4dceedda775e58dd541e08a116c6c53815c0bd028192f7b626800602052604090206001015490565b3480156104d3575f80fd5b506105296104e2366004613521565b600160208190525f9182526040909120805491810154600282015460038301546004909301549192909173ffffffffffffffffffffffffffffffffffffffff918216911685565b6040805195865260208601949094529284019190915273ffffffffffffffffffffffffffffffffffffffff908116606084015216608082015260a001610373565b348015610575575f80fd5b5061034f61058436600461353a565b610cfe565b348015610594575f80fd5b5061059d610d47565b60405160ff9091168152602001610373565b3480156105ba575f80fd5b5061034f6105c936600461353a565b610d9a565b3480156105d9575f80fd5b5061034f6105e8366004613564565b610df8565b3480156105f8575f80fd5b507f0773e532dfede91f04b12a73d3d2acd361424f41f76b4fb79f090161e36b4e005473ffffffffffffffffffffffffffffffffffffffff165b60405173ffffffffffffffffffffffffffffffffffffffff9091168152602001610373565b348015610662575f80fd5b506103695f5481565b348015610676575f80fd5b5061034f6110b7565b34801561068a575f80fd5b50610369610699366004613521565b507fffffffffffffffffffffffffffffffffffffffffffffffffffffffffffffffff90565b61034f6106cc3660046135b0565b6110e9565b3480156106dc575f80fd5b50610369611108565b3480156106f0575f80fd5b507fcd5ed15c6e187e77e9aee88184c21f4f2182ab5827cb3b7e07fbedcd63f033005460ff1661039b565b348015610726575f80fd5b5061036961073536600461353a565b611136565b348015610745575f80fd5b50610369610754366004613521565b73ffffffffffffffffffffffffffffffffffffffff165f9081527f52c63247e1f47db19d5ce0460030c497f067ca4cebf71ba98eeadabe20bace00602052604090205490565b3480156107a5575f80fd5b5061034f611149565b3480156107b9575f80fd5b5061034f6107c83660046134bf565b61117b565b3480156107d8575f80fd5b5061039b6107e736600461353a565b5f9182527f02dd7bc7dec4dceedda775e58dd541e08a116c6c53815c0bd028192f7b6268006020908152604080842073ffffffffffffffffffffffffffffffffffffffff93909316845291905290205460ff1690565b348015610848575f80fd5b5061036961085736600461353a565b611260565b348015610867575f80fd5b506103bf611273565b34801561087b575f80fd5b5061063273696969696969696969696969696969696969696981565b3480156108a2575f80fd5b506103695f81565b3480156108b5575f80fd5b5061039b6108c43660046134bf565b6112c4565b3480156108d4575f80fd5b506103bf6040518060400160405280600581526020017f352e302e3000000000000000000000000000000000000000000000000000000081525081565b34801561091c575f80fd5b5061036961092b366004613480565b6112d1565b34801561093b575f80fd5b5061036961094a3660046136b1565b6112dd565b34801561095a575f80fd5b506103696109693660046136b1565b611371565b348015610979575f80fd5b5061034f610988366004613521565b6113f7565b348015610998575f80fd5b506103696109a7366004613480565b6116b6565b3480156109b7575f80fd5b506103696109c6366004613521565b6116c1565b3480156109d6575f80fd5b5061034f6109e536600461353a565b61170f565b3480156109f5575f80fd5b50610369610a04366004613521565b611752565b348015610a14575f80fd5b50610369610a233660046136ea565b73ffffffffffffffffffffffffffffffffffffffff9182165f9081527f52c63247e1f47db19d5ce0460030c497f067ca4cebf71ba98eeadabe20bace016020908152604080832093909416825291909152205490565b348015610a84575f80fd5b506103697f65d7a28e3265b37a6474929f336521b332c1681b933f6cb9f3376673440d862a81565b348015610ab7575f80fd5b506103697f241ecf16d79d0f8dbfb92cbc07fe17840425976cf0667f022fe9877caa831b0881565b610369610aed36600461353a565b61179b565b348015610afd575f80fd5b5061036962093a8081565b805f5260045ffd5b5f8054610b3173696969696969696969696969696969696969696930611815565b610b3b919061373f565b905090565b5f7fffffffff0000000000000000000000000000000000000000000000000000000082167f7965db0b000000000000000000000000000000000000000000000000000000001480610bd257507f01ffc9a7000000000000000000000000000000000000000000000000000000007fffffffff000000000000000000000000000000000000000000000000000000008316145b92915050565b7f52c63247e1f47db19d5ce0460030c497f067ca4cebf71ba98eeadabe20bace0380546060917f52c63247e1f47db19d5ce0460030c497f067ca4cebf71ba98eeadabe20bace0091610c2990613752565b80601f0160208091040260200160405190810160405280929190818152602001828054610c5590613752565b8015610ca05780601f10610c7757610100808354040283529160200191610ca0565b820191905f5260205f20905b815481529060010190602001808311610c8357829003601f168201915b505050505091505090565b5f610bd2825f611848565b5f33610cc381858561189f565b5060019392505050565b5f610bd28260016118ac565b5f33610ce68582856118fa565b610cf18585856119e0565b60019150505b9392505050565b5f8281527f02dd7bc7dec4dceedda775e58dd541e08a116c6c53815c0bd028192f7b6268006020526040902060010154610d3781611a89565b610d418383611a93565b50505050565b5f807f0773e532dfede91f04b12a73d3d2acd361424f41f76b4fb79f090161e36b4e0090505f8154610d94919074010000000000000000000000000000000000000000900460ff166137a3565b91505090565b73ffffffffffffffffffffffffffffffffffffffff81163314610de9576040517f6697b23200000000000000000000000000000000000000000000000000000000815260040160405180910390fd5b610df38282611bb1565b505050565b610e00611c8d565b610e08611d0e565b335f908152600160208181526040808420815160a0810183528154815293810154928401929092526002820154908301819052600382015473ffffffffffffffffffffffffffffffffffffffff90811660608501526004909201549091166080830152909103610e9b57610e9b7fc1a2e9a300000000000000000000000000000000000000000000000000000000610b08565b62093a808160400151610eae91906137bc565b421015610ede57610ede7f0f2ca6e700000000000000000000000000000000000000000000000000000000610b08565b80515f80548190610ef090849061373f565b90915550508115610fa35780516040517f2e1a7d4d000000000000000000000000000000000000000000000000000000008152600481019190915273696969696969696969696969696969696969696990632e1a7d4d906024015f604051808303815f87803b158015610f61575f80fd5b505af1158015610f73573d5f803e3d5ffd5b505082516080840151610f9e935073ffffffffffffffffffffffffffffffffffffffff169150611d6c565b610fc9565b60808101518151610fc99173696969696969696969696969696969696969696991611d85565b335f81815260016020818152604080842084815592830184905560028301939093556003820180547fffffffffffffffffffffffff0000000000000000000000000000000000000000908116909155600490920180549092169091556060840151608085015185518684015185519182529381019390935273ffffffffffffffffffffffffffffffffffffffff9182169491169290917f4c6ad8b7e59368e59b45728cd9d1b32ccd86975d924afbef40300d499b831332910160405180910390a4506110b460017f9b779b17422d0df92223018b32b4d1fa46e071723d6817e2486d003becc55f0055565b50565b7f241ecf16d79d0f8dbfb92cbc07fe17840425976cf0667f022fe9877caa831b086110e181611a89565b6110b4611dfe565b6110f1611e9b565b6110fa82611f9f565b6111048282611fa9565b5050565b5f6111116120e2565b507f360894a13ba1a3210667c828492db98dca3e2076cc3735a920a3ca505d382bbc90565b5f61113f611d0e565b610cf78383612151565b7f65d7a28e3265b37a6474929f336521b332c1681b933f6cb9f3376673440d862a61117381611a89565b6110b461218b565b5f61118581611a89565b7fffffffffffffffffffffffff969696969696969696969696969696969696969773ffffffffffffffffffffffffffffffffffffffff8416016111eb576111eb7f1b81380300000000000000000000000000000000000000000000000000000000610b08565b61120c73ffffffffffffffffffffffffffffffffffffffff84163384611d85565b6040805173ffffffffffffffffffffffffffffffffffffffff85168152602081018490527f505b28e6941631badc363841ecbf8e1214b9379c643936458e87be718e157999910160405180910390a1505050565b5f611269611d0e565b610cf78383612204565b7f52c63247e1f47db19d5ce0460030c497f067ca4cebf71ba98eeadabe20bace0480546060917f52c63247e1f47db19d5ce0460030c497f067ca4cebf71ba98eeadabe20bace0091610c2990613752565b5f33610cc38185856119e0565b5f610bd2826001611848565b5f806112e8836116c1565b90508085111561134f576040517ffe9cceec00000000000000000000000000000000000000000000000000000000815273ffffffffffffffffffffffffffffffffffffffff8416600482015260248101869052604481018290526064015b60405180910390fd5b5f61135986610ccd565b9050611368338686898561223e565b95945050505050565b5f8061137c83611752565b9050808511156113de576040517fb94abeec00000000000000000000000000000000000000000000000000000000815273ffffffffffffffffffffffffffffffffffffffff841660048201526024810186905260448101829052606401611346565b5f6113e886610cab565b9050611368338686848a61223e565b7ff0c57e16840df040f15088dc2f81fe391c3923bec73e23a9662efc9c229c6a00805468010000000000000000810460ff16159067ffffffffffffffff165f811580156114415750825b90505f8267ffffffffffffffff16600114801561145d5750303b155b90508115801561146b575080155b156114a2576040517ff92ee8a900000000000000000000000000000000000000000000000000000000815260040160405180910390fd5b84547fffffffffffffffffffffffffffffffffffffffffffffffff000000000000000016600117855583156115035784547fffffffffffffffffffffffffffffffffffffffffffffff00ffffffffffffffff16680100000000000000001785555b61150b612440565b611513612450565b61151b612460565b611523612460565b611540736969696969696969696969696969696969696969612468565b6115b46040518060400160405280601081526020017f504f4c205374616b6564205742455241000000000000000000000000000000008152506040518060400160405280600681526020017f7357424552410000000000000000000000000000000000000000000000000000815250612479565b73ffffffffffffffffffffffffffffffffffffffff86166115f8576115f87fd92e233d00000000000000000000000000000000000000000000000000000000610b08565b6116025f87611a93565b5061164d7f65d7a28e3265b37a6474929f336521b332c1681b933f6cb9f3376673440d862a7f241ecf16d79d0f8dbfb92cbc07fe17840425976cf0667f022fe9877caa831b0861248b565b83156116ae5784547fffffffffffffffffffffffffffffffffffffffffffffff00ffffffffffffffff168555604051600181527fc7f505b2f371ae2175ee4913f4499e1f2633a7b5936321eed1cdaeb6115181d29060200160405180910390a15b505050505050565b5f610bd2825f6118ac565b73ffffffffffffffffffffffffffffffffffffffff81165f9081527f52c63247e1f47db19d5ce0460030c497f067ca4cebf71ba98eeadabe20bace006020526040812054610bd2905f611848565b5f8281527f02dd7bc7dec4dceedda775e58dd541e08a116c6c53815c0bd028192f7b626800602052604090206001015461174881611a89565b610d418383611bb1565b73ffffffffffffffffffffffffffffffffffffffff81165f9081527f52c63247e1f47db19d5ce0460030c497f067ca4cebf71ba98eeadabe20bace006020526040812054610bd2565b5f6117a4611d0e565b8234146117d4576117d47f35898e6e00000000000000000000000000000000000000000000000000000000610b08565b7fffffffffffffffffffffffffffffffffffffffffffffffffffffffffffffffff5f6117ff856116b6565b905061180d3385878461252c565b949350505050565b5f816014526f70a082310000000000000000000000005f5260208060246010865afa601f3d111660205102905092915050565b5f610cf7611854610b10565b61185f9060016137bc565b61186a5f600a6138f0565b7f52c63247e1f47db19d5ce0460030c497f067ca4cebf71ba98eeadabe20bace025461189691906137bc565b8591908561261d565b610df3838383600161265f565b5f610cf76118bb82600a6138f0565b7f52c63247e1f47db19d5ce0460030c497f067ca4cebf71ba98eeadabe20bace02546118e791906137bc565b6118ef610b10565b6118969060016137bc565b73ffffffffffffffffffffffffffffffffffffffff8381165f9081527f52c63247e1f47db19d5ce0460030c497f067ca4cebf71ba98eeadabe20bace0160209081526040808320938616835292905220547fffffffffffffffffffffffffffffffffffffffffffffffffffffffffffffffff8114610d4157818110156119d2576040517ffb8f41b200000000000000000000000000000000000000000000000000000000815273ffffffffffffffffffffffffffffffffffffffff841660048201526024810182905260448101839052606401611346565b610d4184848484035f61265f565b73ffffffffffffffffffffffffffffffffffffffff8316611a2f576040517f96c6fd1e0000000000000000000000000000000000000000000000000000000081525f6004820152602401611346565b73ffffffffffffffffffffffffffffffffffffffff8216611a7e576040517fec442f050000000000000000000000000000000000000000000000000000000081525f6004820152602401611346565b610df38383836127c9565b6110b48133612988565b5f8281527f02dd7bc7dec4dceedda775e58dd541e08a116c6c53815c0bd028192f7b6268006020818152604080842073ffffffffffffffffffffffffffffffffffffffff8616855290915282205460ff16611ba8575f8481526020828152604080832073ffffffffffffffffffffffffffffffffffffffff87168452909152902080547fffffffffffffffffffffffffffffffffffffffffffffffffffffffffffffff00166001179055611b443390565b73ffffffffffffffffffffffffffffffffffffffff168373ffffffffffffffffffffffffffffffffffffffff16857f2f8788117e7eff1d82e926ec794901d17c78024a50270940304540a733656f0d60405160405180910390a46001915050610bd2565b5f915050610bd2565b5f8281527f02dd7bc7dec4dceedda775e58dd541e08a116c6c53815c0bd028192f7b6268006020818152604080842073ffffffffffffffffffffffffffffffffffffffff8616855290915282205460ff1615611ba8575f8481526020828152604080832073ffffffffffffffffffffffffffffffffffffffff8716808552925280832080547fffffffffffffffffffffffffffffffffffffffffffffffffffffffffffffff0016905551339287917ff6391f5c32d9c69d2a47ea670b442974b53935d1edc7fd64eb21e047a839171b9190a46001915050610bd2565b7f9b779b17422d0df92223018b32b4d1fa46e071723d6817e2486d003becc55f0080547ffffffffffffffffffffffffffffffffffffffffffffffffffffffffffffffffe01611d08576040517f3ee5aeb500000000000000000000000000000000000000000000000000000000815260040160405180910390fd5b60029055565b7fcd5ed15c6e187e77e9aee88184c21f4f2182ab5827cb3b7e07fbedcd63f033005460ff1615611d6a576040517fd93c066500000000000000000000000000000000000000000000000000000000815260040160405180910390fd5b565b5f385f3884865af16111045763b12d13eb5f526004601cfd5b81601452806034526fa9059cbb0000000000000000000000005f5260205f604460105f875af18060015f511416611dce57803d853b151710611dce576390b8ec185f526004601cfd5b505f603452505050565b60017f9b779b17422d0df92223018b32b4d1fa46e071723d6817e2486d003becc55f0055565b611e06612a2e565b7fcd5ed15c6e187e77e9aee88184c21f4f2182ab5827cb3b7e07fbedcd63f0330080547fffffffffffffffffffffffffffffffffffffffffffffffffffffffffffffff001681557f5db9ee0a495bf2e6ff9c91a7834c1ba4fdd244a5e8aa4e537bd38aeae4b073aa335b60405173ffffffffffffffffffffffffffffffffffffffff909116815260200160405180910390a150565b3073ffffffffffffffffffffffffffffffffffffffff7f0000000000000000000000000000000000000000000000000000000000000000161480611f6857507f000000000000000000000000000000000000000000000000000000000000000073ffffffffffffffffffffffffffffffffffffffff16611f4f7f360894a13ba1a3210667c828492db98dca3e2076cc3735a920a3ca505d382bbc5473ffffffffffffffffffffffffffffffffffffffff1690565b73ffffffffffffffffffffffffffffffffffffffff1614155b15611d6a576040517fe07c8dba00000000000000000000000000000000000000000000000000000000815260040160405180910390fd5b5f61110481611a89565b8173ffffffffffffffffffffffffffffffffffffffff166352d1902d6040518163ffffffff1660e01b8152600401602060405180830381865afa92505050801561202e575060408051601f3d9081017fffffffffffffffffffffffffffffffffffffffffffffffffffffffffffffffe016820190925261202b918101906138fe565b60015b61207c576040517f4c9c8ce300000000000000000000000000000000000000000000000000000000815273ffffffffffffffffffffffffffffffffffffffff83166004820152602401611346565b7f360894a13ba1a3210667c828492db98dca3e2076cc3735a920a3ca505d382bbc81146120d8576040517faa1d49a400000000000000000000000000000000000000000000000000000000815260048101829052602401611346565b610df38383612a89565b3073ffffffffffffffffffffffffffffffffffffffff7f00000000000000000000000000000000000000000000000000000000000000001614611d6a576040517fe07c8dba00000000000000000000000000000000000000000000000000000000815260040160405180910390fd5b5f7fffffffffffffffffffffffffffffffffffffffffffffffffffffffffffffffff5f61217d856116b6565b905061180d33858784612aeb565b612193611d0e565b7fcd5ed15c6e187e77e9aee88184c21f4f2182ab5827cb3b7e07fbedcd63f0330080547fffffffffffffffffffffffffffffffffffffffffffffffffffffffffffffff001660011781557f62e78cea01bee320cd4e420270b5ea74000d11b0c9f74754ebdbfc544b05a25833611e70565b5f7fffffffffffffffffffffffffffffffffffffffffffffffffffffffffffffffff5f612230856112d1565b905061180d33858388612aeb565b73ffffffffffffffffffffffffffffffffffffffff8086165f90815260016020818152604092839020835160a0810185528154815292810154918301919091526002810154928201839052600381015484166060830152600401549092166080830152156122cf576122cf7ffb52063b00000000000000000000000000000000000000000000000000000000610b08565b8373ffffffffffffffffffffffffffffffffffffffff168673ffffffffffffffffffffffffffffffffffffffff161461230d5761230d8487846118fa565b6123178483612ba2565b6040805160a08101825284815260208082018581524283850190815273ffffffffffffffffffffffffffffffffffffffff808a16606086019081528b8216608087019081528d83165f908152600196879052978820965187559351948601949094559051600285015591516003840180549184167fffffffffffffffffffffffff0000000000000000000000000000000000000000928316179055905160049093018054939092169216919091179055805484919081906123d99084906137bc565b9091555050604080518481526020810184905273ffffffffffffffffffffffffffffffffffffffff8087169288821692918a16917fb2548735665420c0361424078b21bae435a0aa6c2f4a221825ce44b3370de61e910160405180910390a4505050505050565b612448612bfc565b611d6a612c63565b612458612bfc565b611d6a612cb4565b611d6a612bfc565b612470612bfc565b6110b481612cbc565b612481612bfc565b6111048282612d8d565b7f02dd7bc7dec4dceedda775e58dd541e08a116c6c53815c0bd028192f7b6268005f6124e4845f9081527f02dd7bc7dec4dceedda775e58dd541e08a116c6c53815c0bd028192f7b626800602052604090206001015490565b5f85815260208490526040808220600101869055519192508491839187917fbd79b86ffe0ab8e8776151514217cd7cacd52c909f66475c3af44e129f0b00ff9190a450505050565b73696969696969696969696969696969696969696973ffffffffffffffffffffffffffffffffffffffff1663d0e30db0836040518263ffffffff1660e01b81526004015f604051808303818588803b158015612586575f80fd5b505af1158015612598573d5f803e3d5ffd5b50505050506125a78382612df0565b8273ffffffffffffffffffffffffffffffffffffffff168473ffffffffffffffffffffffffffffffffffffffff167fdcbc1c05240f31ff3ad067ef1ee35ce4997762752e3a095284754544f4c709d7848460405161260f929190918252602082015260400190565b60405180910390a350505050565b5f61264a61262a83612e4a565b801561264557505f848061264057612640613915565b868809115b151590565b612655868686612e76565b61136891906137bc565b7f52c63247e1f47db19d5ce0460030c497f067ca4cebf71ba98eeadabe20bace0073ffffffffffffffffffffffffffffffffffffffff85166126cf576040517fe602df050000000000000000000000000000000000000000000000000000000081525f6004820152602401611346565b73ffffffffffffffffffffffffffffffffffffffff841661271e576040517f94280d620000000000000000000000000000000000000000000000000000000081525f6004820152602401611346565b73ffffffffffffffffffffffffffffffffffffffff8086165f908152600183016020908152604080832093881683529290522083905581156127c2578373ffffffffffffffffffffffffffffffffffffffff168573ffffffffffffffffffffffffffffffffffffffff167f8c5be1e5ebec7d5bd14f71427d1e84f3dd0314c0f7b2291e5b200ac8c7c3b925856040516127b991815260200190565b60405180910390a35b5050505050565b7f52c63247e1f47db19d5ce0460030c497f067ca4cebf71ba98eeadabe20bace0073ffffffffffffffffffffffffffffffffffffffff84166128235781816002015f82825461281891906137bc565b909155506128d39050565b73ffffffffffffffffffffffffffffffffffffffff84165f90815260208290526040902054828110156128a8576040517fe450d38c00000000000000000000000000000000000000000000000000000000815273ffffffffffffffffffffffffffffffffffffffff861660048201526024810182905260448101849052606401611346565b73ffffffffffffffffffffffffffffffffffffffff85165f9081526020839052604090209083900390555b73ffffffffffffffffffffffffffffffffffffffff83166128fe576002810180548390039055612929565b73ffffffffffffffffffffffffffffffffffffffff83165f9081526020829052604090208054830190555b8273ffffffffffffffffffffffffffffffffffffffff168473ffffffffffffffffffffffffffffffffffffffff167fddf252ad1be2c89b69c2b068fc378daa952ba7f163c4a11628f55a4df523b3ef8460405161260f91815260200190565b5f8281527f02dd7bc7dec4dceedda775e58dd541e08a116c6c53815c0bd028192f7b6268006020908152604080832073ffffffffffffffffffffffffffffffffffffffff8516845290915290205460ff16611104576040517fe2517d3f00000000000000000000000000000000000000000000000000000000815273ffffffffffffffffffffffffffffffffffffffff8216600482015260248101839052604401611346565b7fcd5ed15c6e187e77e9aee88184c21f4f2182ab5827cb3b7e07fbedcd63f033005460ff16611d6a576040517f8dfc202b00000000000000000000000000000000000000000000000000000000815260040160405180910390fd5b612a9282612f4b565b60405173ffffffffffffffffffffffffffffffffffffffff8316907fbc7cd75a20ee27fd9adebab32041f755214dbc6bffa90cc0225b39da2e5c2d3b905f90a2805115612ae357610df38282613019565b61110461308f565b7f0773e532dfede91f04b12a73d3d2acd361424f41f76b4fb79f090161e36b4e008054612b309073ffffffffffffffffffffffffffffffffffffffff168630866130c7565b612b3a8483612df0565b8373ffffffffffffffffffffffffffffffffffffffff168573ffffffffffffffffffffffffffffffffffffffff167fdcbc1c05240f31ff3ad067ef1ee35ce4997762752e3a095284754544f4c709d785856040516127b9929190918252602082015260400190565b73ffffffffffffffffffffffffffffffffffffffff8216612bf1576040517f96c6fd1e0000000000000000000000000000000000000000000000000000000081525f6004820152602401611346565b611104825f836127c9565b7ff0c57e16840df040f15088dc2f81fe391c3923bec73e23a9662efc9c229c6a005468010000000000000000900460ff16611d6a576040517fd7e6bcf800000000000000000000000000000000000000000000000000000000815260040160405180910390fd5b612c6b612bfc565b7fcd5ed15c6e187e77e9aee88184c21f4f2182ab5827cb3b7e07fbedcd63f0330080547fffffffffffffffffffffffffffffffffffffffffffffffffffffffffffffff00169055565b611dd8612bfc565b612cc4612bfc565b7f0773e532dfede91f04b12a73d3d2acd361424f41f76b4fb79f090161e36b4e005f80612cf08461315c565b9150915081612d00576012612d02565b805b83547fffffffffffffffffffffff000000000000000000000000000000000000000000167401000000000000000000000000000000000000000060ff92909216919091027fffffffffffffffffffffffff0000000000000000000000000000000000000000161773ffffffffffffffffffffffffffffffffffffffff94909416939093179091555050565b612d95612bfc565b7f52c63247e1f47db19d5ce0460030c497f067ca4cebf71ba98eeadabe20bace007f52c63247e1f47db19d5ce0460030c497f067ca4cebf71ba98eeadabe20bace03612de18482613986565b5060048101610d418382613986565b73ffffffffffffffffffffffffffffffffffffffff8216612e3f576040517fec442f050000000000000000000000000000000000000000000000000000000081525f6004820152602401611346565b6111045f83836127c9565b5f6002826003811115612e5f57612e5f613a9d565b612e699190613aca565b60ff166001149050919050565b5f838302817fffffffffffffffffffffffffffffffffffffffffffffffffffffffffffffffff85870982811083820303915050805f03612ec957838281612ebf57612ebf613915565b0492505050610cf7565b808411612ee057612ee0600385150260111861326d565b5f848688095f868103871696879004966002600389028118808a02820302808a02820302808a02820302808a02820302808a02820302808a02909103029181900381900460010186841190950394909402919094039290920491909117919091029150509392505050565b8073ffffffffffffffffffffffffffffffffffffffff163b5f03612fb3576040517f4c9c8ce300000000000000000000000000000000000000000000000000000000815273ffffffffffffffffffffffffffffffffffffffff82166004820152602401611346565b7f360894a13ba1a3210667c828492db98dca3e2076cc3735a920a3ca505d382bbc80547fffffffffffffffffffffffff00000000000000000000000000000000000000001673ffffffffffffffffffffffffffffffffffffffff92909216919091179055565b60605f808473ffffffffffffffffffffffffffffffffffffffff16846040516130429190613b10565b5f60405180830381855af49150503d805f811461307a576040519150601f19603f3d011682016040523d82523d5f602084013e61307f565b606091505b509150915061136885838361327e565b3415611d6a576040517fb398979f00000000000000000000000000000000000000000000000000000000815260040160405180910390fd5b6040805173ffffffffffffffffffffffffffffffffffffffff85811660248301528416604482015260648082018490528251808303909101815260849091019091526020810180517bffffffffffffffffffffffffffffffffffffffffffffffffffffffff167f23b872dd00000000000000000000000000000000000000000000000000000000179052610d4190859061330d565b60408051600481526024810182526020810180517bffffffffffffffffffffffffffffffffffffffffffffffffffffffff167f313ce5670000000000000000000000000000000000000000000000000000000017905290515f9182918291829173ffffffffffffffffffffffffffffffffffffffff8716916131dd91613b10565b5f60405180830381855afa9150503d805f8114613215576040519150601f19603f3d011682016040523d82523d5f602084013e61321a565b606091505b509150915081801561322e57506020815110155b15613261575f8180602001905181019061324891906138fe565b905060ff811161325f576001969095509350505050565b505b505f9485945092505050565b634e487b715f52806020526024601cfd5b6060826132935761328e826133ac565b610cf7565b81511580156132b7575073ffffffffffffffffffffffffffffffffffffffff84163b155b15613306576040517f9996b31500000000000000000000000000000000000000000000000000000000815273ffffffffffffffffffffffffffffffffffffffff85166004820152602401611346565b5080610cf7565b5f8060205f8451602086015f885af18061332c576040513d5f823e3d81fd5b50505f513d9150811561334357806001141561335d565b73ffffffffffffffffffffffffffffffffffffffff84163b155b15610d41576040517f5274afe700000000000000000000000000000000000000000000000000000000815273ffffffffffffffffffffffffffffffffffffffff85166004820152602401611346565b8051156133bc5780518082602001fd5b6040517fd6bda27500000000000000000000000000000000000000000000000000000000815260040160405180910390fd5b5f602082840312156133fe575f80fd5b81357fffffffff0000000000000000000000000000000000000000000000000000000081168114610cf7575f80fd5b602081525f82518060208401528060208501604085015e5f6040828501015260407fffffffffffffffffffffffffffffffffffffffffffffffffffffffffffffffe0601f83011684010191505092915050565b5f60208284031215613490575f80fd5b5035919050565b803573ffffffffffffffffffffffffffffffffffffffff811681146134ba575f80fd5b919050565b5f80604083850312156134d0575f80fd5b6134d983613497565b946020939093013593505050565b5f805f606084860312156134f9575f80fd5b61350284613497565b925061351060208501613497565b929592945050506040919091013590565b5f60208284031215613531575f80fd5b610cf782613497565b5f806040838503121561354b575f80fd5b8235915061355b60208401613497565b90509250929050565b5f60208284031215613574575f80fd5b81358015158114610cf7575f80fd5b7f4e487b71000000000000000000000000000000000000000000000000000000005f52604160045260245ffd5b5f80604083850312156135c1575f80fd5b6135ca83613497565b9150602083013567ffffffffffffffff8111156135e5575f80fd5b8301601f810185136135f5575f80fd5b803567ffffffffffffffff81111561360f5761360f613583565b6040517fffffffffffffffffffffffffffffffffffffffffffffffffffffffffffffffe0603f7fffffffffffffffffffffffffffffffffffffffffffffffffffffffffffffffe0601f8501160116810181811067ffffffffffffffff8211171561367b5761367b613583565b604052818152828201602001871015613692575f80fd5b816020840160208301375f602083830101528093505050509250929050565b5f805f606084860312156136c3575f80fd5b833592506136d360208501613497565b91506136e160408501613497565b90509250925092565b5f80604083850312156136fb575f80fd5b61370483613497565b915061355b60208401613497565b7f4e487b71000000000000000000000000000000000000000000000000000000005f52601160045260245ffd5b81810381811115610bd257610bd2613712565b600181811c9082168061376657607f821691505b60208210810361379d577f4e487b71000000000000000000000000000000000000000000000000000000005f52602260045260245ffd5b50919050565b60ff8181168382160190811115610bd257610bd2613712565b80820180821115610bd257610bd2613712565b6001815b600184111561380a578085048111156137ee576137ee613712565b60018416156137fc57908102905b60019390931c9280026137d3565b935093915050565b5f8261382057506001610bd2565b8161382c57505f610bd2565b8160018114613842576002811461384c57613868565b6001915050610bd2565b60ff84111561385d5761385d613712565b50506001821b610bd2565b5060208310610133831016604e8410600b841016171561388b575081810a610bd2565b6138b67fffffffffffffffffffffffffffffffffffffffffffffffffffffffffffffffff84846137cf565b807fffffffffffffffffffffffffffffffffffffffffffffffffffffffffffffffff048211156138e8576138e8613712565b029392505050565b5f610cf760ff841683613812565b5f6020828403121561390e575f80fd5b5051919050565b7f4e487b71000000000000000000000000000000000000000000000000000000005f52601260045260245ffd5b601f821115610df357805f5260205f20601f840160051c810160208510156139675750805b601f840160051c820191505b818110156127c2575f8155600101613973565b815167ffffffffffffffff8111156139a0576139a0613583565b6139b4816139ae8454613752565b84613942565b6020601f821160018114613a05575f83156139cf5750848201515b7fffffffffffffffffffffffffffffffffffffffffffffffffffffffffffffffff600385901b1c1916600184901b1784556127c2565b5f848152602081207fffffffffffffffffffffffffffffffffffffffffffffffffffffffffffffffe08516915b82811015613a525787850151825560209485019460019092019101613a32565b5084821015613a8e57868401517fffffffffffffffffffffffffffffffffffffffffffffffffffffffffffffffff600387901b60f8161c191681555b50505050600190811b01905550565b7f4e487b71000000000000000000000000000000000000000000000000000000005f52602160045260245ffd5b5f60ff831680613b01577f4e487b71000000000000000000000000000000000000000000000000000000005f52601260045260245ffd5b8060ff84160691505092915050565b5f82518060208501845e5f92019182525091905056fea164736f6c634300081a000a","linkReferences":{}},"methodIdentifiers":{"DEFAULT_ADMIN_ROLE()":"a217fddf","MANAGER_ROLE()":"ec87621c","PAUSER_ROLE()":"e63ab1e9","UPGRADE_INTERFACE_VERSION()":"ad3cb1cc","WBERA()":"a0417bad","WITHDRAWAL_COOLDOWN()":"feedab00","allowance(address,address)":"dd62ed3e","approve(address,uint256)":"095ea7b3","asset()":"38d52e0f","balanceOf(address)":"70a08231","completeWithdrawal(bool)":"38248a0c","convertToAssets(uint256)":"07a2d13a","convertToShares(uint256)":"c6e6f592","decimals()":"313ce567","deposit(uint256,address)":"6e553f65","depositNative(uint256,address)":"f0194945","getRoleAdmin(bytes32)":"248a9ca3","grantRole(bytes32,address)":"2f2ff15d","hasRole(bytes32,address)":"91d14854","initialize(address)":"c4d66de8","maxDeposit(address)":"402d267d","maxMint(address)":"c63d75b6","maxRedeem(address)":"d905777e","maxWithdraw(address)":"ce96cb77","mint(uint256,address)":"94bf804d","name()":"06fdde03","pause()":"8456cb59","paused()":"5c975abb","previewDeposit(uint256)":"ef8b30f7","previewMint(uint256)":"b3d7f6b9","previewRedeem(uint256)":"4cdad506","previewWithdraw(uint256)":"0a28a477","proxiableUUID()":"52d1902d","recoverERC20(address,uint256)":"8980f11f","redeem(uint256,address,address)":"ba087652","renounceRole(bytes32,address)":"36568abe","reservedAssets()":"3d302d06","revokeRole(bytes32,address)":"d547741f","supportsInterface(bytes4)":"01ffc9a7","symbol()":"95d89b41","totalAssets()":"01e1d114","totalSupply()":"18160ddd","transfer(address,uint256)":"a9059cbb","transferFrom(address,address,uint256)":"23b872dd","unpause()":"3f4ba83a","upgradeToAndCall(address,bytes)":"4f1ef286","withdraw(uint256,address,address)":"b460af94","withdrawalRequests(address)":"27b380f3"},"storageLayout":{"storage":[{"astId":131195,"contract":"src/pol/WBERAStakerVault.sol:WBERAStakerVault","label":"reservedAssets","offset":0,"slot":"0","type":"t_uint256"},{"astId":131201,"contract":"src/pol/WBERAStakerVault.sol:WBERAStakerVault","label":"withdrawalRequests","offset":0,"slot":"1","type":"t_mapping(t_address,t_struct(WithdrawalRequest)131192_storage)"}],"types":{"t_address":{"encoding":"inplace","label":"address","numberOfBytes":"20"},"t_mapping(t_address,t_struct(WithdrawalRequest)131192_storage)":{"encoding":"mapping","key":"t_address","label":"mapping(address => struct WBERAStakerVault.WithdrawalRequest)","numberOfBytes":"32","value":"t_struct(WithdrawalRequest)131192_storage"},"t_struct(WithdrawalRequest)131192_storage":{"encoding":"inplace","label":"struct WBERAStakerVault.WithdrawalRequest","numberOfBytes":"160","members":[{"astId":131183,"contract":"src/pol/WBERAStakerVault.sol:WBERAStakerVault","label":"assets","offset":0,"slot":"0","type":"t_uint256"},{"astId":131185,"contract":"src/pol/WBERAStakerVault.sol:WBERAStakerVault","label":"shares","offset":0,"slot":"1","type":"t_uint256"},{"astId":131187,"contract":"src/pol/WBERAStakerVault.sol:WBERAStakerVault","label":"requestTime","offset":0,"slot":"2","type":"t_uint256"},{"astId":131189,"contract":"src/pol/WBERAStakerVault.sol:WBERAStakerVault","label":"owner","offset":0,"slot":"3","type":"t_address"},{"astId":131191,"contract":"src/pol/WBERAStakerVault.sol:WBERAStakerVault","label":"receiver","offset":0,"slot":"4","type":"t_address"}]},"t_uint256":{"encoding":"inplace","label":"uint256","numberOfBytes":"32"}}},"id":271}